{
  "contractName": "Health",
  "abi": [
    {
      "inputs": [],
      "payable": false,
      "stateMutability": "nonpayable",
      "type": "constructor"
    },
    {
      "anonymous": false,
      "inputs": [
        {
          "indexed": false,
          "internalType": "address",
          "name": "ChemistAdd",
          "type": "address"
        }
      ],
      "name": "ChemistAdded",
      "type": "event"
    },
    {
      "anonymous": false,
      "inputs": [
        {
          "indexed": false,
          "internalType": "address",
          "name": "doctorAdd",
          "type": "address"
        }
      ],
      "name": "DoctorAdded",
      "type": "event"
    },
    {
      "anonymous": false,
      "inputs": [
        {
          "indexed": false,
          "internalType": "address",
          "name": "insAdd",
          "type": "address"
        }
      ],
      "name": "insAdded",
      "type": "event"
    },
    {
      "anonymous": false,
      "inputs": [
        {
          "indexed": true,
          "internalType": "address",
          "name": "Did",
          "type": "address"
        },
        {
          "indexed": true,
          "internalType": "address",
          "name": "Pid",
          "type": "address"
        },
        {
          "indexed": false,
          "internalType": "uint256",
          "name": "tid",
          "type": "uint256"
        }
      ],
      "name": "treated",
      "type": "event"
    },
    {
      "constant": false,
      "inputs": [
        {
          "internalType": "string",
          "name": "_Phash",
          "type": "string"
        }
      ],
      "name": "addPat",
      "outputs": [
        {
          "internalType": "bool",
          "name": "",
          "type": "bool"
        }
      ],
      "payable": false,
      "stateMutability": "nonpayable",
      "type": "function"
    },
    {
      "constant": false,
      "inputs": [],
      "name": "getbills",
      "outputs": [
        {
          "components": [
            {
              "internalType": "address",
              "name": "chemid",
              "type": "address"
            },
            {
              "internalType": "string",
              "name": "date",
              "type": "string"
            },
            {
              "internalType": "uint256",
              "name": "amt",
              "type": "uint256"
            }
          ],
          "internalType": "struct Health.bill[]",
          "name": "",
          "type": "tuple[]"
        }
      ],
      "payable": false,
      "stateMutability": "nonpayable",
      "type": "function"
    },
    {
      "constant": false,
      "inputs": [
        {
          "internalType": "address",
          "name": "_Padd",
          "type": "address"
        }
      ],
      "name": "getPatient",
      "outputs": [
        {
          "internalType": "string",
          "name": "",
          "type": "string"
        },
        {
          "internalType": "uint256[]",
          "name": "",
          "type": "uint256[]"
        },
        {
          "internalType": "string",
          "name": "",
          "type": "string"
        }
      ],
      "payable": false,
      "stateMutability": "nonpayable",
      "type": "function"
    },
    {
      "constant": false,
      "inputs": [
        {
          "internalType": "address",
          "name": "_Dadd",
          "type": "address"
        }
      ],
      "name": "getDoctor",
      "outputs": [
        {
          "internalType": "string",
          "name": "",
          "type": "string"
        }
      ],
      "payable": false,
      "stateMutability": "nonpayable",
      "type": "function"
    },
    {
      "constant": false,
      "inputs": [
        {
          "internalType": "address",
          "name": "_Iadd",
          "type": "address"
        }
      ],
      "name": "getIns",
      "outputs": [
        {
          "internalType": "string",
          "name": "",
          "type": "string"
        }
      ],
      "payable": false,
      "stateMutability": "nonpayable",
      "type": "function"
    },
    {
      "constant": false,
      "inputs": [
        {
          "internalType": "address",
          "name": "_Dadd",
          "type": "address"
        }
      ],
      "name": "grantAccess",
      "outputs": [
        {
          "internalType": "bool",
          "name": "",
          "type": "bool"
        }
      ],
      "payable": false,
      "stateMutability": "nonpayable",
      "type": "function"
    },
    {
      "constant": false,
      "inputs": [
        {
          "internalType": "address",
          "name": "_Iadd",
          "type": "address"
        }
      ],
      "name": "applyIns",
      "outputs": [
        {
          "internalType": "bool",
          "name": "",
          "type": "bool"
        }
      ],
      "payable": false,
      "stateMutability": "nonpayable",
      "type": "function"
    },
    {
      "constant": false,
      "inputs": [
        {
          "internalType": "address",
          "name": "pat",
          "type": "address"
        },
        {
          "internalType": "address",
          "name": "doctor",
          "type": "address"
        }
      ],
      "name": "isValid",
      "outputs": [
        {
          "internalType": "bool",
          "name": "",
          "type": "bool"
        }
      ],
      "payable": false,
      "stateMutability": "nonpayable",
      "type": "function"
    },
    {
      "constant": false,
      "inputs": [
        {
          "internalType": "address",
          "name": "_Uaddress",
          "type": "address"
        }
      ],
      "name": "getUser",
      "outputs": [
        {
          "internalType": "string",
          "name": "",
          "type": "string"
        }
      ],
      "payable": false,
      "stateMutability": "nonpayable",
      "type": "function"
    },
    {
      "constant": false,
      "inputs": [
        {
          "internalType": "string",
          "name": "_Dhash",
          "type": "string"
        }
      ],
      "name": "addDoc",
      "outputs": [
        {
          "internalType": "bool",
          "name": "",
          "type": "bool"
        }
      ],
      "payable": false,
      "stateMutability": "nonpayable",
      "type": "function"
    },
    {
      "constant": false,
      "inputs": [
        {
          "internalType": "address",
          "name": "_Padd",
          "type": "address"
        },
        {
          "internalType": "string",
          "name": "_precautions",
          "type": "string"
        }
      ],
      "name": "updatePrecautions",
      "outputs": [
        {
          "internalType": "bool",
          "name": "",
          "type": "bool"
        }
      ],
      "payable": false,
      "stateMutability": "nonpayable",
      "type": "function"
    },
    {
      "constant": false,
      "inputs": [
        {
          "internalType": "address",
          "name": "_Padd",
          "type": "address"
        },
        {
          "internalType": "string",
          "name": "_Thash",
          "type": "string"
        }
      ],
      "name": "treatPatient",
      "outputs": [
        {
          "internalType": "uint256",
          "name": "",
          "type": "uint256"
        }
      ],
      "payable": false,
      "stateMutability": "nonpayable",
      "type": "function"
    },
    {
      "constant": false,
      "inputs": [
        {
          "internalType": "address",
          "name": "_pid",
          "type": "address"
        },
        {
          "internalType": "string",
          "name": "_medicines",
          "type": "string"
        },
        {
          "internalType": "string",
          "name": "_date",
          "type": "string"
        }
      ],
      "name": "giveMedicines",
      "outputs": [
        {
          "internalType": "bool",
          "name": "",
          "type": "bool"
        }
      ],
      "payable": false,
      "stateMutability": "nonpayable",
      "type": "function"
    },
    {
      "constant": false,
      "inputs": [
        {
          "internalType": "uint256",
          "name": "_tid",
          "type": "uint256"
        }
      ],
      "name": "getTrtDetails",
      "outputs": [
        {
          "internalType": "string",
          "name": "",
          "type": "string"
        }
      ],
      "payable": false,
      "stateMutability": "nonpayable",
      "type": "function"
    },
    {
      "constant": false,
      "inputs": [
        {
          "internalType": "string",
          "name": "Chash",
          "type": "string"
        }
      ],
      "name": "addChemist",
      "outputs": [
        {
          "internalType": "bool",
          "name": "",
          "type": "bool"
        }
      ],
      "payable": false,
      "stateMutability": "nonpayable",
      "type": "function"
    },
    {
      "constant": false,
      "inputs": [
        {
          "internalType": "address",
          "name": "_pid",
          "type": "address"
        }
      ],
      "name": "getMedicineDetails",
      "outputs": [
        {
          "components": [
            {
              "internalType": "address",
              "name": "pid",
              "type": "address"
            },
            {
              "internalType": "string",
              "name": "medicines",
              "type": "string"
            },
            {
              "internalType": "string",
              "name": "date",
              "type": "string"
            }
          ],
          "internalType": "struct Health.medicine[]",
          "name": "",
          "type": "tuple[]"
        }
      ],
      "payable": false,
      "stateMutability": "nonpayable",
      "type": "function"
    },
    {
      "constant": false,
      "inputs": [
        {
          "internalType": "address",
          "name": "_pid",
          "type": "address"
        },
        {
          "internalType": "string",
          "name": "_date",
          "type": "string"
        },
        {
          "internalType": "uint256",
          "name": "_amt",
          "type": "uint256"
        }
      ],
      "name": "sellMedicines",
      "outputs": [
        {
          "internalType": "bool",
          "name": "",
          "type": "bool"
        }
      ],
      "payable": false,
      "stateMutability": "nonpayable",
      "type": "function"
    },
    {
      "constant": false,
      "inputs": [
        {
          "internalType": "string",
          "name": "Ihash",
          "type": "string"
        }
      ],
      "name": "addInsCompany",
      "outputs": [
        {
          "internalType": "bool",
          "name": "",
          "type": "bool"
        }
      ],
      "payable": false,
      "stateMutability": "nonpayable",
      "type": "function"
    },
    {
      "constant": false,
      "inputs": [],
      "name": "getAppliedForIns",
      "outputs": [
        {
          "internalType": "address[]",
          "name": "",
          "type": "address[]"
        }
      ],
      "payable": false,
      "stateMutability": "nonpayable",
      "type": "function"
    },
    {
      "constant": false,
      "inputs": [
        {
          "internalType": "address",
          "name": "patId",
          "type": "address"
        }
      ],
      "name": "approveInsurance",
      "outputs": [
        {
          "internalType": "bool",
          "name": "",
          "type": "bool"
        }
      ],
      "payable": false,
      "stateMutability": "nonpayable",
      "type": "function"
    }
  ],
  "bytecode": "0x608060405234801561001057600080fd5b5060016000803373ffffffffffffffffffffffffffffffffffffffff1673ffffffffffffffffffffffffffffffffffffffff16815260200190815260200160002081905550613591806100646000396000f3fe608060405234801561001057600080fd5b506004361061012c5760003560e01c80638537b375116100ad578063af874a7611610071578063af874a76146103ef578063b5368e201461041f578063c1a92c2814610451578063e9e4739314610481578063fa8369521461049f5761012c565b80638537b375146102ff57806386332ccf1461032f5780639fa994121461035f578063a2e421a01461038f578063a7080059146103bf5761012c565b80635a8df873116100f45780635a8df8731461020f5780635e6c1fdf1461023f57806365ad4ca61461026f5780636659cbc31461029f5780636f77926b146102cf5761012c565b80630ae5e739146101315780630e7aa5e51461016157806320bacfbd146101915780632f04e064146101c15780632f287fd2146101f1575b600080fd5b61014b600480360361014691908101906129b5565b6104cf565b604051610158919061320c565b60405180910390f35b61017b600480360361017691908101906129b5565b610611565b604051610188919061320c565b60405180910390f35b6101ab60048036036101a69190810190612b54565b6107e7565b6040516101b8919061320c565b60405180910390f35b6101db60048036036101d691908101906129b5565b61099d565b6040516101e89190613227565b60405180910390f35b6101f9610a81565b60405161020691906131a6565b60405180910390f35b610229600480360361022491908101906129b5565b610be0565b60405161023691906131ea565b60405180910390f35b61025960048036036102549190810190612a6e565b610eac565b604051610266919061320c565b60405180910390f35b61028960048036036102849190810190612a1a565b611086565b604051610296919061320c565b60405180910390f35b6102b960048036036102b491908101906129b5565b611197565b6040516102c69190613227565b60405180910390f35b6102e960048036036102e491908101906129b5565b61127b565b6040516102f69190613227565b60405180910390f35b61031960048036036103149190810190612b54565b61135c565b604051610326919061320c565b60405180910390f35b61034960048036036103449190810190612a1a565b611530565b6040516103569190613295565b60405180910390f35b61037960048036036103749190810190612b54565b61170d565b604051610386919061320c565b60405180910390f35b6103a960048036036103a49190810190612b95565b6118c3565b6040516103b69190613227565b60405180910390f35b6103d960048036036103d49190810190612aed565b611aa4565b6040516103e6919061320c565b60405180910390f35b610409600480360361040491908101906129de565b611c51565b604051610416919061320c565b60405180910390f35b610439600480360361043491908101906129b5565b611d9d565b60405161044893929190613249565b60405180910390f35b61046b600480360361046691908101906129b5565b6120cb565b604051610478919061320c565b60405180910390f35b61048961236c565b60405161049691906131c8565b60405180910390f35b6104b960048036036104b49190810190612b54565b61259e565b6040516104c6919061320c565b60405180910390f35b60006040516020016104e090613120565b60405160208183030381529060405280519060200120600160003373ffffffffffffffffffffffffffffffffffffffff1673ffffffffffffffffffffffffffffffffffffffff16815260200190815260200160002060405160200161054591906130df565b604051602081830303815290604052805190602001201461056557600080fd5b600360003373ffffffffffffffffffffffffffffffffffffffff1673ffffffffffffffffffffffffffffffffffffffff1681526020019081526020016000208290806001815401808255809150509060018203906000526020600020016000909192909190916101000a81548173ffffffffffffffffffffffffffffffffffffffff021916908373ffffffffffffffffffffffffffffffffffffffff1602179055505060019050919050565b600060405160200161062290613120565b60405160208183030381529060405280519060200120600160003373ffffffffffffffffffffffffffffffffffffffff1673ffffffffffffffffffffffffffffffffffffffff16815260200190815260200160002060405160200161068791906130df565b60405160208183030381529060405280519060200120146106a757600080fd5b6040516020016106b6906130f6565b60405160208183030381529060405280519060200120600160008473ffffffffffffffffffffffffffffffffffffffff1673ffffffffffffffffffffffffffffffffffffffff16815260200190815260200160002060405160200161071b91906130df565b604051602081830303815290604052805190602001201461073b57600080fd5b600a60008373ffffffffffffffffffffffffffffffffffffffff1673ffffffffffffffffffffffffffffffffffffffff1681526020019081526020016000203390806001815401808255809150509060018203906000526020600020016000909192909190916101000a81548173ffffffffffffffffffffffffffffffffffffffff021916908373ffffffffffffffffffffffffffffffffffffffff1602179055505060019050919050565b60006040516020016107f89061310b565b60405160208183030381529060405280519060200120600160003373ffffffffffffffffffffffffffffffffffffffff1673ffffffffffffffffffffffffffffffffffffffff16815260200190815260200160002060405160200161085d91906130df565b604051602081830303815290604052805190602001201461087d57600080fd5b6040518060400160405280600681526020017f646f63746f720000000000000000000000000000000000000000000000000000815250600160003373ffffffffffffffffffffffffffffffffffffffff1673ffffffffffffffffffffffffffffffffffffffff1681526020019081526020016000209080519060200190610905929190612791565b5081600460003373ffffffffffffffffffffffffffffffffffffffff1673ffffffffffffffffffffffffffffffffffffffff168152602001908152602001600020600001908051906020019061095c929190612791565b507f69908b2e63170aa89ef89719bbe3b4c92cccc38653968ab25f4464eff7c28ac83360405161098c919061318b565b60405180910390a160019050919050565b6060600460008373ffffffffffffffffffffffffffffffffffffffff1673ffffffffffffffffffffffffffffffffffffffff1681526020019081526020016000206000018054600181600116156101000203166002900480601f016020809104026020016040519081016040528092919081815260200182805460018160011615610100020316600290048015610a755780601f10610a4a57610100808354040283529160200191610a75565b820191906000526020600020905b815481529060010190602001808311610a5857829003601f168201915b50505050509050919050565b6060604051602001610a92906130f6565b60405160208183030381529060405280519060200120600160003373ffffffffffffffffffffffffffffffffffffffff1673ffffffffffffffffffffffffffffffffffffffff168152602001908152602001600020604051602001610af791906130df565b6040516020818303038152906040528051906020012014610b1757600080fd5b600a60003373ffffffffffffffffffffffffffffffffffffffff1673ffffffffffffffffffffffffffffffffffffffff168152602001908152602001600020805480602002602001604051908101604052809291908181526020018280548015610bd657602002820191906000526020600020905b8160009054906101000a900473ffffffffffffffffffffffffffffffffffffffff1673ffffffffffffffffffffffffffffffffffffffff1681526020019060010190808311610b8c575b5050505050905090565b6060604051602001610bf190613135565b60405160208183030381529060405280519060200120600160003373ffffffffffffffffffffffffffffffffffffffff1673ffffffffffffffffffffffffffffffffffffffff168152602001908152602001600020604051602001610c5691906130df565b6040516020818303038152906040528051906020012014610c7657600080fd5b600860008373ffffffffffffffffffffffffffffffffffffffff1673ffffffffffffffffffffffffffffffffffffffff168152602001908152602001600020805480602002602001604051908101604052809291908181526020016000905b82821015610ea157838290600052602060002090600302016040518060600160405290816000820160009054906101000a900473ffffffffffffffffffffffffffffffffffffffff1673ffffffffffffffffffffffffffffffffffffffff1673ffffffffffffffffffffffffffffffffffffffff168152602001600182018054600181600116156101000203166002900480601f016020809104026020016040519081016040528092919081815260200182805460018160011615610100020316600290048015610de75780601f10610dbc57610100808354040283529160200191610de7565b820191906000526020600020905b815481529060010190602001808311610dca57829003601f168201915b50505050508152602001600282018054600181600116156101000203166002900480601f016020809104026020016040519081016040528092919081815260200182805460018160011615610100020316600290048015610e895780601f10610e5e57610100808354040283529160200191610e89565b820191906000526020600020905b815481529060010190602001808311610e6c57829003601f168201915b50505050508152505081526020019060010190610cd5565b505050509050919050565b6000604051602001610ebd9061314a565b60405160208183030381529060405280519060200120600160003373ffffffffffffffffffffffffffffffffffffffff1673ffffffffffffffffffffffffffffffffffffffff168152602001908152602001600020604051602001610f2291906130df565b6040516020818303038152906040528051906020012014610f4257600080fd5b60011515610f508533611c51565b151514610f5c57600080fd5b600860008573ffffffffffffffffffffffffffffffffffffffff1673ffffffffffffffffffffffffffffffffffffffff16815260200190815260200160002060405180606001604052808673ffffffffffffffffffffffffffffffffffffffff168152602001858152602001848152509080600181540180825580915050906001820390600052602060002090600302016000909192909190915060008201518160000160006101000a81548173ffffffffffffffffffffffffffffffffffffffff021916908373ffffffffffffffffffffffffffffffffffffffff160217905550602082015181600101908051906020019061105a929190612811565b506040820151816002019080519060200190611077929190612811565b50505050600190509392505050565b60006040516020016110979061314a565b60405160208183030381529060405280519060200120600160003373ffffffffffffffffffffffffffffffffffffffff1673ffffffffffffffffffffffffffffffffffffffff1681526020019081526020016000206040516020016110fc91906130df565b604051602081830303815290604052805190602001201461111c57600080fd5b6001151561112a8433611c51565b15151461113657600080fd5b81600260008573ffffffffffffffffffffffffffffffffffffffff1673ffffffffffffffffffffffffffffffffffffffff168152602001908152602001600020600201908051906020019061118c929190612791565b506001905092915050565b6060600560008373ffffffffffffffffffffffffffffffffffffffff1673ffffffffffffffffffffffffffffffffffffffff1681526020019081526020016000206000018054600181600116156101000203166002900480601f01602080910402602001604051908101604052809291908181526020018280546001816001161561010002031660029004801561126f5780601f106112445761010080835404028352916020019161126f565b820191906000526020600020905b81548152906001019060200180831161125257829003601f168201915b50505050509050919050565b6060600160008373ffffffffffffffffffffffffffffffffffffffff1673ffffffffffffffffffffffffffffffffffffffff1681526020019081526020016000208054600181600116156101000203166002900480601f0160208091040260200160405190810160405280929190818152602001828054600181600116156101000203166002900480156113505780601f1061132557610100808354040283529160200191611350565b820191906000526020600020905b81548152906001019060200180831161133357829003601f168201915b50505050509050919050565b600060405160200161136d9061310b565b60405160208183030381529060405280519060200120600160003373ffffffffffffffffffffffffffffffffffffffff1673ffffffffffffffffffffffffffffffffffffffff1681526020019081526020016000206040516020016113d291906130df565b60405160208183030381529060405280519060200120146113f257600080fd5b6113fa612891565b8281600001819052506040518060400160405280600781526020017f70617469656e7400000000000000000000000000000000000000000000000000815250600160003373ffffffffffffffffffffffffffffffffffffffff1673ffffffffffffffffffffffffffffffffffffffff168152602001908152602001600020908051906020019061148b929190612791565b5080600260003373ffffffffffffffffffffffffffffffffffffffff1673ffffffffffffffffffffffffffffffffffffffff16815260200190815260200160002060008201518160000190805190602001906114e8929190612811565b5060208201518160010190805190602001906115059291906128b2565b506040820151816002019080519060200190611522929190612811565b509050506001915050919050565b60006040516020016115419061314a565b60405160208183030381529060405280519060200120600160003373ffffffffffffffffffffffffffffffffffffffff1673ffffffffffffffffffffffffffffffffffffffff1681526020019081526020016000206040516020016115a691906130df565b60405160208183030381529060405280519060200120146115c657600080fd5b600115156115d48433611c51565b1515146115e057600080fd5b60006115ea612754565b90506115f46128ff565b838160000181905250600260008673ffffffffffffffffffffffffffffffffffffffff1673ffffffffffffffffffffffffffffffffffffffff16815260200190815260200160002060010182908060018154018082558091505090600182039060005260206000200160009091929091909150555080600760008481526020019081526020016000206000820151816000019080519060200190611699929190612811565b509050508473ffffffffffffffffffffffffffffffffffffffff163373ffffffffffffffffffffffffffffffffffffffff167fb100fd3e4cab57d0dd8d6f2139052978f6fbd675908475500a05f57c2fd3fd32846040516116fa9190613295565b60405180910390a3819250505092915050565b600060405160200161171e9061310b565b60405160208183030381529060405280519060200120600160003373ffffffffffffffffffffffffffffffffffffffff1673ffffffffffffffffffffffffffffffffffffffff16815260200190815260200160002060405160200161178391906130df565b60405160208183030381529060405280519060200120146117a357600080fd5b6040518060400160405280600a81526020017f496e73617572616e636500000000000000000000000000000000000000000000815250600160003373ffffffffffffffffffffffffffffffffffffffff1673ffffffffffffffffffffffffffffffffffffffff168152602001908152602001600020908051906020019061182b929190612791565b5081600560003373ffffffffffffffffffffffffffffffffffffffff1673ffffffffffffffffffffffffffffffffffffffff1681526020019081526020016000206000019080519060200190611882929190612791565b507fceecea79e4e48c1f16ba1294443d282cd050a264663c4a0d10156221c9fd88a1336040516118b2919061318b565b60405180910390a160019050919050565b60606040516020016118d49061314a565b60405160208183030381529060405280519060200120600160003373ffffffffffffffffffffffffffffffffffffffff1673ffffffffffffffffffffffffffffffffffffffff16815260200190815260200160002060405160200161193991906130df565b60405160208183030381529060405280519060200120141561195a57600080fd5b60405160200161196990613120565b60405160208183030381529060405280519060200120600160003373ffffffffffffffffffffffffffffffffffffffff1673ffffffffffffffffffffffffffffffffffffffff1681526020019081526020016000206040516020016119ce91906130df565b60405160208183030381529060405280519060200120146119ee57600080fd5b600760008381526020019081526020016000206000018054600181600116156101000203166002900480601f016020809104026020016040519081016040528092919081815260200182805460018160011615610100020316600290048015611a985780601f10611a6d57610100808354040283529160200191611a98565b820191906000526020600020905b815481529060010190602001808311611a7b57829003601f168201915b50505050509050919050565b6000604051602001611ab590613135565b60405160208183030381529060405280519060200120600160003373ffffffffffffffffffffffffffffffffffffffff1673ffffffffffffffffffffffffffffffffffffffff168152602001908152602001600020604051602001611b1a91906130df565b6040516020818303038152906040528051906020012014611b3a57600080fd5b600960008573ffffffffffffffffffffffffffffffffffffffff1673ffffffffffffffffffffffffffffffffffffffff16815260200190815260200160002060405180606001604052803373ffffffffffffffffffffffffffffffffffffffff168152602001858152602001848152509080600181540180825580915050906001820390600052602060002090600302016000909192909190915060008201518160000160006101000a81548173ffffffffffffffffffffffffffffffffffffffff021916908373ffffffffffffffffffffffffffffffffffffffff1602179055506020820151816001019080519060200190611c38929190612811565b5060408201518160020155505050600190509392505050565b60006060600360008573ffffffffffffffffffffffffffffffffffffffff1673ffffffffffffffffffffffffffffffffffffffff168152602001908152602001600020805480602002602001604051908101604052809291908181526020018280548015611d1457602002820191906000526020600020905b8160009054906101000a900473ffffffffffffffffffffffffffffffffffffffff1673ffffffffffffffffffffffffffffffffffffffff1681526020019060010190808311611cca575b5050505050905060008151905060008090505b81811015611d8f578473ffffffffffffffffffffffffffffffffffffffff16838281518110611d5257fe5b602002602001015173ffffffffffffffffffffffffffffffffffffffff161415611d825760019350505050611d97565b8080600101915050611d27565b506000925050505b92915050565b60608060608373ffffffffffffffffffffffffffffffffffffffff163373ffffffffffffffffffffffffffffffffffffffff1614611dda57600080fd5b604051602001611de990613120565b60405160208183030381529060405280519060200120600160003373ffffffffffffffffffffffffffffffffffffffff1673ffffffffffffffffffffffffffffffffffffffff168152602001908152602001600020604051602001611e4e91906130df565b6040516020818303038152906040528051906020012014611e6e57600080fd5b600260003373ffffffffffffffffffffffffffffffffffffffff1673ffffffffffffffffffffffffffffffffffffffff168152602001908152602001600020600001600260003373ffffffffffffffffffffffffffffffffffffffff1673ffffffffffffffffffffffffffffffffffffffff168152602001908152602001600020600101600260003373ffffffffffffffffffffffffffffffffffffffff1673ffffffffffffffffffffffffffffffffffffffff168152602001908152602001600020600201828054600181600116156101000203166002900480601f016020809104026020016040519081016040528092919081815260200182805460018160011615610100020316600290048015611fc95780601f10611f9e57610100808354040283529160200191611fc9565b820191906000526020600020905b815481529060010190602001808311611fac57829003601f168201915b505050505092508180548060200260200160405190810160405280929190818152602001828054801561201b57602002820191906000526020600020905b815481526020019060010190808311612007575b50505050509150808054600181600116156101000203166002900480601f0160208091040260200160405190810160405280929190818152602001828054600181600116156101000203166002900480156120b75780601f1061208c576101008083540402835291602001916120b7565b820191906000526020600020905b81548152906001019060200180831161209a57829003601f168201915b505050505090509250925092509193909250565b60006040516020016120dc906130f6565b60405160208183030381529060405280519060200120600160003373ffffffffffffffffffffffffffffffffffffffff1673ffffffffffffffffffffffffffffffffffffffff16815260200190815260200160002060405160200161214191906130df565b604051602081830303815290604052805190602001201461216157600080fd5b6060600a60003373ffffffffffffffffffffffffffffffffffffffff1673ffffffffffffffffffffffffffffffffffffffff16815260200190815260200160002080548060200260200160405190810160405280929190818152602001828054801561222257602002820191906000526020600020905b8160009054906101000a900473ffffffffffffffffffffffffffffffffffffffff1673ffffffffffffffffffffffffffffffffffffffff16815260200190600101908083116121d8575b5050505050905060008151905060007fffffffffffffffffffffffffffffffffffffffffffffffffffffffffffffff86905060008090505b828110156122ba578573ffffffffffffffffffffffffffffffffffffffff1684828151811061228557fe5b602002602001015173ffffffffffffffffffffffffffffffffffffffff1614156122ad578091505b808060010191505061225a565b507fffffffffffffffffffffffffffffffffffffffffffffffffffffffffffffff868114612360576000819050600a60003373ffffffffffffffffffffffffffffffffffffffff1673ffffffffffffffffffffffffffffffffffffffff168152602001908152602001600020818154811061233157fe5b9060005260206000200160006101000a81549073ffffffffffffffffffffffffffffffffffffffff0219169055505b60019350505050919050565b606060405160200161237d90613120565b60405160208183030381529060405280519060200120600160003373ffffffffffffffffffffffffffffffffffffffff1673ffffffffffffffffffffffffffffffffffffffff1681526020019081526020016000206040516020016123e291906130df565b604051602081830303815290604052805190602001201461240257600080fd5b600960003373ffffffffffffffffffffffffffffffffffffffff1673ffffffffffffffffffffffffffffffffffffffff168152602001908152602001600020805480602002602001604051908101604052809291908181526020016000905b8282101561259557838290600052602060002090600302016040518060600160405290816000820160009054906101000a900473ffffffffffffffffffffffffffffffffffffffff1673ffffffffffffffffffffffffffffffffffffffff1673ffffffffffffffffffffffffffffffffffffffff168152602001600182018054600181600116156101000203166002900480601f0160208091040260200160405190810160405280929190818152602001828054600181600116156101000203166002900480156125735780601f1061254857610100808354040283529160200191612573565b820191906000526020600020905b81548152906001019060200180831161255657829003601f168201915b5050505050815260200160028201548152505081526020019060010190612461565b50505050905090565b60006040516020016125af9061310b565b60405160208183030381529060405280519060200120600160003373ffffffffffffffffffffffffffffffffffffffff1673ffffffffffffffffffffffffffffffffffffffff16815260200190815260200160002060405160200161261491906130df565b604051602081830303815290604052805190602001201461263457600080fd5b6040518060400160405280600781526020017f4368656d69737400000000000000000000000000000000000000000000000000815250600160003373ffffffffffffffffffffffffffffffffffffffff1673ffffffffffffffffffffffffffffffffffffffff16815260200190815260200160002090805190602001906126bc929190612791565b5081600660003373ffffffffffffffffffffffffffffffffffffffff1673ffffffffffffffffffffffffffffffffffffffff1681526020019081526020016000206000019080519060200190612713929190612791565b507fecc3bdfcb393e93b309b9a8b9a0b2a27316c7a94eacc7c3b1a1735528af9507c33604051612743919061318b565b60405180910390a160019050919050565b600060fb424460405160200161276b92919061315f565b6040516020818303038152906040528051906020012060001c8161278b57fe5b06905090565b828054600181600116156101000203166002900490600052602060002090601f016020900481019282601f106127d257805160ff1916838001178555612800565b82800160010185558215612800579182015b828111156127ff5782518255916020019190600101906127e4565b5b50905061280d9190612912565b5090565b828054600181600116156101000203166002900490600052602060002090601f016020900481019282601f1061285257805160ff1916838001178555612880565b82800160010185558215612880579182015b8281111561287f578251825591602001919060010190612864565b5b50905061288d9190612912565b5090565b60405180606001604052806060815260200160608152602001606081525090565b8280548282559060005260206000209081019282156128ee579160200282015b828111156128ed5782518255916020019190600101906128d2565b5b5090506128fb9190612912565b5090565b6040518060200160405280606081525090565b61293491905b80821115612930576000816000905550600101612918565b5090565b90565b60008135905061294681613520565b92915050565b600082601f83011261295d57600080fd5b813561297061296b826132dd565b6132b0565b9150808252602083016020830185838301111561298c57600080fd5b6129978382846134c3565b50505092915050565b6000813590506129af81613537565b92915050565b6000602082840312156129c757600080fd5b60006129d584828501612937565b91505092915050565b600080604083850312156129f157600080fd5b60006129ff85828601612937565b9250506020612a1085828601612937565b9150509250929050565b60008060408385031215612a2d57600080fd5b6000612a3b85828601612937565b925050602083013567ffffffffffffffff811115612a5857600080fd5b612a648582860161294c565b9150509250929050565b600080600060608486031215612a8357600080fd5b6000612a9186828701612937565b935050602084013567ffffffffffffffff811115612aae57600080fd5b612aba8682870161294c565b925050604084013567ffffffffffffffff811115612ad757600080fd5b612ae38682870161294c565b9150509250925092565b600080600060608486031215612b0257600080fd5b6000612b1086828701612937565b935050602084013567ffffffffffffffff811115612b2d57600080fd5b612b398682870161294c565b9250506040612b4a868287016129a0565b9150509250925092565b600060208284031215612b6657600080fd5b600082013567ffffffffffffffff811115612b8057600080fd5b612b8c8482850161294c565b91505092915050565b600060208284031215612ba757600080fd5b6000612bb5848285016129a0565b91505092915050565b6000612bca8383612c25565b60208301905092915050565b6000612be28383613003565b905092915050565b6000612bf68383613053565b905092915050565b6000612c0a83836130aa565b60208301905092915050565b612c1f8161348d565b82525050565b612c2e81613445565b82525050565b6000612c3f8261335e565b612c4981856133d4565b9350612c5483613309565b8060005b83811015612c85578151612c6c8882612bbe565b9750612c77836133a0565b925050600181019050612c58565b5085935050505092915050565b6000612c9d82613369565b612ca781856133e5565b935083602082028501612cb985613319565b8060005b85811015612cf55784840389528151612cd68582612bd6565b9450612ce1836133ad565b925060208a01995050600181019050612cbd565b50829750879550505050505092915050565b6000612d1282613374565b612d1c81856133f6565b935083602082028501612d2e85613329565b8060005b85811015612d6a5784840389528151612d4b8582612bea565b9450612d56836133ba565b925060208a01995050600181019050612d32565b50829750879550505050505092915050565b6000612d878261337f565b612d918185613407565b9350612d9c83613339565b8060005b83811015612dcd578151612db48882612bfe565b9750612dbf836133c7565b925050600181019050612da0565b5085935050505092915050565b612de381613457565b82525050565b6000612df482613395565b612dfe8185613429565b9350612e0e8185602086016134d2565b612e178161350f565b840191505092915050565b6000612e2d8261338a565b612e378185613418565b9350612e478185602086016134d2565b612e508161350f565b840191505092915050565b600081546001811660008114612e785760018114612e9d57612ee1565b607f6002830416612e89818761343a565b955060ff1983168652808601935050612ee1565b60028204612eab818761343a565b9550612eb685613349565b60005b82811015612ed857815481890152600182019150602081019050612eb9565b82880195505050505b505092915050565b6000612ef6600a8361343a565b91507f496e73617572616e6365000000000000000000000000000000000000000000006000830152600a82019050919050565b6000612f3660008361343a565b9150600082019050919050565b6000612f5060078361343a565b91507f70617469656e74000000000000000000000000000000000000000000000000006000830152600782019050919050565b6000612f9060078361343a565b91507f4368656d697374000000000000000000000000000000000000000000000000006000830152600782019050919050565b6000612fd060068361343a565b91507f646f63746f7200000000000000000000000000000000000000000000000000006000830152600682019050919050565b600060608301600083015161301b6000860182612c25565b50602083015184820360208601526130338282612e22565b915050604083015161304860408601826130aa565b508091505092915050565b600060608301600083015161306b6000860182612c25565b50602083015184820360208601526130838282612e22565b9150506040830151848203604086015261309d8282612e22565b9150508091505092915050565b6130b381613483565b82525050565b6130c281613483565b82525050565b6130d96130d482613483565b613505565b82525050565b60006130eb8284612e5b565b915081905092915050565b600061310182612ee9565b9150819050919050565b600061311682612f29565b9150819050919050565b600061312b82612f43565b9150819050919050565b600061314082612f83565b9150819050919050565b600061315582612fc3565b9150819050919050565b600061316b82856130c8565b60208201915061317b82846130c8565b6020820191508190509392505050565b60006020820190506131a06000830184612c16565b92915050565b600060208201905081810360008301526131c08184612c34565b905092915050565b600060208201905081810360008301526131e28184612c92565b905092915050565b600060208201905081810360008301526132048184612d07565b905092915050565b60006020820190506132216000830184612dda565b92915050565b600060208201905081810360008301526132418184612de9565b905092915050565b600060608201905081810360008301526132638186612de9565b905081810360208301526132778185612d7c565b9050818103604083015261328b8184612de9565b9050949350505050565b60006020820190506132aa60008301846130b9565b92915050565b6000604051905081810181811067ffffffffffffffff821117156132d357600080fd5b8060405250919050565b600067ffffffffffffffff8211156132f457600080fd5b601f19601f8301169050602081019050919050565b6000819050602082019050919050565b6000819050602082019050919050565b6000819050602082019050919050565b6000819050602082019050919050565b60008190508160005260206000209050919050565b600081519050919050565b600081519050919050565b600081519050919050565b600081519050919050565b600081519050919050565b600081519050919050565b6000602082019050919050565b6000602082019050919050565b6000602082019050919050565b6000602082019050919050565b600082825260208201905092915050565b600082825260208201905092915050565b600082825260208201905092915050565b600082825260208201905092915050565b600082825260208201905092915050565b600082825260208201905092915050565b600081905092915050565b600061345082613463565b9050919050565b60008115159050919050565b600073ffffffffffffffffffffffffffffffffffffffff82169050919050565b6000819050919050565b60006134988261349f565b9050919050565b60006134aa826134b1565b9050919050565b60006134bc82613463565b9050919050565b82818337600083830152505050565b60005b838110156134f05780820151818401526020810190506134d5565b838111156134ff576000848401525b50505050565b6000819050919050565b6000601f19601f8301169050919050565b61352981613445565b811461353457600080fd5b50565b61354081613483565b811461354b57600080fd5b5056fea365627a7a72315820ff8af9633deb6147de3b65fba8d3c112589b13da6109b17c33bdeb8e9dbd53286c6578706572696d656e74616cf564736f6c63430005100040",
  "source": "// SPDX-License-Identifier: GPL-3.0\r\n\r\npragma solidity >=0.5.16;\r\npragma experimental ABIEncoderV2;\r\ncontract Health {\r\n    //mappings\r\n    mapping(address => uint) authCaller;\r\n    mapping(address => string) userType;\r\n    mapping(address => patient) PData;\r\n    mapping(address=> address[]) patToDoctor;\r\n    mapping(address => doctor) DData;\r\n    mapping(address => insaurance) IData;\r\n    mapping(address => chemist) CData;\r\n    mapping(uint => treatment) treatmentDetails;\r\n    mapping(address => medicine[]) PatToMed;\r\n    mapping(address => bill[]) patToChemistBill;\r\n    mapping(address => address[]) insToPat;\r\n    //constructor\r\n    constructor() public{\r\n        authCaller[msg.sender] = 1;\r\n    }\r\n    \r\n    \r\n    //events\r\n     event DoctorAdded(address doctorAdd);\r\n     event ChemistAdded(address ChemistAdd);\r\n     event insAdded(address insAdd);\r\n     event treated(address indexed Did,address indexed Pid,uint tid);\r\n    //structs\r\n    struct bill{\r\n        address chemid;\r\n        string date;\r\n        uint amt;\r\n    }\r\n     struct patient{\r\n        string Phash; \r\n        uint [] treatmentId;\r\n        string precautions;\r\n\r\n    }\r\n    struct doctor{\r\n        string Dhash;\r\n    }\r\n    struct chemist{\r\n        string Chash;\r\n    }\r\n    struct insaurance{\r\n        string Ihash;\r\n    }\r\n     struct treatment {\r\n        string Thash;\r\n    }\r\n    struct medicine{\r\n        address pid;\r\n        string medicines;\r\n        string date;\r\n    }\r\n    //struct variable\r\n   \r\n    \r\n    //patient functions\r\n    \r\n    //make function to show all chemist bills\r\n    \r\n    function addPat(string memory _Phash) public returns(bool){\r\n        require(keccak256(abi.encodePacked(userType[msg.sender])) == keccak256(abi.encodePacked(\"\")));\r\n        patient memory pat;\r\n        pat.Phash = _Phash;\r\n        userType[msg.sender] = 'patient';\r\n        PData[msg.sender] = pat;\r\n        return true;\r\n    }\r\n    function getbills() public returns(bill[] memory){\r\n        require(keccak256(abi.encodePacked(userType[msg.sender])) == keccak256(abi.encodePacked(\"patient\")));\r\n        return patToChemistBill[msg.sender];\r\n    }\r\n    //return patient treatmentId and precautions as well\r\n    function getPatient(address _Padd) public returns(string memory,uint[] memory,string memory){\r\n        require(msg.sender == _Padd);\r\n        require(keccak256(abi.encodePacked(userType[msg.sender])) == keccak256(abi.encodePacked(\"patient\")));\r\n        \r\n        return (PData[msg.sender].Phash,PData[msg.sender].treatmentId,PData[msg.sender].precautions);\r\n    }\r\n    \r\n    function getDoctor(address _Dadd) public returns(string memory){\r\n        //need to complete\r\n         return DData[_Dadd].Dhash; \r\n    }\r\n    function getIns(address _Iadd) public returns(string memory){\r\n        //need to complete\r\n         return IData[_Iadd].Ihash; \r\n    }\r\n    \r\n    function grantAccess(address _Dadd) public returns(bool){\r\n        require(keccak256(abi.encodePacked(userType[msg.sender])) == keccak256(abi.encodePacked(\"patient\")));\r\n        patToDoctor[msg.sender].push(_Dadd);\r\n        return true;\r\n    }\r\n    //check give address is insaurance company is or not\r\n    function applyIns(address _Iadd) public returns(bool){\r\n         require(keccak256(abi.encodePacked(userType[msg.sender])) == keccak256(abi.encodePacked(\"patient\")));\r\n         require(keccak256(abi.encodePacked(userType[_Iadd])) == keccak256(abi.encodePacked(\"Insaurance\")));\r\n         insToPat[_Iadd].push(msg.sender);\r\n         return true;\r\n            \r\n    }\r\n     function isValid(address pat,address doctor) public returns(bool){\r\n        address[] memory temp = patToDoctor[pat];\r\n        uint len = temp.length;\r\n        for(uint i = 0;i<len;i++){\r\n            if(temp[i] == doctor)\r\n                return true;\r\n        }\r\n        return false;\r\n    }\r\n    \r\n    //getUser\r\n    function getUser(address _Uaddress) public returns(string memory){\r\n        return userType[_Uaddress];\r\n    }\r\n    \r\n    //Doctor \r\n    \r\n     function addDoc(string memory _Dhash) public returns(bool){\r\n        require(keccak256(abi.encodePacked(userType[msg.sender])) == keccak256(abi.encodePacked(\"\")));\r\n        userType[msg.sender] = 'doctor';\r\n        DData[msg.sender].Dhash = _Dhash;\r\n        emit DoctorAdded(msg.sender);\r\n        return true;\r\n    }\r\n    \r\n    function updatePrecautions(address _Padd,string memory _precautions) public returns(bool){\r\n        require(keccak256(abi.encodePacked(userType[msg.sender])) == keccak256(abi.encodePacked(\"doctor\")));\r\n        require(isValid(_Padd,msg.sender) == true);\r\n        PData[_Padd].precautions = _precautions;\r\n        return true;\r\n        \r\n    }\r\n   function random() private view returns (uint) {\r\n       return uint(uint256(keccak256(abi.encodePacked(block.timestamp, block.difficulty)))%251);\r\n   }\r\n    function treatPatient(address _Padd, string memory _Thash)\r\n    public returns(uint){\r\n        require(keccak256(abi.encodePacked(userType[msg.sender])) == keccak256(abi.encodePacked(\"doctor\")));\r\n        require(isValid(_Padd,msg.sender) == true);\r\n        uint _tid = random();\r\n        treatment memory trt;\r\n        trt.Thash = _Thash;\r\n        PData[_Padd].treatmentId.push(_tid);\r\n        treatmentDetails[_tid] = trt;\r\n        emit treated(msg.sender,_Padd,_tid);\r\n        return _tid;\r\n    }\r\n    //check if chemist is present   \r\n    function giveMedicines(address _pid,string memory _medicines,string memory _date) public returns(bool){\r\n        require(keccak256(abi.encodePacked(userType[msg.sender])) == keccak256(abi.encodePacked(\"doctor\")));\r\n        require(isValid(_pid,msg.sender) == true);\r\n        PatToMed[_pid].push(medicine(_pid,_medicines,_date));\r\n        return true;\r\n    }\r\n    function getTrtDetails(uint _tid) public returns(string memory){\r\n         require(keccak256(abi.encodePacked(userType[msg.sender])) != keccak256(abi.encodePacked(\"doctor\")));\r\n         require(keccak256(abi.encodePacked(userType[msg.sender])) == keccak256(abi.encodePacked(\"patient\")));\r\n         return treatmentDetails[_tid].Thash;\r\n    }\r\n    \r\n    //chemist\r\n    \r\n    function addChemist(string memory Chash) public returns(bool){\r\n      require(keccak256(abi.encodePacked(userType[msg.sender])) == keccak256(abi.encodePacked(\"\")));\r\n      userType[msg.sender] = 'Chemist';\r\n        CData[msg.sender].Chash = Chash;\r\n        emit ChemistAdded(msg.sender);\r\n        return true;\r\n    }\r\n    function getMedicineDetails(address _pid) public returns(medicine[] memory){\r\n        require(keccak256(abi.encodePacked(userType[msg.sender])) == keccak256(abi.encodePacked(\"Chemist\")));\r\n        return PatToMed[_pid];\r\n    }\r\n    function sellMedicines(address _pid,string memory _date,uint _amt) public returns(bool){\r\n        require(keccak256(abi.encodePacked(userType[msg.sender])) == keccak256(abi.encodePacked(\"Chemist\")));\r\n        \r\n        patToChemistBill[_pid].push(bill(msg.sender,_date,_amt));\r\n        return true;\r\n    }\r\n    \r\n   //insaurance\r\n   \r\n   function addInsCompany(string memory Ihash) public returns(bool){\r\n       require(keccak256(abi.encodePacked(userType[msg.sender])) == keccak256(abi.encodePacked(\"\")));\r\n        userType[msg.sender] = 'Insaurance';\r\n        IData[msg.sender].Ihash = Ihash;\r\n        emit insAdded(msg.sender);\r\n        return true;\r\n   }\r\n   function getAppliedForIns() public returns(address[] memory){\r\n       require(keccak256(abi.encodePacked(userType[msg.sender])) == keccak256(abi.encodePacked(\"Insaurance\")));\r\n       return(insToPat[msg.sender]);\r\n\r\n   }\r\n    function approveInsurance(address patId) public returns(bool){\r\n        require(keccak256(abi.encodePacked(userType[msg.sender])) == keccak256(abi.encodePacked(\"Insaurance\")));\r\n        address[] memory arr = insToPat[msg.sender];\r\n        uint len = arr.length;\r\n        int j = -122;\r\n        for(uint i = 0 ; i < len ; i++ ){\r\n            if(arr[i] == patId){\r\n             j=int (i);   \r\n            }\r\n        }\r\n        if(j != -122){\r\n            uint i = uint (j);\r\n            delete insToPat[msg.sender][i];\r\n        }\r\n        return true;\r\n    }\r\n    \r\n}",
  "sourcePath": "E:\\react\\HealthCare\\Backend\\contracts\\Health.sol",
  "compiler": {
    "name": "solc",
    "version": "0.5.16+commit.9c3226ce.Emscripten.clang"
  },
  "schemaVersion": "3.2.0",
  "updatedAt": "2021-01-09T11:48:26.654Z",
  "networkType": "ethereum",
  "devdoc": {
    "methods": {}
  },
  "userdoc": {
    "methods": {}
  }
}