{
  "contractName": "Health",
  "abi": [
    {
      "inputs": [],
      "payable": false,
      "stateMutability": "nonpayable",
      "type": "constructor"
    },
    {
      "anonymous": false,
      "inputs": [
        {
          "indexed": false,
          "internalType": "address",
          "name": "ChemistAdd",
          "type": "address"
        }
      ],
      "name": "ChemistAdded",
      "type": "event"
    },
    {
      "anonymous": false,
      "inputs": [
        {
          "indexed": false,
          "internalType": "address",
          "name": "doctorAdd",
          "type": "address"
        }
      ],
      "name": "DoctorAdded",
      "type": "event"
    },
    {
      "anonymous": false,
      "inputs": [
        {
          "indexed": false,
          "internalType": "address",
          "name": "insAdd",
          "type": "address"
        }
      ],
      "name": "insAdded",
      "type": "event"
    },
    {
      "anonymous": false,
      "inputs": [
        {
          "indexed": true,
          "internalType": "address",
          "name": "Did",
          "type": "address"
        },
        {
          "indexed": false,
          "internalType": "uint256",
          "name": "tid",
          "type": "uint256"
        }
      ],
      "name": "treated",
      "type": "event"
    },
    {
      "constant": false,
      "inputs": [
        {
          "internalType": "string",
          "name": "_Phash",
          "type": "string"
        }
      ],
      "name": "addPat",
      "outputs": [
        {
          "internalType": "bool",
          "name": "",
          "type": "bool"
        }
      ],
      "payable": false,
      "stateMutability": "nonpayable",
      "type": "function"
    },
    {
      "constant": false,
      "inputs": [],
      "name": "getbills",
      "outputs": [
        {
          "components": [
            {
              "internalType": "address",
              "name": "chemid",
              "type": "address"
            },
            {
              "internalType": "string",
              "name": "date",
              "type": "string"
            },
            {
              "internalType": "uint256",
              "name": "amt",
              "type": "uint256"
            }
          ],
          "internalType": "struct Health.bill[]",
          "name": "",
          "type": "tuple[]"
        }
      ],
      "payable": false,
      "stateMutability": "nonpayable",
      "type": "function"
    },
    {
      "constant": false,
      "inputs": [
        {
          "internalType": "address",
          "name": "_Padd",
          "type": "address"
        }
      ],
      "name": "getPatient",
      "outputs": [
        {
          "internalType": "string",
          "name": "",
          "type": "string"
        },
        {
          "internalType": "uint256[]",
          "name": "",
          "type": "uint256[]"
        },
        {
          "internalType": "string",
          "name": "",
          "type": "string"
        }
      ],
      "payable": false,
      "stateMutability": "nonpayable",
      "type": "function"
    },
    {
      "constant": false,
      "inputs": [
        {
          "internalType": "address",
          "name": "_Dadd",
          "type": "address"
        }
      ],
      "name": "getDoctor",
      "outputs": [
        {
          "internalType": "string",
          "name": "",
          "type": "string"
        }
      ],
      "payable": false,
      "stateMutability": "nonpayable",
      "type": "function"
    },
    {
      "constant": false,
      "inputs": [
        {
          "internalType": "address",
          "name": "_Dadd",
          "type": "address"
        }
      ],
      "name": "grantAccess",
      "outputs": [
        {
          "internalType": "bool",
          "name": "",
          "type": "bool"
        }
      ],
      "payable": false,
      "stateMutability": "nonpayable",
      "type": "function"
    },
    {
      "constant": false,
      "inputs": [
        {
          "internalType": "address",
          "name": "_Iadd",
          "type": "address"
        }
      ],
      "name": "applyIns",
      "outputs": [
        {
          "internalType": "bool",
          "name": "",
          "type": "bool"
        }
      ],
      "payable": false,
      "stateMutability": "nonpayable",
      "type": "function"
    },
    {
      "constant": false,
      "inputs": [
        {
          "internalType": "address",
          "name": "pat",
          "type": "address"
        },
        {
          "internalType": "address",
          "name": "doctor",
          "type": "address"
        }
      ],
      "name": "isValid",
      "outputs": [
        {
          "internalType": "bool",
          "name": "",
          "type": "bool"
        }
      ],
      "payable": false,
      "stateMutability": "nonpayable",
      "type": "function"
    },
    {
      "constant": false,
      "inputs": [
        {
          "internalType": "address",
          "name": "_Uaddress",
          "type": "address"
        }
      ],
      "name": "getUser",
      "outputs": [
        {
          "internalType": "string",
          "name": "",
          "type": "string"
        }
      ],
      "payable": false,
      "stateMutability": "nonpayable",
      "type": "function"
    },
    {
      "constant": false,
      "inputs": [
        {
          "internalType": "string",
          "name": "_Dhash",
          "type": "string"
        }
      ],
      "name": "addDoc",
      "outputs": [
        {
          "internalType": "bool",
          "name": "",
          "type": "bool"
        }
      ],
      "payable": false,
      "stateMutability": "nonpayable",
      "type": "function"
    },
    {
      "constant": false,
      "inputs": [
        {
          "internalType": "address",
          "name": "_Padd",
          "type": "address"
        },
        {
          "internalType": "string",
          "name": "_precautions",
          "type": "string"
        }
      ],
      "name": "updatePrecautions",
      "outputs": [
        {
          "internalType": "bool",
          "name": "",
          "type": "bool"
        }
      ],
      "payable": false,
      "stateMutability": "nonpayable",
      "type": "function"
    },
    {
      "constant": false,
      "inputs": [
        {
          "internalType": "address",
          "name": "_Padd",
          "type": "address"
        },
        {
          "internalType": "string",
          "name": "_diagnosis",
          "type": "string"
        },
        {
          "internalType": "string",
          "name": "_test_conducted",
          "type": "string"
        },
        {
          "internalType": "uint256",
          "name": "_bill",
          "type": "uint256"
        },
        {
          "internalType": "string",
          "name": "_medicine",
          "type": "string"
        }
      ],
      "name": "treatPatient",
      "outputs": [
        {
          "internalType": "uint256",
          "name": "",
          "type": "uint256"
        }
      ],
      "payable": false,
      "stateMutability": "nonpayable",
      "type": "function"
    },
    {
      "constant": false,
      "inputs": [
        {
          "internalType": "address",
          "name": "_pid",
          "type": "address"
        },
        {
          "internalType": "address",
          "name": "_cadd",
          "type": "address"
        },
        {
          "internalType": "string",
          "name": "_medicines",
          "type": "string"
        }
      ],
      "name": "giveMedicines",
      "outputs": [
        {
          "internalType": "bool",
          "name": "",
          "type": "bool"
        }
      ],
      "payable": false,
      "stateMutability": "nonpayable",
      "type": "function"
    },
    {
      "constant": false,
      "inputs": [
        {
          "internalType": "uint256",
          "name": "_tid",
          "type": "uint256"
        }
      ],
      "name": "getTrtDetails",
      "outputs": [
        {
          "components": [
            {
              "internalType": "address",
              "name": "doctor_id",
              "type": "address"
            },
            {
              "internalType": "string",
              "name": "diagnosis",
              "type": "string"
            },
            {
              "internalType": "string",
              "name": "test_conducted",
              "type": "string"
            },
            {
              "internalType": "uint256",
              "name": "bill",
              "type": "uint256"
            },
            {
              "internalType": "string",
              "name": "medicine",
              "type": "string"
            }
          ],
          "internalType": "struct Health.treatment",
          "name": "trt",
          "type": "tuple"
        }
      ],
      "payable": false,
      "stateMutability": "nonpayable",
      "type": "function"
    },
    {
      "constant": false,
      "inputs": [
        {
          "internalType": "string",
          "name": "Chash",
          "type": "string"
        }
      ],
      "name": "addChemist",
      "outputs": [
        {
          "internalType": "bool",
          "name": "",
          "type": "bool"
        }
      ],
      "payable": false,
      "stateMutability": "nonpayable",
      "type": "function"
    },
    {
      "constant": false,
      "inputs": [
        {
          "internalType": "address",
          "name": "_pid",
          "type": "address"
        },
        {
          "internalType": "string",
          "name": "_date",
          "type": "string"
        },
        {
          "internalType": "uint256",
          "name": "_amt",
          "type": "uint256"
        }
      ],
      "name": "sellMedicines",
      "outputs": [
        {
          "internalType": "bool",
          "name": "",
          "type": "bool"
        }
      ],
      "payable": false,
      "stateMutability": "nonpayable",
      "type": "function"
    },
    {
      "constant": false,
      "inputs": [
        {
          "internalType": "string",
          "name": "Ihash",
          "type": "string"
        }
      ],
      "name": "addInsCompany",
      "outputs": [
        {
          "internalType": "bool",
          "name": "",
          "type": "bool"
        }
      ],
      "payable": false,
      "stateMutability": "nonpayable",
      "type": "function"
    },
    {
      "constant": false,
      "inputs": [
        {
          "internalType": "address",
          "name": "patId",
          "type": "address"
        }
      ],
      "name": "approveInsurance",
      "outputs": [
        {
          "internalType": "bool",
          "name": "",
          "type": "bool"
        }
      ],
      "payable": false,
      "stateMutability": "nonpayable",
      "type": "function"
    }
  ],
  "bytecode": "0x608060405234801561001057600080fd5b5060016000803373ffffffffffffffffffffffffffffffffffffffff1673ffffffffffffffffffffffffffffffffffffffff168152602001908152602001600020819055506131dd806100646000396000f3fe608060405234801561001057600080fd5b506004361061010b5760003560e01c80639fa99412116100a2578063b5368e2011610071578063b5368e2014610350578063c1a92c2814610382578063d8080066146103b2578063e9e47393146103e2578063fa836952146104005761010b565b80639fa9941214610290578063a2e421a0146102c0578063a7080059146102f0578063af874a76146103205761010b565b806348c94c87116100de57806348c94c87146101d057806365ad4ca6146102005780636f77926b146102305780638537b375146102605761010b565b80630ae5e739146101105780630e7aa5e51461014057806320bacfbd146101705780632f04e064146101a0575b600080fd5b61012a600480360361012591908101906126c0565b610430565b6040516101379190612ea8565b60405180910390f35b61015a600480360361015591908101906126c0565b610572565b6040516101679190612ea8565b60405180910390f35b61018a60048036036101859190810190612906565b610748565b6040516101979190612ea8565b60405180910390f35b6101ba60048036036101b591908101906126c0565b6108fe565b6040516101c79190612ec3565b60405180910390f35b6101ea60048036036101e591908101906127e0565b6109e2565b6040516101f79190612f53565b60405180910390f35b61021a6004803603610215919081019061278c565b610c8a565b6040516102279190612ea8565b60405180910390f35b61024a600480360361024591908101906126c0565b610d9b565b6040516102579190612ec3565b60405180910390f35b61027a60048036036102759190810190612906565b610e7c565b6040516102879190612ea8565b60405180910390f35b6102aa60048036036102a59190810190612906565b611050565b6040516102b79190612ea8565b60405180910390f35b6102da60048036036102d59190810190612947565b611206565b6040516102e79190612f31565b60405180910390f35b61030a6004803603610305919081019061289f565b61150d565b6040516103179190612ea8565b60405180910390f35b61033a600480360361033591908101906126e9565b6116ba565b6040516103479190612ea8565b60405180910390f35b61036a600480360361036591908101906126c0565b611806565b60405161037993929190612ee5565b60405180910390f35b61039c600480360361039791908101906126c0565b611b34565b6040516103a99190612ea8565b60405180910390f35b6103cc60048036036103c79190810190612725565b611dd5565b6040516103d99190612ea8565b60405180910390f35b6103ea612015565b6040516103f79190612e86565b60405180910390f35b61041a60048036036104159190810190612906565b612247565b6040516104279190612ea8565b60405180910390f35b600060405160200161044190612e00565b60405160208183030381529060405280519060200120600160003373ffffffffffffffffffffffffffffffffffffffff1673ffffffffffffffffffffffffffffffffffffffff1681526020019081526020016000206040516020016104a69190612dbf565b60405160208183030381529060405280519060200120146104c657600080fd5b600360003373ffffffffffffffffffffffffffffffffffffffff1673ffffffffffffffffffffffffffffffffffffffff1681526020019081526020016000208290806001815401808255809150509060018203906000526020600020016000909192909190916101000a81548173ffffffffffffffffffffffffffffffffffffffff021916908373ffffffffffffffffffffffffffffffffffffffff1602179055505060019050919050565b600060405160200161058390612e00565b60405160208183030381529060405280519060200120600160003373ffffffffffffffffffffffffffffffffffffffff1673ffffffffffffffffffffffffffffffffffffffff1681526020019081526020016000206040516020016105e89190612dbf565b604051602081830303815290604052805190602001201461060857600080fd5b60405160200161061790612dd6565b60405160208183030381529060405280519060200120600160008473ffffffffffffffffffffffffffffffffffffffff1673ffffffffffffffffffffffffffffffffffffffff16815260200190815260200160002060405160200161067c9190612dbf565b604051602081830303815290604052805190602001201461069c57600080fd5b600a60008373ffffffffffffffffffffffffffffffffffffffff1673ffffffffffffffffffffffffffffffffffffffff1681526020019081526020016000203390806001815401808255809150509060018203906000526020600020016000909192909190916101000a81548173ffffffffffffffffffffffffffffffffffffffff021916908373ffffffffffffffffffffffffffffffffffffffff1602179055505060019050919050565b600060405160200161075990612deb565b60405160208183030381529060405280519060200120600160003373ffffffffffffffffffffffffffffffffffffffff1673ffffffffffffffffffffffffffffffffffffffff1681526020019081526020016000206040516020016107be9190612dbf565b60405160208183030381529060405280519060200120146107de57600080fd5b6040518060400160405280600681526020017f646f63746f720000000000000000000000000000000000000000000000000000815250600160003373ffffffffffffffffffffffffffffffffffffffff1673ffffffffffffffffffffffffffffffffffffffff168152602001908152602001600020908051906020019061086692919061243a565b5081600460003373ffffffffffffffffffffffffffffffffffffffff1673ffffffffffffffffffffffffffffffffffffffff16815260200190815260200160002060000190805190602001906108bd92919061243a565b507f69908b2e63170aa89ef89719bbe3b4c92cccc38653968ab25f4464eff7c28ac8336040516108ed9190612e6b565b60405180910390a160019050919050565b6060600460008373ffffffffffffffffffffffffffffffffffffffff1673ffffffffffffffffffffffffffffffffffffffff1681526020019081526020016000206000018054600181600116156101000203166002900480601f0160208091040260200160405190810160405280929190818152602001828054600181600116156101000203166002900480156109d65780601f106109ab576101008083540402835291602001916109d6565b820191906000526020600020905b8154815290600101906020018083116109b957829003601f168201915b50505050509050919050565b60006040516020016109f390612e2a565b60405160208183030381529060405280519060200120600160003373ffffffffffffffffffffffffffffffffffffffff1673ffffffffffffffffffffffffffffffffffffffff168152602001908152602001600020604051602001610a589190612dbf565b6040516020818303038152906040528051906020012014610a7857600080fd5b60011515610a8687336116ba565b151514610a9257600080fd5b6000610a9c6123fd565b9050610aa66124ba565b33816000019073ffffffffffffffffffffffffffffffffffffffff16908173ffffffffffffffffffffffffffffffffffffffff168152505086816020018190525085816040018190525084816060018181525050838160800181905250806007600084815260200190815260200160002060008201518160000160006101000a81548173ffffffffffffffffffffffffffffffffffffffff021916908373ffffffffffffffffffffffffffffffffffffffff1602179055506020820151816001019080519060200190610b7a9291906124ff565b506040820151816002019080519060200190610b979291906124ff565b50606082015181600301556080820151816004019080519060200190610bbe9291906124ff565b50905050600260008973ffffffffffffffffffffffffffffffffffffffff1673ffffffffffffffffffffffffffffffffffffffff1681526020019081526020016000206001018290806001815401808255809150509060018203906000526020600020016000909192909190915055503373ffffffffffffffffffffffffffffffffffffffff167fe9867bbda50b8a7f61502084650c70c6c559abf421723ad145d35bc3dda0073d83604051610c749190612f53565b60405180910390a2819250505095945050505050565b6000604051602001610c9b90612e2a565b60405160208183030381529060405280519060200120600160003373ffffffffffffffffffffffffffffffffffffffff1673ffffffffffffffffffffffffffffffffffffffff168152602001908152602001600020604051602001610d009190612dbf565b6040516020818303038152906040528051906020012014610d2057600080fd5b60011515610d2e84336116ba565b151514610d3a57600080fd5b81600260008573ffffffffffffffffffffffffffffffffffffffff1673ffffffffffffffffffffffffffffffffffffffff1681526020019081526020016000206002019080519060200190610d9092919061243a565b506001905092915050565b6060600160008373ffffffffffffffffffffffffffffffffffffffff1673ffffffffffffffffffffffffffffffffffffffff1681526020019081526020016000208054600181600116156101000203166002900480601f016020809104026020016040519081016040528092919081815260200182805460018160011615610100020316600290048015610e705780601f10610e4557610100808354040283529160200191610e70565b820191906000526020600020905b815481529060010190602001808311610e5357829003601f168201915b50505050509050919050565b6000604051602001610e8d90612deb565b60405160208183030381529060405280519060200120600160003373ffffffffffffffffffffffffffffffffffffffff1673ffffffffffffffffffffffffffffffffffffffff168152602001908152602001600020604051602001610ef29190612dbf565b6040516020818303038152906040528051906020012014610f1257600080fd5b610f1a61257f565b8281600001819052506040518060400160405280600781526020017f70617469656e7400000000000000000000000000000000000000000000000000815250600160003373ffffffffffffffffffffffffffffffffffffffff1673ffffffffffffffffffffffffffffffffffffffff1681526020019081526020016000209080519060200190610fab92919061243a565b5080600260003373ffffffffffffffffffffffffffffffffffffffff1673ffffffffffffffffffffffffffffffffffffffff16815260200190815260200160002060008201518160000190805190602001906110089291906124ff565b5060208201518160010190805190602001906110259291906125a0565b5060408201518160020190805190602001906110429291906124ff565b509050506001915050919050565b600060405160200161106190612deb565b60405160208183030381529060405280519060200120600160003373ffffffffffffffffffffffffffffffffffffffff1673ffffffffffffffffffffffffffffffffffffffff1681526020019081526020016000206040516020016110c69190612dbf565b60405160208183030381529060405280519060200120146110e657600080fd5b6040518060400160405280600981526020017f496e737572616e63650000000000000000000000000000000000000000000000815250600160003373ffffffffffffffffffffffffffffffffffffffff1673ffffffffffffffffffffffffffffffffffffffff168152602001908152602001600020908051906020019061116e92919061243a565b5081600560003373ffffffffffffffffffffffffffffffffffffffff1673ffffffffffffffffffffffffffffffffffffffff16815260200190815260200160002060000190805190602001906111c592919061243a565b507fceecea79e4e48c1f16ba1294443d282cd050a264663c4a0d10156221c9fd88a1336040516111f59190612e6b565b60405180910390a160019050919050565b61120e6124ba565b60405160200161121d90612e2a565b60405160208183030381529060405280519060200120600160003373ffffffffffffffffffffffffffffffffffffffff1673ffffffffffffffffffffffffffffffffffffffff1681526020019081526020016000206040516020016112829190612dbf565b60405160208183030381529060405280519060200120146112a257600080fd5b600760008381526020019081526020016000206040518060a00160405290816000820160009054906101000a900473ffffffffffffffffffffffffffffffffffffffff1673ffffffffffffffffffffffffffffffffffffffff1673ffffffffffffffffffffffffffffffffffffffff168152602001600182018054600181600116156101000203166002900480601f0160208091040260200160405190810160405280929190818152602001828054600181600116156101000203166002900480156113af5780601f10611384576101008083540402835291602001916113af565b820191906000526020600020905b81548152906001019060200180831161139257829003601f168201915b50505050508152602001600282018054600181600116156101000203166002900480601f0160208091040260200160405190810160405280929190818152602001828054600181600116156101000203166002900480156114515780601f1061142657610100808354040283529160200191611451565b820191906000526020600020905b81548152906001019060200180831161143457829003601f168201915b5050505050815260200160038201548152602001600482018054600181600116156101000203166002900480601f0160208091040260200160405190810160405280929190818152602001828054600181600116156101000203166002900480156114fd5780601f106114d2576101008083540402835291602001916114fd565b820191906000526020600020905b8154815290600101906020018083116114e057829003601f168201915b5050505050815250509050919050565b600060405160200161151e90612e15565b60405160208183030381529060405280519060200120600160003373ffffffffffffffffffffffffffffffffffffffff1673ffffffffffffffffffffffffffffffffffffffff1681526020019081526020016000206040516020016115839190612dbf565b60405160208183030381529060405280519060200120146115a357600080fd5b600960008573ffffffffffffffffffffffffffffffffffffffff1673ffffffffffffffffffffffffffffffffffffffff16815260200190815260200160002060405180606001604052803373ffffffffffffffffffffffffffffffffffffffff168152602001858152602001848152509080600181540180825580915050906001820390600052602060002090600302016000909192909190915060008201518160000160006101000a81548173ffffffffffffffffffffffffffffffffffffffff021916908373ffffffffffffffffffffffffffffffffffffffff16021790555060208201518160010190805190602001906116a19291906124ff565b5060408201518160020155505050600190509392505050565b60006060600360008573ffffffffffffffffffffffffffffffffffffffff1673ffffffffffffffffffffffffffffffffffffffff16815260200190815260200160002080548060200260200160405190810160405280929190818152602001828054801561177d57602002820191906000526020600020905b8160009054906101000a900473ffffffffffffffffffffffffffffffffffffffff1673ffffffffffffffffffffffffffffffffffffffff1681526020019060010190808311611733575b5050505050905060008151905060008090505b818110156117f8578473ffffffffffffffffffffffffffffffffffffffff168382815181106117bb57fe5b602002602001015173ffffffffffffffffffffffffffffffffffffffff1614156117eb5760019350505050611800565b8080600101915050611790565b506000925050505b92915050565b60608060608373ffffffffffffffffffffffffffffffffffffffff163373ffffffffffffffffffffffffffffffffffffffff161461184357600080fd5b60405160200161185290612e00565b60405160208183030381529060405280519060200120600160003373ffffffffffffffffffffffffffffffffffffffff1673ffffffffffffffffffffffffffffffffffffffff1681526020019081526020016000206040516020016118b79190612dbf565b60405160208183030381529060405280519060200120146118d757600080fd5b600260003373ffffffffffffffffffffffffffffffffffffffff1673ffffffffffffffffffffffffffffffffffffffff168152602001908152602001600020600001600260003373ffffffffffffffffffffffffffffffffffffffff1673ffffffffffffffffffffffffffffffffffffffff168152602001908152602001600020600101600260003373ffffffffffffffffffffffffffffffffffffffff1673ffffffffffffffffffffffffffffffffffffffff168152602001908152602001600020600201828054600181600116156101000203166002900480601f016020809104026020016040519081016040528092919081815260200182805460018160011615610100020316600290048015611a325780601f10611a0757610100808354040283529160200191611a32565b820191906000526020600020905b815481529060010190602001808311611a1557829003601f168201915b5050505050925081805480602002602001604051908101604052809291908181526020018280548015611a8457602002820191906000526020600020905b815481526020019060010190808311611a70575b50505050509150808054600181600116156101000203166002900480601f016020809104026020016040519081016040528092919081815260200182805460018160011615610100020316600290048015611b205780601f10611af557610100808354040283529160200191611b20565b820191906000526020600020905b815481529060010190602001808311611b0357829003601f168201915b505050505090509250925092509193909250565b6000604051602001611b4590612dd6565b60405160208183030381529060405280519060200120600160003373ffffffffffffffffffffffffffffffffffffffff1673ffffffffffffffffffffffffffffffffffffffff168152602001908152602001600020604051602001611baa9190612dbf565b6040516020818303038152906040528051906020012014611bca57600080fd5b6060600a60003373ffffffffffffffffffffffffffffffffffffffff1673ffffffffffffffffffffffffffffffffffffffff168152602001908152602001600020805480602002602001604051908101604052809291908181526020018280548015611c8b57602002820191906000526020600020905b8160009054906101000a900473ffffffffffffffffffffffffffffffffffffffff1673ffffffffffffffffffffffffffffffffffffffff1681526020019060010190808311611c41575b5050505050905060008151905060007fffffffffffffffffffffffffffffffffffffffffffffffffffffffffffffff86905060008090505b82811015611d23578573ffffffffffffffffffffffffffffffffffffffff16848281518110611cee57fe5b602002602001015173ffffffffffffffffffffffffffffffffffffffff161415611d16578091505b8080600101915050611cc3565b507fffffffffffffffffffffffffffffffffffffffffffffffffffffffffffffff868114611dc9576000819050600a60003373ffffffffffffffffffffffffffffffffffffffff1673ffffffffffffffffffffffffffffffffffffffff1681526020019081526020016000208181548110611d9a57fe5b9060005260206000200160006101000a81549073ffffffffffffffffffffffffffffffffffffffff0219169055505b60019350505050919050565b6000604051602001611de690612e2a565b60405160208183030381529060405280519060200120600160003373ffffffffffffffffffffffffffffffffffffffff1673ffffffffffffffffffffffffffffffffffffffff168152602001908152602001600020604051602001611e4b9190612dbf565b6040516020818303038152906040528051906020012014611e6b57600080fd5b604051602001611e7a90612e15565b60405160208183030381529060405280519060200120600160008573ffffffffffffffffffffffffffffffffffffffff1673ffffffffffffffffffffffffffffffffffffffff168152602001908152602001600020604051602001611edf9190612dbf565b6040516020818303038152906040528051906020012014611eff57600080fd5b60011515611f0d85336116ba565b151514611f1957600080fd5b611f216125ed565b84816000019073ffffffffffffffffffffffffffffffffffffffff16908173ffffffffffffffffffffffffffffffffffffffff168152505082816020018190525080600860008673ffffffffffffffffffffffffffffffffffffffff1673ffffffffffffffffffffffffffffffffffffffff16815260200190815260200160002060008201518160000160006101000a81548173ffffffffffffffffffffffffffffffffffffffff021916908373ffffffffffffffffffffffffffffffffffffffff16021790555060208201518160010190805190602001906120059291906124ff565b5090505060019150509392505050565b606060405160200161202690612e00565b60405160208183030381529060405280519060200120600160003373ffffffffffffffffffffffffffffffffffffffff1673ffffffffffffffffffffffffffffffffffffffff16815260200190815260200160002060405160200161208b9190612dbf565b60405160208183030381529060405280519060200120146120ab57600080fd5b600960003373ffffffffffffffffffffffffffffffffffffffff1673ffffffffffffffffffffffffffffffffffffffff168152602001908152602001600020805480602002602001604051908101604052809291908181526020016000905b8282101561223e57838290600052602060002090600302016040518060600160405290816000820160009054906101000a900473ffffffffffffffffffffffffffffffffffffffff1673ffffffffffffffffffffffffffffffffffffffff1673ffffffffffffffffffffffffffffffffffffffff168152602001600182018054600181600116156101000203166002900480601f01602080910402602001604051908101604052809291908181526020018280546001816001161561010002031660029004801561221c5780601f106121f15761010080835404028352916020019161221c565b820191906000526020600020905b8154815290600101906020018083116121ff57829003601f168201915b505050505081526020016002820154815250508152602001906001019061210a565b50505050905090565b600060405160200161225890612deb565b60405160208183030381529060405280519060200120600160003373ffffffffffffffffffffffffffffffffffffffff1673ffffffffffffffffffffffffffffffffffffffff1681526020019081526020016000206040516020016122bd9190612dbf565b60405160208183030381529060405280519060200120146122dd57600080fd5b6040518060400160405280600781526020017f4368656d69737400000000000000000000000000000000000000000000000000815250600160003373ffffffffffffffffffffffffffffffffffffffff1673ffffffffffffffffffffffffffffffffffffffff168152602001908152602001600020908051906020019061236592919061243a565b5081600660003373ffffffffffffffffffffffffffffffffffffffff1673ffffffffffffffffffffffffffffffffffffffff16815260200190815260200160002060000190805190602001906123bc92919061243a565b507fecc3bdfcb393e93b309b9a8b9a0b2a27316c7a94eacc7c3b1a1735528af9507c336040516123ec9190612e6b565b60405180910390a160019050919050565b600060fb4244604051602001612414929190612e3f565b6040516020818303038152906040528051906020012060001c8161243457fe5b06905090565b828054600181600116156101000203166002900490600052602060002090601f016020900481019282601f1061247b57805160ff19168380011785556124a9565b828001600101855582156124a9579182015b828111156124a857825182559160200191906001019061248d565b5b5090506124b6919061261d565b5090565b6040518060a00160405280600073ffffffffffffffffffffffffffffffffffffffff168152602001606081526020016060815260200160008152602001606081525090565b828054600181600116156101000203166002900490600052602060002090601f016020900481019282601f1061254057805160ff191683800117855561256e565b8280016001018555821561256e579182015b8281111561256d578251825591602001919060010190612552565b5b50905061257b919061261d565b5090565b60405180606001604052806060815260200160608152602001606081525090565b8280548282559060005260206000209081019282156125dc579160200282015b828111156125db5782518255916020019190600101906125c0565b5b5090506125e9919061261d565b5090565b6040518060400160405280600073ffffffffffffffffffffffffffffffffffffffff168152602001606081525090565b61263f91905b8082111561263b576000816000905550600101612623565b5090565b90565b6000813590506126518161316c565b92915050565b600082601f83011261266857600080fd5b813561267b61267682612f9b565b612f6e565b9150808252602083016020830185838301111561269757600080fd5b6126a283828461310f565b50505092915050565b6000813590506126ba81613183565b92915050565b6000602082840312156126d257600080fd5b60006126e084828501612642565b91505092915050565b600080604083850312156126fc57600080fd5b600061270a85828601612642565b925050602061271b85828601612642565b9150509250929050565b60008060006060848603121561273a57600080fd5b600061274886828701612642565b935050602061275986828701612642565b925050604084013567ffffffffffffffff81111561277657600080fd5b61278286828701612657565b9150509250925092565b6000806040838503121561279f57600080fd5b60006127ad85828601612642565b925050602083013567ffffffffffffffff8111156127ca57600080fd5b6127d685828601612657565b9150509250929050565b600080600080600060a086880312156127f857600080fd5b600061280688828901612642565b955050602086013567ffffffffffffffff81111561282357600080fd5b61282f88828901612657565b945050604086013567ffffffffffffffff81111561284c57600080fd5b61285888828901612657565b9350506060612869888289016126ab565b925050608086013567ffffffffffffffff81111561288657600080fd5b61289288828901612657565b9150509295509295909350565b6000806000606084860312156128b457600080fd5b60006128c286828701612642565b935050602084013567ffffffffffffffff8111156128df57600080fd5b6128eb86828701612657565b92505060406128fc868287016126ab565b9150509250925092565b60006020828403121561291857600080fd5b600082013567ffffffffffffffff81111561293257600080fd5b61293e84828501612657565b91505092915050565b60006020828403121561295957600080fd5b6000612967848285016126ab565b91505092915050565b600061297c8383612cb6565b905092915050565b60006129908383612d8a565b60208301905092915050565b6129a5816130d9565b82525050565b6129b481613091565b82525050565b60006129c582612ffc565b6129cf8185613042565b9350836020820285016129e185612fc7565b8060005b85811015612a1d57848403895281516129fe8582612970565b9450612a0983613028565b925060208a019950506001810190506129e5565b50829750879550505050505092915050565b6000612a3a82613007565b612a448185613053565b9350612a4f83612fd7565b8060005b83811015612a80578151612a678882612984565b9750612a7283613035565b925050600181019050612a53565b5085935050505092915050565b612a96816130a3565b82525050565b6000612aa78261301d565b612ab18185613075565b9350612ac181856020860161311e565b612aca8161315b565b840191505092915050565b6000612ae082613012565b612aea8185613064565b9350612afa81856020860161311e565b612b038161315b565b840191505092915050565b600081546001811660008114612b2b5760018114612b5057612b94565b607f6002830416612b3c8187613086565b955060ff1983168652808601935050612b94565b60028204612b5e8187613086565b9550612b6985612fe7565b60005b82811015612b8b57815481890152600182019150602081019050612b6c565b82880195505050505b505092915050565b6000612ba9600983613086565b91507f496e737572616e636500000000000000000000000000000000000000000000006000830152600982019050919050565b6000612be9600083613086565b9150600082019050919050565b6000612c03600783613086565b91507f70617469656e74000000000000000000000000000000000000000000000000006000830152600782019050919050565b6000612c43600783613086565b91507f4368656d697374000000000000000000000000000000000000000000000000006000830152600782019050919050565b6000612c83600683613086565b91507f646f63746f7200000000000000000000000000000000000000000000000000006000830152600682019050919050565b6000606083016000830151612cce60008601826129ab565b5060208301518482036020860152612ce68282612ad5565b9150506040830151612cfb6040860182612d8a565b508091505092915050565b600060a083016000830151612d1e60008601826129ab565b5060208301518482036020860152612d368282612ad5565b91505060408301518482036040860152612d508282612ad5565b9150506060830151612d656060860182612d8a565b5060808301518482036080860152612d7d8282612ad5565b9150508091505092915050565b612d93816130cf565b82525050565b612da2816130cf565b82525050565b612db9612db4826130cf565b613151565b82525050565b6000612dcb8284612b0e565b915081905092915050565b6000612de182612b9c565b9150819050919050565b6000612df682612bdc565b9150819050919050565b6000612e0b82612bf6565b9150819050919050565b6000612e2082612c36565b9150819050919050565b6000612e3582612c76565b9150819050919050565b6000612e4b8285612da8565b602082019150612e5b8284612da8565b6020820191508190509392505050565b6000602082019050612e80600083018461299c565b92915050565b60006020820190508181036000830152612ea081846129ba565b905092915050565b6000602082019050612ebd6000830184612a8d565b92915050565b60006020820190508181036000830152612edd8184612a9c565b905092915050565b60006060820190508181036000830152612eff8186612a9c565b90508181036020830152612f138185612a2f565b90508181036040830152612f278184612a9c565b9050949350505050565b60006020820190508181036000830152612f4b8184612d06565b905092915050565b6000602082019050612f686000830184612d99565b92915050565b6000604051905081810181811067ffffffffffffffff82111715612f9157600080fd5b8060405250919050565b600067ffffffffffffffff821115612fb257600080fd5b601f19601f8301169050602081019050919050565b6000819050602082019050919050565b6000819050602082019050919050565b60008190508160005260206000209050919050565b600081519050919050565b600081519050919050565b600081519050919050565b600081519050919050565b6000602082019050919050565b6000602082019050919050565b600082825260208201905092915050565b600082825260208201905092915050565b600082825260208201905092915050565b600082825260208201905092915050565b600081905092915050565b600061309c826130af565b9050919050565b60008115159050919050565b600073ffffffffffffffffffffffffffffffffffffffff82169050919050565b6000819050919050565b60006130e4826130eb565b9050919050565b60006130f6826130fd565b9050919050565b6000613108826130af565b9050919050565b82818337600083830152505050565b60005b8381101561313c578082015181840152602081019050613121565b8381111561314b576000848401525b50505050565b6000819050919050565b6000601f19601f8301169050919050565b61317581613091565b811461318057600080fd5b50565b61318c816130cf565b811461319757600080fd5b5056fea365627a7a723158209e2b037b6bacaa4217688979d985e43096fcdb0d54c042b3d2bbae705b8b6d826c6578706572696d656e74616cf564736f6c63430005100040",
  "source": "// SPDX-License-Identifier: GPL-3.0\r\n\r\npragma solidity >=0.5.16;\r\npragma experimental ABIEncoderV2;\r\ncontract Health {\r\n    //mappings\r\n    mapping(address => uint) authCaller;\r\n    mapping(address => string) userType;\r\n    mapping(address => patient) PData;\r\n    mapping(address=> address[]) patToDoctor;\r\n    mapping(address => doctor) DData;\r\n    mapping(address => insaurance) IData;\r\n    mapping(address => chemist) CData;\r\n    mapping(uint => treatment) treatmentDetails;\r\n    mapping(address => medicine) chemToMed;\r\n    mapping(address => bill[]) patToChemistBill;\r\n    mapping(address => address[]) insToPat;\r\n    //constructor\r\n    constructor() public{\r\n        authCaller[msg.sender] = 1;\r\n    }\r\n    \r\n    \r\n    //events\r\n     event DoctorAdded(address doctorAdd);\r\n     event ChemistAdded(address ChemistAdd);\r\n     event insAdded(address insAdd);\r\n     event treated(address indexed Did,uint tid);\r\n    //structs\r\n    struct bill{\r\n        address chemid;\r\n        string date;\r\n        uint amt;\r\n    }\r\n     struct patient{\r\n        string Phash; \r\n        uint [] treatmentId;\r\n        string precautions;\r\n\r\n    }\r\n    struct doctor{\r\n        string Dhash;\r\n    }\r\n    struct chemist{\r\n        string Chash;\r\n    }\r\n    struct insaurance{\r\n        string Ihash;\r\n    }\r\n     struct treatment {\r\n        address doctor_id;\r\n        string diagnosis;\r\n        string test_conducted;\r\n        uint bill;\r\n        string medicine;\r\n    }\r\n    struct medicine{\r\n        address pid;\r\n        string medicines;\r\n    }\r\n    //struct variable\r\n   \r\n    \r\n    //patient functions\r\n    \r\n    //make function to show all chemist bills\r\n    \r\n    function addPat(string memory _Phash) public returns(bool){\r\n        require(keccak256(abi.encodePacked(userType[msg.sender])) == keccak256(abi.encodePacked(\"\")));\r\n        patient memory pat;\r\n        pat.Phash = _Phash;\r\n        userType[msg.sender] = 'patient';\r\n        PData[msg.sender] = pat;\r\n        return true;\r\n    }\r\n    function getbills() public returns(bill[] memory){\r\n        require(keccak256(abi.encodePacked(userType[msg.sender])) == keccak256(abi.encodePacked(\"patient\")));\r\n        return patToChemistBill[msg.sender];\r\n    }\r\n    //return patient treatmentId and precautions as well\r\n    function getPatient(address _Padd) public returns(string memory,uint[] memory,string memory){\r\n        require(msg.sender == _Padd);\r\n        require(keccak256(abi.encodePacked(userType[msg.sender])) == keccak256(abi.encodePacked(\"patient\")));\r\n        \r\n        return (PData[msg.sender].Phash,PData[msg.sender].treatmentId,PData[msg.sender].precautions);\r\n    }\r\n    \r\n    function getDoctor(address _Dadd) public returns(string memory){\r\n        //need to complete\r\n         return DData[_Dadd].Dhash; \r\n    }\r\n    \r\n    function grantAccess(address _Dadd) public returns(bool){\r\n        require(keccak256(abi.encodePacked(userType[msg.sender])) == keccak256(abi.encodePacked(\"patient\")));\r\n        patToDoctor[msg.sender].push(_Dadd);\r\n        return true;\r\n    }\r\n    \r\n    //check give address is insaurance company is or not\r\n    function applyIns(address _Iadd) public returns(bool){\r\n         require(keccak256(abi.encodePacked(userType[msg.sender])) == keccak256(abi.encodePacked(\"patient\")));\r\n         require(keccak256(abi.encodePacked(userType[_Iadd])) == keccak256(abi.encodePacked(\"Insurance\")));\r\n         insToPat[_Iadd].push(msg.sender);\r\n         return true;\r\n            \r\n    }\r\n     function isValid(address pat,address doctor) public returns(bool){\r\n        address[] memory temp = patToDoctor[pat];\r\n        uint len = temp.length;\r\n        for(uint i = 0;i<len;i++){\r\n            if(temp[i] == doctor)\r\n                return true;\r\n        }\r\n        return false;\r\n    }\r\n    \r\n    //getUser\r\n    function getUser(address _Uaddress) public returns(string memory){\r\n        return userType[_Uaddress];\r\n    }\r\n    \r\n    //Doctor \r\n    \r\n     function addDoc(string memory _Dhash) public returns(bool){\r\n        require(keccak256(abi.encodePacked(userType[msg.sender])) == keccak256(abi.encodePacked(\"\")));\r\n        userType[msg.sender] = 'doctor';\r\n        DData[msg.sender].Dhash = _Dhash;\r\n        emit DoctorAdded(msg.sender);\r\n        return true;\r\n    }\r\n    \r\n    function updatePrecautions(address _Padd,string memory _precautions) public returns(bool){\r\n        require(keccak256(abi.encodePacked(userType[msg.sender])) == keccak256(abi.encodePacked(\"doctor\")));\r\n        require(isValid(_Padd,msg.sender) == true);\r\n        PData[_Padd].precautions = _precautions;\r\n        return true;\r\n        \r\n    }\r\n   function random() private view returns (uint) {\r\n       return uint(uint256(keccak256(abi.encodePacked(block.timestamp, block.difficulty)))%251);\r\n   }\r\n    function treatPatient(address _Padd, string memory _diagnosis,string memory _test_conducted,uint _bill,string memory _medicine)\r\n    public returns(uint){\r\n        require(keccak256(abi.encodePacked(userType[msg.sender])) == keccak256(abi.encodePacked(\"doctor\")));\r\n        require(isValid(_Padd,msg.sender) == true);\r\n        uint _tid = random();\r\n        treatment memory trt;\r\n        trt.doctor_id = msg.sender;\r\n        trt.diagnosis = _diagnosis;\r\n        trt.test_conducted = _test_conducted;\r\n        trt.bill = _bill;\r\n        trt.medicine = _medicine;\r\n        treatmentDetails[_tid] = trt;\r\n        PData[_Padd].treatmentId.push(_tid);\r\n        emit treated(msg.sender,_tid);\r\n        return _tid;\r\n    }\r\n    //check if chemist is present   \r\n    function giveMedicines(address _pid,address _cadd,string memory _medicines) public returns(bool){\r\n        require(keccak256(abi.encodePacked(userType[msg.sender])) == keccak256(abi.encodePacked(\"doctor\")));\r\n        require(keccak256(abi.encodePacked(userType[_cadd])) == keccak256(abi.encodePacked(\"Chemist\")));\r\n        require(isValid(_pid,msg.sender) == true);\r\n        medicine memory md;\r\n        md.pid = _pid;\r\n        md.medicines = _medicines;\r\n        chemToMed[_cadd] = md;\r\n        return true;\r\n    }\r\n    function getTrtDetails(uint _tid) public returns(treatment memory trt){\r\n         require(keccak256(abi.encodePacked(userType[msg.sender])) == keccak256(abi.encodePacked(\"doctor\")));\r\n         return treatmentDetails[_tid];\r\n    }\r\n    \r\n    //chemist\r\n    \r\n    function addChemist(string memory Chash) public returns(bool){\r\n      require(keccak256(abi.encodePacked(userType[msg.sender])) == keccak256(abi.encodePacked(\"\")));\r\n      userType[msg.sender] = 'Chemist';\r\n        CData[msg.sender].Chash = Chash;\r\n        emit ChemistAdded(msg.sender);\r\n        return true;\r\n    }\r\n    \r\n    function sellMedicines(address _pid,string memory _date,uint _amt) public returns(bool){\r\n        require(keccak256(abi.encodePacked(userType[msg.sender])) == keccak256(abi.encodePacked(\"Chemist\")));\r\n        \r\n        patToChemistBill[_pid].push(bill(msg.sender,_date,_amt));\r\n        return true;\r\n    }\r\n    \r\n   //insaurance\r\n   \r\n   function addInsCompany(string memory Ihash) public returns(bool){\r\n       require(keccak256(abi.encodePacked(userType[msg.sender])) == keccak256(abi.encodePacked(\"\")));\r\n        userType[msg.sender] = 'Insurance';\r\n        IData[msg.sender].Ihash = Ihash;\r\n        emit insAdded(msg.sender);\r\n        return true;\r\n   }\r\n    function approveInsurance(address patId) public returns(bool){\r\n        require(keccak256(abi.encodePacked(userType[msg.sender])) == keccak256(abi.encodePacked(\"Insurance\")));\r\n        address[] memory arr = insToPat[msg.sender];\r\n        uint len = arr.length;\r\n        int j = -122;\r\n        for(uint i = 0 ; i < len ; i++ ){\r\n            if(arr[i] == patId){\r\n             j=int (i);   \r\n            }\r\n        }\r\n        if(j != -122){\r\n            uint i = uint (j);\r\n            delete insToPat[msg.sender][i];\r\n        }\r\n        return true;\r\n    }\r\n    \r\n}",
  "sourcePath": "E:\\react\\HealthCare\\Backend\\contracts\\Health.sol",
  "compiler": {
    "name": "solc",
    "version": "0.5.16+commit.9c3226ce.Emscripten.clang"
  },
  "schemaVersion": "3.2.0",
  "updatedAt": "2021-01-03T11:43:00.034Z",
  "networkType": "ethereum",
  "devdoc": {
    "methods": {}
  },
  "userdoc": {
    "methods": {}
  }
}