{
  "contractName": "Health",
  "abi": [
    {
      "inputs": [],
      "payable": false,
      "stateMutability": "nonpayable",
      "type": "constructor"
    },
    {
      "anonymous": false,
      "inputs": [
        {
          "indexed": false,
          "internalType": "address",
          "name": "ChemistAdd",
          "type": "address"
        }
      ],
      "name": "ChemistAdded",
      "type": "event"
    },
    {
      "anonymous": false,
      "inputs": [
        {
          "indexed": false,
          "internalType": "address",
          "name": "doctorAdd",
          "type": "address"
        }
      ],
      "name": "DoctorAdded",
      "type": "event"
    },
    {
      "anonymous": false,
      "inputs": [
        {
          "indexed": false,
          "internalType": "address",
          "name": "insAdd",
          "type": "address"
        }
      ],
      "name": "insAdded",
      "type": "event"
    },
    {
      "anonymous": false,
      "inputs": [
        {
          "indexed": true,
          "internalType": "address",
          "name": "Did",
          "type": "address"
        },
        {
          "indexed": true,
          "internalType": "address",
          "name": "Pid",
          "type": "address"
        },
        {
          "indexed": false,
          "internalType": "uint256",
          "name": "tid",
          "type": "uint256"
        }
      ],
      "name": "treated",
      "type": "event"
    },
    {
      "constant": false,
      "inputs": [
        {
          "internalType": "string",
          "name": "_Phash",
          "type": "string"
        }
      ],
      "name": "addPat",
      "outputs": [
        {
          "internalType": "bool",
          "name": "",
          "type": "bool"
        }
      ],
      "payable": false,
      "stateMutability": "nonpayable",
      "type": "function"
    },
    {
      "constant": false,
      "inputs": [],
      "name": "getbills",
      "outputs": [
        {
          "components": [
            {
              "internalType": "address",
              "name": "chemid",
              "type": "address"
            },
            {
              "internalType": "string",
              "name": "date",
              "type": "string"
            },
            {
              "internalType": "uint256",
              "name": "amt",
              "type": "uint256"
            }
          ],
          "internalType": "struct Health.bill[]",
          "name": "",
          "type": "tuple[]"
        }
      ],
      "payable": false,
      "stateMutability": "nonpayable",
      "type": "function"
    },
    {
      "constant": false,
      "inputs": [
        {
          "internalType": "address",
          "name": "_Padd",
          "type": "address"
        }
      ],
      "name": "getPatient",
      "outputs": [
        {
          "internalType": "string",
          "name": "",
          "type": "string"
        },
        {
          "internalType": "uint256[]",
          "name": "",
          "type": "uint256[]"
        },
        {
          "internalType": "string",
          "name": "",
          "type": "string"
        }
      ],
      "payable": false,
      "stateMutability": "nonpayable",
      "type": "function"
    },
    {
      "constant": false,
      "inputs": [
        {
          "internalType": "address",
          "name": "_Dadd",
          "type": "address"
        }
      ],
      "name": "getDoctor",
      "outputs": [
        {
          "internalType": "string",
          "name": "",
          "type": "string"
        }
      ],
      "payable": false,
      "stateMutability": "nonpayable",
      "type": "function"
    },
    {
      "constant": false,
      "inputs": [
        {
          "internalType": "address",
          "name": "_Iadd",
          "type": "address"
        }
      ],
      "name": "getIns",
      "outputs": [
        {
          "internalType": "string",
          "name": "",
          "type": "string"
        }
      ],
      "payable": false,
      "stateMutability": "nonpayable",
      "type": "function"
    },
    {
      "constant": false,
      "inputs": [
        {
          "internalType": "address",
          "name": "_Dadd",
          "type": "address"
        }
      ],
      "name": "grantAccess",
      "outputs": [
        {
          "internalType": "bool",
          "name": "",
          "type": "bool"
        }
      ],
      "payable": false,
      "stateMutability": "nonpayable",
      "type": "function"
    },
    {
      "constant": false,
      "inputs": [
        {
          "internalType": "address",
          "name": "_Iadd",
          "type": "address"
        }
      ],
      "name": "applyIns",
      "outputs": [
        {
          "internalType": "bool",
          "name": "",
          "type": "bool"
        }
      ],
      "payable": false,
      "stateMutability": "nonpayable",
      "type": "function"
    },
    {
      "constant": false,
      "inputs": [
        {
          "internalType": "address",
          "name": "pat",
          "type": "address"
        },
        {
          "internalType": "address",
          "name": "doctor",
          "type": "address"
        }
      ],
      "name": "isValid",
      "outputs": [
        {
          "internalType": "bool",
          "name": "",
          "type": "bool"
        }
      ],
      "payable": false,
      "stateMutability": "nonpayable",
      "type": "function"
    },
    {
      "constant": false,
      "inputs": [
        {
          "internalType": "address",
          "name": "_Uaddress",
          "type": "address"
        }
      ],
      "name": "getUser",
      "outputs": [
        {
          "internalType": "string",
          "name": "",
          "type": "string"
        }
      ],
      "payable": false,
      "stateMutability": "nonpayable",
      "type": "function"
    },
    {
      "constant": false,
      "inputs": [
        {
          "internalType": "string",
          "name": "_Dhash",
          "type": "string"
        }
      ],
      "name": "addDoc",
      "outputs": [
        {
          "internalType": "bool",
          "name": "",
          "type": "bool"
        }
      ],
      "payable": false,
      "stateMutability": "nonpayable",
      "type": "function"
    },
    {
      "constant": false,
      "inputs": [
        {
          "internalType": "address",
          "name": "_Padd",
          "type": "address"
        },
        {
          "internalType": "string",
          "name": "_precautions",
          "type": "string"
        }
      ],
      "name": "updatePrecautions",
      "outputs": [
        {
          "internalType": "bool",
          "name": "",
          "type": "bool"
        }
      ],
      "payable": false,
      "stateMutability": "nonpayable",
      "type": "function"
    },
    {
      "constant": false,
      "inputs": [
        {
          "internalType": "address",
          "name": "_Padd",
          "type": "address"
        },
        {
          "internalType": "string",
          "name": "_Thash",
          "type": "string"
        }
      ],
      "name": "treatPatient",
      "outputs": [
        {
          "internalType": "uint256",
          "name": "",
          "type": "uint256"
        }
      ],
      "payable": false,
      "stateMutability": "nonpayable",
      "type": "function"
    },
    {
      "constant": false,
      "inputs": [
        {
          "internalType": "address",
          "name": "_pid",
          "type": "address"
        },
        {
          "internalType": "address",
          "name": "_cadd",
          "type": "address"
        },
        {
          "internalType": "string",
          "name": "_medicines",
          "type": "string"
        }
      ],
      "name": "giveMedicines",
      "outputs": [
        {
          "internalType": "bool",
          "name": "",
          "type": "bool"
        }
      ],
      "payable": false,
      "stateMutability": "nonpayable",
      "type": "function"
    },
    {
      "constant": false,
      "inputs": [
        {
          "internalType": "uint256",
          "name": "_tid",
          "type": "uint256"
        }
      ],
      "name": "getTrtDetails",
      "outputs": [
        {
          "internalType": "string",
          "name": "",
          "type": "string"
        }
      ],
      "payable": false,
      "stateMutability": "nonpayable",
      "type": "function"
    },
    {
      "constant": false,
      "inputs": [
        {
          "internalType": "string",
          "name": "Chash",
          "type": "string"
        }
      ],
      "name": "addChemist",
      "outputs": [
        {
          "internalType": "bool",
          "name": "",
          "type": "bool"
        }
      ],
      "payable": false,
      "stateMutability": "nonpayable",
      "type": "function"
    },
    {
      "constant": false,
      "inputs": [],
      "name": "getMedicineDetails",
      "outputs": [
        {
          "components": [
            {
              "internalType": "address",
              "name": "pid",
              "type": "address"
            },
            {
              "internalType": "string",
              "name": "medicines",
              "type": "string"
            }
          ],
          "internalType": "struct Health.medicine[]",
          "name": "",
          "type": "tuple[]"
        }
      ],
      "payable": false,
      "stateMutability": "nonpayable",
      "type": "function"
    },
    {
      "constant": false,
      "inputs": [
        {
          "internalType": "address",
          "name": "_pid",
          "type": "address"
        },
        {
          "internalType": "string",
          "name": "_date",
          "type": "string"
        },
        {
          "internalType": "uint256",
          "name": "_amt",
          "type": "uint256"
        }
      ],
      "name": "sellMedicines",
      "outputs": [
        {
          "internalType": "bool",
          "name": "",
          "type": "bool"
        }
      ],
      "payable": false,
      "stateMutability": "nonpayable",
      "type": "function"
    },
    {
      "constant": false,
      "inputs": [
        {
          "internalType": "string",
          "name": "Ihash",
          "type": "string"
        }
      ],
      "name": "addInsCompany",
      "outputs": [
        {
          "internalType": "bool",
          "name": "",
          "type": "bool"
        }
      ],
      "payable": false,
      "stateMutability": "nonpayable",
      "type": "function"
    },
    {
      "constant": false,
      "inputs": [
        {
          "internalType": "address",
          "name": "patId",
          "type": "address"
        }
      ],
      "name": "approveInsurance",
      "outputs": [
        {
          "internalType": "bool",
          "name": "",
          "type": "bool"
        }
      ],
      "payable": false,
      "stateMutability": "nonpayable",
      "type": "function"
    }
  ],
  "bytecode": "0x608060405234801561001057600080fd5b5060016000803373ffffffffffffffffffffffffffffffffffffffff1673ffffffffffffffffffffffffffffffffffffffff16815260200190815260200160002081905550613198806100646000396000f3fe608060405234801561001057600080fd5b50600436106101215760003560e01c806386332ccf116100ad578063b5368e2011610071578063b5368e20146103b4578063c1a92c28146103e6578063d808006614610416578063e9e4739314610446578063fa8369521461046457610121565b806386332ccf146102c45780639fa99412146102f4578063a2e421a014610324578063a708005914610354578063af874a761461038457610121565b80632f04e064116100f45780632f04e064146101d457806365ad4ca6146102045780636659cbc3146102345780636f77926b146102645780638537b3751461029457610121565b80630ae5e739146101265780630e7aa5e5146101565780631dd9f50b1461018657806320bacfbd146101a4575b600080fd5b610140600480360361013b91908101906126bf565b610494565b60405161014d9190612e4c565b60405180910390f35b610170600480360361016b91908101906126bf565b6105d6565b60405161017d9190612e4c565b60405180910390f35b61018e6107ac565b60405161019b9190612e2a565b60405180910390f35b6101be60048036036101b99190810190612846565b6109d4565b6040516101cb9190612e4c565b60405180910390f35b6101ee60048036036101e991908101906126bf565b610b8a565b6040516101fb9190612e67565b60405180910390f35b61021e6004803603610219919081019061278b565b610c6e565b60405161022b9190612e4c565b60405180910390f35b61024e600480360361024991908101906126bf565b610d7f565b60405161025b9190612e67565b60405180910390f35b61027e600480360361027991908101906126bf565b610e63565b60405161028b9190612e67565b60405180910390f35b6102ae60048036036102a99190810190612846565b610f44565b6040516102bb9190612e4c565b60405180910390f35b6102de60048036036102d9919081019061278b565b611118565b6040516102eb9190612ed5565b60405180910390f35b61030e60048036036103099190810190612846565b6112f5565b60405161031b9190612e4c565b60405180910390f35b61033e60048036036103399190810190612887565b6114ab565b60405161034b9190612e67565b60405180910390f35b61036e600480360361036991908101906127df565b611563565b60405161037b9190612e4c565b60405180910390f35b61039e600480360361039991908101906126e8565b611710565b6040516103ab9190612e4c565b60405180910390f35b6103ce60048036036103c991908101906126bf565b61185c565b6040516103dd93929190612e89565b60405180910390f35b61040060048036036103fb91908101906126bf565b611b8a565b60405161040d9190612e4c565b60405180910390f35b610430600480360361042b9190810190612724565b611e2b565b60405161043d9190612e4c565b60405180910390f35b61044e612076565b60405161045b9190612e08565b60405180910390f35b61047e60048036036104799190810190612846565b6122a8565b60405161048b9190612e4c565b60405180910390f35b60006040516020016104a590612d82565b60405160208183030381529060405280519060200120600160003373ffffffffffffffffffffffffffffffffffffffff1673ffffffffffffffffffffffffffffffffffffffff16815260200190815260200160002060405160200161050a9190612d41565b604051602081830303815290604052805190602001201461052a57600080fd5b600360003373ffffffffffffffffffffffffffffffffffffffff1673ffffffffffffffffffffffffffffffffffffffff1681526020019081526020016000208290806001815401808255809150509060018203906000526020600020016000909192909190916101000a81548173ffffffffffffffffffffffffffffffffffffffff021916908373ffffffffffffffffffffffffffffffffffffffff1602179055505060019050919050565b60006040516020016105e790612d82565b60405160208183030381529060405280519060200120600160003373ffffffffffffffffffffffffffffffffffffffff1673ffffffffffffffffffffffffffffffffffffffff16815260200190815260200160002060405160200161064c9190612d41565b604051602081830303815290604052805190602001201461066c57600080fd5b60405160200161067b90612d58565b60405160208183030381529060405280519060200120600160008473ffffffffffffffffffffffffffffffffffffffff1673ffffffffffffffffffffffffffffffffffffffff1681526020019081526020016000206040516020016106e09190612d41565b604051602081830303815290604052805190602001201461070057600080fd5b600a60008373ffffffffffffffffffffffffffffffffffffffff1673ffffffffffffffffffffffffffffffffffffffff1681526020019081526020016000203390806001815401808255809150509060018203906000526020600020016000909192909190916101000a81548173ffffffffffffffffffffffffffffffffffffffff021916908373ffffffffffffffffffffffffffffffffffffffff1602179055505060019050919050565b60606040516020016107bd90612d97565b60405160208183030381529060405280519060200120600160003373ffffffffffffffffffffffffffffffffffffffff1673ffffffffffffffffffffffffffffffffffffffff1681526020019081526020016000206040516020016108229190612d41565b604051602081830303815290604052805190602001201461084257600080fd5b600860003373ffffffffffffffffffffffffffffffffffffffff1673ffffffffffffffffffffffffffffffffffffffff168152602001908152602001600020805480602002602001604051908101604052809291908181526020016000905b828210156109cb57838290600052602060002090600202016040518060400160405290816000820160009054906101000a900473ffffffffffffffffffffffffffffffffffffffff1673ffffffffffffffffffffffffffffffffffffffff1673ffffffffffffffffffffffffffffffffffffffff168152602001600182018054600181600116156101000203166002900480601f0160208091040260200160405190810160405280929190818152602001828054600181600116156101000203166002900480156109b35780601f10610988576101008083540402835291602001916109b3565b820191906000526020600020905b81548152906001019060200180831161099657829003601f168201915b505050505081525050815260200190600101906108a1565b50505050905090565b60006040516020016109e590612d6d565b60405160208183030381529060405280519060200120600160003373ffffffffffffffffffffffffffffffffffffffff1673ffffffffffffffffffffffffffffffffffffffff168152602001908152602001600020604051602001610a4a9190612d41565b6040516020818303038152906040528051906020012014610a6a57600080fd5b6040518060400160405280600681526020017f646f63746f720000000000000000000000000000000000000000000000000000815250600160003373ffffffffffffffffffffffffffffffffffffffff1673ffffffffffffffffffffffffffffffffffffffff1681526020019081526020016000209080519060200190610af292919061249b565b5081600460003373ffffffffffffffffffffffffffffffffffffffff1673ffffffffffffffffffffffffffffffffffffffff1681526020019081526020016000206000019080519060200190610b4992919061249b565b507f69908b2e63170aa89ef89719bbe3b4c92cccc38653968ab25f4464eff7c28ac833604051610b799190612ded565b60405180910390a160019050919050565b6060600460008373ffffffffffffffffffffffffffffffffffffffff1673ffffffffffffffffffffffffffffffffffffffff1681526020019081526020016000206000018054600181600116156101000203166002900480601f016020809104026020016040519081016040528092919081815260200182805460018160011615610100020316600290048015610c625780601f10610c3757610100808354040283529160200191610c62565b820191906000526020600020905b815481529060010190602001808311610c4557829003601f168201915b50505050509050919050565b6000604051602001610c7f90612dac565b60405160208183030381529060405280519060200120600160003373ffffffffffffffffffffffffffffffffffffffff1673ffffffffffffffffffffffffffffffffffffffff168152602001908152602001600020604051602001610ce49190612d41565b6040516020818303038152906040528051906020012014610d0457600080fd5b60011515610d128433611710565b151514610d1e57600080fd5b81600260008573ffffffffffffffffffffffffffffffffffffffff1673ffffffffffffffffffffffffffffffffffffffff1681526020019081526020016000206002019080519060200190610d7492919061249b565b506001905092915050565b6060600560008373ffffffffffffffffffffffffffffffffffffffff1673ffffffffffffffffffffffffffffffffffffffff1681526020019081526020016000206000018054600181600116156101000203166002900480601f016020809104026020016040519081016040528092919081815260200182805460018160011615610100020316600290048015610e575780601f10610e2c57610100808354040283529160200191610e57565b820191906000526020600020905b815481529060010190602001808311610e3a57829003601f168201915b50505050509050919050565b6060600160008373ffffffffffffffffffffffffffffffffffffffff1673ffffffffffffffffffffffffffffffffffffffff1681526020019081526020016000208054600181600116156101000203166002900480601f016020809104026020016040519081016040528092919081815260200182805460018160011615610100020316600290048015610f385780601f10610f0d57610100808354040283529160200191610f38565b820191906000526020600020905b815481529060010190602001808311610f1b57829003601f168201915b50505050509050919050565b6000604051602001610f5590612d6d565b60405160208183030381529060405280519060200120600160003373ffffffffffffffffffffffffffffffffffffffff1673ffffffffffffffffffffffffffffffffffffffff168152602001908152602001600020604051602001610fba9190612d41565b6040516020818303038152906040528051906020012014610fda57600080fd5b610fe261251b565b8281600001819052506040518060400160405280600781526020017f70617469656e7400000000000000000000000000000000000000000000000000815250600160003373ffffffffffffffffffffffffffffffffffffffff1673ffffffffffffffffffffffffffffffffffffffff168152602001908152602001600020908051906020019061107392919061249b565b5080600260003373ffffffffffffffffffffffffffffffffffffffff1673ffffffffffffffffffffffffffffffffffffffff16815260200190815260200160002060008201518160000190805190602001906110d092919061253c565b5060208201518160010190805190602001906110ed9291906125bc565b50604082015181600201908051906020019061110a92919061253c565b509050506001915050919050565b600060405160200161112990612dac565b60405160208183030381529060405280519060200120600160003373ffffffffffffffffffffffffffffffffffffffff1673ffffffffffffffffffffffffffffffffffffffff16815260200190815260200160002060405160200161118e9190612d41565b60405160208183030381529060405280519060200120146111ae57600080fd5b600115156111bc8433611710565b1515146111c857600080fd5b60006111d261245e565b90506111dc612609565b838160000181905250600260008673ffffffffffffffffffffffffffffffffffffffff1673ffffffffffffffffffffffffffffffffffffffff1681526020019081526020016000206001018290806001815401808255809150509060018203906000526020600020016000909192909190915055508060076000848152602001908152602001600020600082015181600001908051906020019061128192919061253c565b509050508473ffffffffffffffffffffffffffffffffffffffff163373ffffffffffffffffffffffffffffffffffffffff167fb100fd3e4cab57d0dd8d6f2139052978f6fbd675908475500a05f57c2fd3fd32846040516112e29190612ed5565b60405180910390a3819250505092915050565b600060405160200161130690612d6d565b60405160208183030381529060405280519060200120600160003373ffffffffffffffffffffffffffffffffffffffff1673ffffffffffffffffffffffffffffffffffffffff16815260200190815260200160002060405160200161136b9190612d41565b604051602081830303815290604052805190602001201461138b57600080fd5b6040518060400160405280600a81526020017f496e73617572616e636500000000000000000000000000000000000000000000815250600160003373ffffffffffffffffffffffffffffffffffffffff1673ffffffffffffffffffffffffffffffffffffffff168152602001908152602001600020908051906020019061141392919061249b565b5081600560003373ffffffffffffffffffffffffffffffffffffffff1673ffffffffffffffffffffffffffffffffffffffff168152602001908152602001600020600001908051906020019061146a92919061249b565b507fceecea79e4e48c1f16ba1294443d282cd050a264663c4a0d10156221c9fd88a13360405161149a9190612ded565b60405180910390a160019050919050565b6060600760008381526020019081526020016000206000018054600181600116156101000203166002900480601f0160208091040260200160405190810160405280929190818152602001828054600181600116156101000203166002900480156115575780601f1061152c57610100808354040283529160200191611557565b820191906000526020600020905b81548152906001019060200180831161153a57829003601f168201915b50505050509050919050565b600060405160200161157490612d97565b60405160208183030381529060405280519060200120600160003373ffffffffffffffffffffffffffffffffffffffff1673ffffffffffffffffffffffffffffffffffffffff1681526020019081526020016000206040516020016115d99190612d41565b60405160208183030381529060405280519060200120146115f957600080fd5b600960008573ffffffffffffffffffffffffffffffffffffffff1673ffffffffffffffffffffffffffffffffffffffff16815260200190815260200160002060405180606001604052803373ffffffffffffffffffffffffffffffffffffffff168152602001858152602001848152509080600181540180825580915050906001820390600052602060002090600302016000909192909190915060008201518160000160006101000a81548173ffffffffffffffffffffffffffffffffffffffff021916908373ffffffffffffffffffffffffffffffffffffffff16021790555060208201518160010190805190602001906116f792919061253c565b5060408201518160020155505050600190509392505050565b60006060600360008573ffffffffffffffffffffffffffffffffffffffff1673ffffffffffffffffffffffffffffffffffffffff1681526020019081526020016000208054806020026020016040519081016040528092919081815260200182805480156117d357602002820191906000526020600020905b8160009054906101000a900473ffffffffffffffffffffffffffffffffffffffff1673ffffffffffffffffffffffffffffffffffffffff1681526020019060010190808311611789575b5050505050905060008151905060008090505b8181101561184e578473ffffffffffffffffffffffffffffffffffffffff1683828151811061181157fe5b602002602001015173ffffffffffffffffffffffffffffffffffffffff1614156118415760019350505050611856565b80806001019150506117e6565b506000925050505b92915050565b60608060608373ffffffffffffffffffffffffffffffffffffffff163373ffffffffffffffffffffffffffffffffffffffff161461189957600080fd5b6040516020016118a890612d82565b60405160208183030381529060405280519060200120600160003373ffffffffffffffffffffffffffffffffffffffff1673ffffffffffffffffffffffffffffffffffffffff16815260200190815260200160002060405160200161190d9190612d41565b604051602081830303815290604052805190602001201461192d57600080fd5b600260003373ffffffffffffffffffffffffffffffffffffffff1673ffffffffffffffffffffffffffffffffffffffff168152602001908152602001600020600001600260003373ffffffffffffffffffffffffffffffffffffffff1673ffffffffffffffffffffffffffffffffffffffff168152602001908152602001600020600101600260003373ffffffffffffffffffffffffffffffffffffffff1673ffffffffffffffffffffffffffffffffffffffff168152602001908152602001600020600201828054600181600116156101000203166002900480601f016020809104026020016040519081016040528092919081815260200182805460018160011615610100020316600290048015611a885780601f10611a5d57610100808354040283529160200191611a88565b820191906000526020600020905b815481529060010190602001808311611a6b57829003601f168201915b5050505050925081805480602002602001604051908101604052809291908181526020018280548015611ada57602002820191906000526020600020905b815481526020019060010190808311611ac6575b50505050509150808054600181600116156101000203166002900480601f016020809104026020016040519081016040528092919081815260200182805460018160011615610100020316600290048015611b765780601f10611b4b57610100808354040283529160200191611b76565b820191906000526020600020905b815481529060010190602001808311611b5957829003601f168201915b505050505090509250925092509193909250565b6000604051602001611b9b90612d58565b60405160208183030381529060405280519060200120600160003373ffffffffffffffffffffffffffffffffffffffff1673ffffffffffffffffffffffffffffffffffffffff168152602001908152602001600020604051602001611c009190612d41565b6040516020818303038152906040528051906020012014611c2057600080fd5b6060600a60003373ffffffffffffffffffffffffffffffffffffffff1673ffffffffffffffffffffffffffffffffffffffff168152602001908152602001600020805480602002602001604051908101604052809291908181526020018280548015611ce157602002820191906000526020600020905b8160009054906101000a900473ffffffffffffffffffffffffffffffffffffffff1673ffffffffffffffffffffffffffffffffffffffff1681526020019060010190808311611c97575b5050505050905060008151905060007fffffffffffffffffffffffffffffffffffffffffffffffffffffffffffffff86905060008090505b82811015611d79578573ffffffffffffffffffffffffffffffffffffffff16848281518110611d4457fe5b602002602001015173ffffffffffffffffffffffffffffffffffffffff161415611d6c578091505b8080600101915050611d19565b507fffffffffffffffffffffffffffffffffffffffffffffffffffffffffffffff868114611e1f576000819050600a60003373ffffffffffffffffffffffffffffffffffffffff1673ffffffffffffffffffffffffffffffffffffffff1681526020019081526020016000208181548110611df057fe5b9060005260206000200160006101000a81549073ffffffffffffffffffffffffffffffffffffffff0219169055505b60019350505050919050565b6000604051602001611e3c90612dac565b60405160208183030381529060405280519060200120600160003373ffffffffffffffffffffffffffffffffffffffff1673ffffffffffffffffffffffffffffffffffffffff168152602001908152602001600020604051602001611ea19190612d41565b6040516020818303038152906040528051906020012014611ec157600080fd5b604051602001611ed090612d97565b60405160208183030381529060405280519060200120600160008573ffffffffffffffffffffffffffffffffffffffff1673ffffffffffffffffffffffffffffffffffffffff168152602001908152602001600020604051602001611f359190612d41565b6040516020818303038152906040528051906020012014611f5557600080fd5b60011515611f638533611710565b151514611f6f57600080fd5b600860008473ffffffffffffffffffffffffffffffffffffffff1673ffffffffffffffffffffffffffffffffffffffff16815260200190815260200160002060405180604001604052808673ffffffffffffffffffffffffffffffffffffffff168152602001848152509080600181540180825580915050906001820390600052602060002090600202016000909192909190915060008201518160000160006101000a81548173ffffffffffffffffffffffffffffffffffffffff021916908373ffffffffffffffffffffffffffffffffffffffff160217905550602082015181600101908051906020019061206792919061253c565b50505050600190509392505050565b606060405160200161208790612d82565b60405160208183030381529060405280519060200120600160003373ffffffffffffffffffffffffffffffffffffffff1673ffffffffffffffffffffffffffffffffffffffff1681526020019081526020016000206040516020016120ec9190612d41565b604051602081830303815290604052805190602001201461210c57600080fd5b600960003373ffffffffffffffffffffffffffffffffffffffff1673ffffffffffffffffffffffffffffffffffffffff168152602001908152602001600020805480602002602001604051908101604052809291908181526020016000905b8282101561229f57838290600052602060002090600302016040518060600160405290816000820160009054906101000a900473ffffffffffffffffffffffffffffffffffffffff1673ffffffffffffffffffffffffffffffffffffffff1673ffffffffffffffffffffffffffffffffffffffff168152602001600182018054600181600116156101000203166002900480601f01602080910402602001604051908101604052809291908181526020018280546001816001161561010002031660029004801561227d5780601f106122525761010080835404028352916020019161227d565b820191906000526020600020905b81548152906001019060200180831161226057829003601f168201915b505050505081526020016002820154815250508152602001906001019061216b565b50505050905090565b60006040516020016122b990612d6d565b60405160208183030381529060405280519060200120600160003373ffffffffffffffffffffffffffffffffffffffff1673ffffffffffffffffffffffffffffffffffffffff16815260200190815260200160002060405160200161231e9190612d41565b604051602081830303815290604052805190602001201461233e57600080fd5b6040518060400160405280600781526020017f4368656d69737400000000000000000000000000000000000000000000000000815250600160003373ffffffffffffffffffffffffffffffffffffffff1673ffffffffffffffffffffffffffffffffffffffff16815260200190815260200160002090805190602001906123c692919061249b565b5081600660003373ffffffffffffffffffffffffffffffffffffffff1673ffffffffffffffffffffffffffffffffffffffff168152602001908152602001600020600001908051906020019061241d92919061249b565b507fecc3bdfcb393e93b309b9a8b9a0b2a27316c7a94eacc7c3b1a1735528af9507c3360405161244d9190612ded565b60405180910390a160019050919050565b600060fb4244604051602001612475929190612dc1565b6040516020818303038152906040528051906020012060001c8161249557fe5b06905090565b828054600181600116156101000203166002900490600052602060002090601f016020900481019282601f106124dc57805160ff191683800117855561250a565b8280016001018555821561250a579182015b828111156125095782518255916020019190600101906124ee565b5b509050612517919061261c565b5090565b60405180606001604052806060815260200160608152602001606081525090565b828054600181600116156101000203166002900490600052602060002090601f016020900481019282601f1061257d57805160ff19168380011785556125ab565b828001600101855582156125ab579182015b828111156125aa57825182559160200191906001019061258f565b5b5090506125b8919061261c565b5090565b8280548282559060005260206000209081019282156125f8579160200282015b828111156125f75782518255916020019190600101906125dc565b5b509050612605919061261c565b5090565b6040518060200160405280606081525090565b61263e91905b8082111561263a576000816000905550600101612622565b5090565b90565b60008135905061265081613127565b92915050565b600082601f83011261266757600080fd5b813561267a61267582612f1d565b612ef0565b9150808252602083016020830185838301111561269657600080fd5b6126a18382846130ca565b50505092915050565b6000813590506126b98161313e565b92915050565b6000602082840312156126d157600080fd5b60006126df84828501612641565b91505092915050565b600080604083850312156126fb57600080fd5b600061270985828601612641565b925050602061271a85828601612641565b9150509250929050565b60008060006060848603121561273957600080fd5b600061274786828701612641565b935050602061275886828701612641565b925050604084013567ffffffffffffffff81111561277557600080fd5b61278186828701612656565b9150509250925092565b6000806040838503121561279e57600080fd5b60006127ac85828601612641565b925050602083013567ffffffffffffffff8111156127c957600080fd5b6127d585828601612656565b9150509250929050565b6000806000606084860312156127f457600080fd5b600061280286828701612641565b935050602084013567ffffffffffffffff81111561281f57600080fd5b61282b86828701612656565b925050604061283c868287016126aa565b9150509250925092565b60006020828403121561285857600080fd5b600082013567ffffffffffffffff81111561287257600080fd5b61287e84828501612656565b91505092915050565b60006020828403121561289957600080fd5b60006128a7848285016126aa565b91505092915050565b60006128bc8383612c7f565b905092915050565b60006128d08383612ccf565b905092915050565b60006128e48383612d0c565b60208301905092915050565b6128f981613094565b82525050565b6129088161304c565b82525050565b600061291982612f8e565b6129238185612fec565b93508360208202850161293585612f49565b8060005b85811015612971578484038952815161295285826128b0565b945061295d83612fc5565b925060208a01995050600181019050612939565b50829750879550505050505092915050565b600061298e82612f99565b6129988185612ffd565b9350836020820285016129aa85612f59565b8060005b858110156129e657848403895281516129c785826128c4565b94506129d283612fd2565b925060208a019950506001810190506129ae565b50829750879550505050505092915050565b6000612a0382612fa4565b612a0d818561300e565b9350612a1883612f69565b8060005b83811015612a49578151612a3088826128d8565b9750612a3b83612fdf565b925050600181019050612a1c565b5085935050505092915050565b612a5f8161305e565b82525050565b6000612a7082612fba565b612a7a8185613030565b9350612a8a8185602086016130d9565b612a9381613116565b840191505092915050565b6000612aa982612faf565b612ab3818561301f565b9350612ac38185602086016130d9565b612acc81613116565b840191505092915050565b600081546001811660008114612af45760018114612b1957612b5d565b607f6002830416612b058187613041565b955060ff1983168652808601935050612b5d565b60028204612b278187613041565b9550612b3285612f79565b60005b82811015612b5457815481890152600182019150602081019050612b35565b82880195505050505b505092915050565b6000612b72600a83613041565b91507f496e73617572616e6365000000000000000000000000000000000000000000006000830152600a82019050919050565b6000612bb2600083613041565b9150600082019050919050565b6000612bcc600783613041565b91507f70617469656e74000000000000000000000000000000000000000000000000006000830152600782019050919050565b6000612c0c600783613041565b91507f4368656d697374000000000000000000000000000000000000000000000000006000830152600782019050919050565b6000612c4c600683613041565b91507f646f63746f7200000000000000000000000000000000000000000000000000006000830152600682019050919050565b6000606083016000830151612c9760008601826128ff565b5060208301518482036020860152612caf8282612a9e565b9150506040830151612cc46040860182612d0c565b508091505092915050565b6000604083016000830151612ce760008601826128ff565b5060208301518482036020860152612cff8282612a9e565b9150508091505092915050565b612d158161308a565b82525050565b612d248161308a565b82525050565b612d3b612d368261308a565b61310c565b82525050565b6000612d4d8284612ad7565b915081905092915050565b6000612d6382612b65565b9150819050919050565b6000612d7882612ba5565b9150819050919050565b6000612d8d82612bbf565b9150819050919050565b6000612da282612bff565b9150819050919050565b6000612db782612c3f565b9150819050919050565b6000612dcd8285612d2a565b602082019150612ddd8284612d2a565b6020820191508190509392505050565b6000602082019050612e0260008301846128f0565b92915050565b60006020820190508181036000830152612e22818461290e565b905092915050565b60006020820190508181036000830152612e448184612983565b905092915050565b6000602082019050612e616000830184612a56565b92915050565b60006020820190508181036000830152612e818184612a65565b905092915050565b60006060820190508181036000830152612ea38186612a65565b90508181036020830152612eb781856129f8565b90508181036040830152612ecb8184612a65565b9050949350505050565b6000602082019050612eea6000830184612d1b565b92915050565b6000604051905081810181811067ffffffffffffffff82111715612f1357600080fd5b8060405250919050565b600067ffffffffffffffff821115612f3457600080fd5b601f19601f8301169050602081019050919050565b6000819050602082019050919050565b6000819050602082019050919050565b6000819050602082019050919050565b60008190508160005260206000209050919050565b600081519050919050565b600081519050919050565b600081519050919050565b600081519050919050565b600081519050919050565b6000602082019050919050565b6000602082019050919050565b6000602082019050919050565b600082825260208201905092915050565b600082825260208201905092915050565b600082825260208201905092915050565b600082825260208201905092915050565b600082825260208201905092915050565b600081905092915050565b60006130578261306a565b9050919050565b60008115159050919050565b600073ffffffffffffffffffffffffffffffffffffffff82169050919050565b6000819050919050565b600061309f826130a6565b9050919050565b60006130b1826130b8565b9050919050565b60006130c38261306a565b9050919050565b82818337600083830152505050565b60005b838110156130f75780820151818401526020810190506130dc565b83811115613106576000848401525b50505050565b6000819050919050565b6000601f19601f8301169050919050565b6131308161304c565b811461313b57600080fd5b50565b6131478161308a565b811461315257600080fd5b5056fea365627a7a7231582012d532b6aa67061980141cc0f9da9460d2b578906d260b23dbb25f336ea303af6c6578706572696d656e74616cf564736f6c63430005100040",
  "source": "// SPDX-License-Identifier: GPL-3.0\r\n\r\npragma solidity >=0.5.16;\r\npragma experimental ABIEncoderV2;\r\ncontract Health {\r\n    //mappings\r\n    mapping(address => uint) authCaller;\r\n    mapping(address => string) userType;\r\n    mapping(address => patient) PData;\r\n    mapping(address=> address[]) patToDoctor;\r\n    mapping(address => doctor) DData;\r\n    mapping(address => insaurance) IData;\r\n    mapping(address => chemist) CData;\r\n    mapping(uint => treatment) treatmentDetails;\r\n    mapping(address => medicine[]) chemToMed;\r\n    mapping(address => bill[]) patToChemistBill;\r\n    mapping(address => address[]) insToPat;\r\n    //constructor\r\n    constructor() public{\r\n        authCaller[msg.sender] = 1;\r\n    }\r\n    \r\n    \r\n    //events\r\n     event DoctorAdded(address doctorAdd);\r\n     event ChemistAdded(address ChemistAdd);\r\n     event insAdded(address insAdd);\r\n     event treated(address indexed Did,address indexed Pid,uint tid);\r\n    //structs\r\n    struct bill{\r\n        address chemid;\r\n        string date;\r\n        uint amt;\r\n    }\r\n     struct patient{\r\n        string Phash; \r\n        uint [] treatmentId;\r\n        string precautions;\r\n\r\n    }\r\n    struct doctor{\r\n        string Dhash;\r\n    }\r\n    struct chemist{\r\n        string Chash;\r\n    }\r\n    struct insaurance{\r\n        string Ihash;\r\n    }\r\n     struct treatment {\r\n        string Thash;\r\n    }\r\n    struct medicine{\r\n        address pid;\r\n        string medicines;\r\n    }\r\n    //struct variable\r\n   \r\n    \r\n    //patient functions\r\n    \r\n    //make function to show all chemist bills\r\n    \r\n    function addPat(string memory _Phash) public returns(bool){\r\n        require(keccak256(abi.encodePacked(userType[msg.sender])) == keccak256(abi.encodePacked(\"\")));\r\n        patient memory pat;\r\n        pat.Phash = _Phash;\r\n        userType[msg.sender] = 'patient';\r\n        PData[msg.sender] = pat;\r\n        return true;\r\n    }\r\n    function getbills() public returns(bill[] memory){\r\n        require(keccak256(abi.encodePacked(userType[msg.sender])) == keccak256(abi.encodePacked(\"patient\")));\r\n        return patToChemistBill[msg.sender];\r\n    }\r\n    //return patient treatmentId and precautions as well\r\n    function getPatient(address _Padd) public returns(string memory,uint[] memory,string memory){\r\n        require(msg.sender == _Padd);\r\n        require(keccak256(abi.encodePacked(userType[msg.sender])) == keccak256(abi.encodePacked(\"patient\")));\r\n        \r\n        return (PData[msg.sender].Phash,PData[msg.sender].treatmentId,PData[msg.sender].precautions);\r\n    }\r\n    \r\n    function getDoctor(address _Dadd) public returns(string memory){\r\n        //need to complete\r\n         return DData[_Dadd].Dhash; \r\n    }\r\n    function getIns(address _Iadd) public returns(string memory){\r\n        //need to complete\r\n         return IData[_Iadd].Ihash; \r\n    }\r\n    \r\n    function grantAccess(address _Dadd) public returns(bool){\r\n        require(keccak256(abi.encodePacked(userType[msg.sender])) == keccak256(abi.encodePacked(\"patient\")));\r\n        patToDoctor[msg.sender].push(_Dadd);\r\n        return true;\r\n    }\r\n    //check give address is insaurance company is or not\r\n    function applyIns(address _Iadd) public returns(bool){\r\n         require(keccak256(abi.encodePacked(userType[msg.sender])) == keccak256(abi.encodePacked(\"patient\")));\r\n         require(keccak256(abi.encodePacked(userType[_Iadd])) == keccak256(abi.encodePacked(\"Insaurance\")));\r\n         insToPat[_Iadd].push(msg.sender);\r\n         return true;\r\n            \r\n    }\r\n     function isValid(address pat,address doctor) public returns(bool){\r\n        address[] memory temp = patToDoctor[pat];\r\n        uint len = temp.length;\r\n        for(uint i = 0;i<len;i++){\r\n            if(temp[i] == doctor)\r\n                return true;\r\n        }\r\n        return false;\r\n    }\r\n    \r\n    //getUser\r\n    function getUser(address _Uaddress) public returns(string memory){\r\n        return userType[_Uaddress];\r\n    }\r\n    \r\n    //Doctor \r\n    \r\n     function addDoc(string memory _Dhash) public returns(bool){\r\n        require(keccak256(abi.encodePacked(userType[msg.sender])) == keccak256(abi.encodePacked(\"\")));\r\n        userType[msg.sender] = 'doctor';\r\n        DData[msg.sender].Dhash = _Dhash;\r\n        emit DoctorAdded(msg.sender);\r\n        return true;\r\n    }\r\n    \r\n    function updatePrecautions(address _Padd,string memory _precautions) public returns(bool){\r\n        require(keccak256(abi.encodePacked(userType[msg.sender])) == keccak256(abi.encodePacked(\"doctor\")));\r\n        require(isValid(_Padd,msg.sender) == true);\r\n        PData[_Padd].precautions = _precautions;\r\n        return true;\r\n        \r\n    }\r\n   function random() private view returns (uint) {\r\n       return uint(uint256(keccak256(abi.encodePacked(block.timestamp, block.difficulty)))%251);\r\n   }\r\n    function treatPatient(address _Padd, string memory _Thash)\r\n    public returns(uint){\r\n        require(keccak256(abi.encodePacked(userType[msg.sender])) == keccak256(abi.encodePacked(\"doctor\")));\r\n        require(isValid(_Padd,msg.sender) == true);\r\n        uint _tid = random();\r\n        treatment memory trt;\r\n        trt.Thash = _Thash;\r\n        PData[_Padd].treatmentId.push(_tid);\r\n        treatmentDetails[_tid] = trt;\r\n        emit treated(msg.sender,_Padd,_tid);\r\n        return _tid;\r\n    }\r\n    //check if chemist is present   \r\n    function giveMedicines(address _pid,address _cadd,string memory _medicines) public returns(bool){\r\n        require(keccak256(abi.encodePacked(userType[msg.sender])) == keccak256(abi.encodePacked(\"doctor\")));\r\n        require(keccak256(abi.encodePacked(userType[_cadd])) == keccak256(abi.encodePacked(\"Chemist\")));\r\n        require(isValid(_pid,msg.sender) == true);\r\n        chemToMed[_cadd].push(medicine(_pid,_medicines));\r\n        return true;\r\n    }\r\n    function getTrtDetails(uint _tid) public returns(string memory){\r\n         return treatmentDetails[_tid].Thash;\r\n    }\r\n    \r\n    //chemist\r\n    \r\n    function addChemist(string memory Chash) public returns(bool){\r\n      require(keccak256(abi.encodePacked(userType[msg.sender])) == keccak256(abi.encodePacked(\"\")));\r\n      userType[msg.sender] = 'Chemist';\r\n        CData[msg.sender].Chash = Chash;\r\n        emit ChemistAdded(msg.sender);\r\n        return true;\r\n    }\r\n    function getMedicineDetails() public returns(medicine[] memory){\r\n        require(keccak256(abi.encodePacked(userType[msg.sender])) == keccak256(abi.encodePacked(\"Chemist\")));\r\n        return chemToMed[msg.sender];\r\n    }\r\n    function sellMedicines(address _pid,string memory _date,uint _amt) public returns(bool){\r\n        require(keccak256(abi.encodePacked(userType[msg.sender])) == keccak256(abi.encodePacked(\"Chemist\")));\r\n        \r\n        patToChemistBill[_pid].push(bill(msg.sender,_date,_amt));\r\n        return true;\r\n    }\r\n    \r\n   //insaurance\r\n   \r\n   function addInsCompany(string memory Ihash) public returns(bool){\r\n       require(keccak256(abi.encodePacked(userType[msg.sender])) == keccak256(abi.encodePacked(\"\")));\r\n        userType[msg.sender] = 'Insaurance';\r\n        IData[msg.sender].Ihash = Ihash;\r\n        emit insAdded(msg.sender);\r\n        return true;\r\n   }\r\n    function approveInsurance(address patId) public returns(bool){\r\n        require(keccak256(abi.encodePacked(userType[msg.sender])) == keccak256(abi.encodePacked(\"Insaurance\")));\r\n        address[] memory arr = insToPat[msg.sender];\r\n        uint len = arr.length;\r\n        int j = -122;\r\n        for(uint i = 0 ; i < len ; i++ ){\r\n            if(arr[i] == patId){\r\n             j=int (i);   \r\n            }\r\n        }\r\n        if(j != -122){\r\n            uint i = uint (j);\r\n            delete insToPat[msg.sender][i];\r\n        }\r\n        return true;\r\n    }\r\n    \r\n}",
  "sourcePath": "E:\\react\\HealthCare\\Backend\\contracts\\Health.sol",
  "compiler": {
    "name": "solc",
    "version": "0.5.16+commit.9c3226ce.Emscripten.clang"
  },
  "schemaVersion": "3.2.0",
  "updatedAt": "2021-01-06T09:48:31.422Z",
  "networkType": "ethereum",
  "devdoc": {
    "methods": {}
  },
  "userdoc": {
    "methods": {}
  }
}