{
  "contractName": "Storage",
  "abi": [
    {
      "inputs": [],
      "payable": false,
      "stateMutability": "nonpayable",
      "type": "constructor"
    },
    {
      "anonymous": false,
      "inputs": [
        {
          "indexed": false,
          "internalType": "address",
          "name": "ChemistAdd",
          "type": "address"
        }
      ],
      "name": "ChemistAdded",
      "type": "event"
    },
    {
      "anonymous": false,
      "inputs": [
        {
          "indexed": false,
          "internalType": "address",
          "name": "doctorAdd",
          "type": "address"
        }
      ],
      "name": "DoctorAdded",
      "type": "event"
    },
    {
      "anonymous": false,
      "inputs": [
        {
          "indexed": false,
          "internalType": "address",
          "name": "insAdd",
          "type": "address"
        }
      ],
      "name": "insAdded",
      "type": "event"
    },
    {
      "anonymous": false,
      "inputs": [
        {
          "indexed": true,
          "internalType": "address",
          "name": "Did",
          "type": "address"
        },
        {
          "indexed": true,
          "internalType": "address",
          "name": "Pid",
          "type": "address"
        },
        {
          "indexed": false,
          "internalType": "uint256",
          "name": "tid",
          "type": "uint256"
        }
      ],
      "name": "treated",
      "type": "event"
    },
    {
      "constant": false,
      "inputs": [
        {
          "internalType": "string",
          "name": "_Phash",
          "type": "string"
        }
      ],
      "name": "addPat",
      "outputs": [
        {
          "internalType": "bool",
          "name": "",
          "type": "bool"
        }
      ],
      "payable": false,
      "stateMutability": "nonpayable",
      "type": "function"
    },
    {
      "constant": false,
      "inputs": [],
      "name": "getbills",
      "outputs": [
        {
          "components": [
            {
              "internalType": "address",
              "name": "chemid",
              "type": "address"
            },
            {
              "internalType": "string",
              "name": "date",
              "type": "string"
            },
            {
              "internalType": "uint256",
              "name": "amt",
              "type": "uint256"
            }
          ],
          "internalType": "struct Storage.bill[]",
          "name": "",
          "type": "tuple[]"
        }
      ],
      "payable": false,
      "stateMutability": "nonpayable",
      "type": "function"
    },
    {
      "constant": false,
      "inputs": [
        {
          "internalType": "address",
          "name": "_Padd",
          "type": "address"
        }
      ],
      "name": "getPatient",
      "outputs": [
        {
          "internalType": "string",
          "name": "",
          "type": "string"
        },
        {
          "internalType": "uint256[]",
          "name": "",
          "type": "uint256[]"
        },
        {
          "internalType": "string",
          "name": "",
          "type": "string"
        }
      ],
      "payable": false,
      "stateMutability": "nonpayable",
      "type": "function"
    },
    {
      "constant": false,
      "inputs": [
        {
          "internalType": "address",
          "name": "_Dadd",
          "type": "address"
        }
      ],
      "name": "getDoctor",
      "outputs": [
        {
          "internalType": "string",
          "name": "",
          "type": "string"
        }
      ],
      "payable": false,
      "stateMutability": "nonpayable",
      "type": "function"
    },
    {
      "constant": false,
      "inputs": [
        {
          "internalType": "address",
          "name": "_Iadd",
          "type": "address"
        }
      ],
      "name": "getIns",
      "outputs": [
        {
          "internalType": "string",
          "name": "",
          "type": "string"
        }
      ],
      "payable": false,
      "stateMutability": "nonpayable",
      "type": "function"
    },
    {
      "constant": false,
      "inputs": [
        {
          "internalType": "address",
          "name": "_Dadd",
          "type": "address"
        }
      ],
      "name": "grantAccess",
      "outputs": [
        {
          "internalType": "bool",
          "name": "",
          "type": "bool"
        }
      ],
      "payable": false,
      "stateMutability": "nonpayable",
      "type": "function"
    },
    {
      "constant": false,
      "inputs": [
        {
          "internalType": "address",
          "name": "_Iadd",
          "type": "address"
        }
      ],
      "name": "applyIns",
      "outputs": [
        {
          "internalType": "bool",
          "name": "",
          "type": "bool"
        }
      ],
      "payable": false,
      "stateMutability": "nonpayable",
      "type": "function"
    },
    {
      "constant": false,
      "inputs": [
        {
          "internalType": "address",
          "name": "pat",
          "type": "address"
        },
        {
          "internalType": "address",
          "name": "doctor",
          "type": "address"
        }
      ],
      "name": "isValid",
      "outputs": [
        {
          "internalType": "bool",
          "name": "",
          "type": "bool"
        }
      ],
      "payable": false,
      "stateMutability": "nonpayable",
      "type": "function"
    },
    {
      "constant": false,
      "inputs": [
        {
          "internalType": "address",
          "name": "_Uaddress",
          "type": "address"
        }
      ],
      "name": "getUser",
      "outputs": [
        {
          "internalType": "string",
          "name": "",
          "type": "string"
        }
      ],
      "payable": false,
      "stateMutability": "nonpayable",
      "type": "function"
    },
    {
      "constant": false,
      "inputs": [
        {
          "internalType": "string",
          "name": "_Dhash",
          "type": "string"
        }
      ],
      "name": "addDoc",
      "outputs": [
        {
          "internalType": "bool",
          "name": "",
          "type": "bool"
        }
      ],
      "payable": false,
      "stateMutability": "nonpayable",
      "type": "function"
    },
    {
      "constant": false,
      "inputs": [
        {
          "internalType": "address",
          "name": "_Padd",
          "type": "address"
        },
        {
          "internalType": "string",
          "name": "_precautions",
          "type": "string"
        }
      ],
      "name": "updatePrecautions",
      "outputs": [
        {
          "internalType": "bool",
          "name": "",
          "type": "bool"
        }
      ],
      "payable": false,
      "stateMutability": "nonpayable",
      "type": "function"
    },
    {
      "constant": false,
      "inputs": [
        {
          "internalType": "address",
          "name": "_Padd",
          "type": "address"
        },
        {
          "internalType": "string",
          "name": "_Thash",
          "type": "string"
        }
      ],
      "name": "treatPatient",
      "outputs": [
        {
          "internalType": "uint256",
          "name": "",
          "type": "uint256"
        }
      ],
      "payable": false,
      "stateMutability": "nonpayable",
      "type": "function"
    },
    {
      "constant": false,
      "inputs": [
        {
          "internalType": "address",
          "name": "_pid",
          "type": "address"
        },
        {
          "internalType": "address",
          "name": "_cadd",
          "type": "address"
        },
        {
          "internalType": "string",
          "name": "_medicines",
          "type": "string"
        }
      ],
      "name": "giveMedicines",
      "outputs": [
        {
          "internalType": "bool",
          "name": "",
          "type": "bool"
        }
      ],
      "payable": false,
      "stateMutability": "nonpayable",
      "type": "function"
    },
    {
      "constant": false,
      "inputs": [
        {
          "internalType": "uint256",
          "name": "_tid",
          "type": "uint256"
        }
      ],
      "name": "getTrtDetails",
      "outputs": [
        {
          "components": [
            {
              "internalType": "string",
              "name": "Thash",
              "type": "string"
            }
          ],
          "internalType": "struct Storage.treatment",
          "name": "trt",
          "type": "tuple"
        }
      ],
      "payable": false,
      "stateMutability": "nonpayable",
      "type": "function"
    },
    {
      "constant": false,
      "inputs": [
        {
          "internalType": "string",
          "name": "Chash",
          "type": "string"
        }
      ],
      "name": "addChemist",
      "outputs": [
        {
          "internalType": "bool",
          "name": "",
          "type": "bool"
        }
      ],
      "payable": false,
      "stateMutability": "nonpayable",
      "type": "function"
    },
    {
      "constant": false,
      "inputs": [],
      "name": "getMedicineDetails",
      "outputs": [
        {
          "components": [
            {
              "internalType": "address",
              "name": "pid",
              "type": "address"
            },
            {
              "internalType": "string",
              "name": "medicines",
              "type": "string"
            }
          ],
          "internalType": "struct Storage.medicine[]",
          "name": "",
          "type": "tuple[]"
        }
      ],
      "payable": false,
      "stateMutability": "nonpayable",
      "type": "function"
    },
    {
      "constant": false,
      "inputs": [
        {
          "internalType": "address",
          "name": "_pid",
          "type": "address"
        },
        {
          "internalType": "string",
          "name": "_date",
          "type": "string"
        },
        {
          "internalType": "uint256",
          "name": "_amt",
          "type": "uint256"
        }
      ],
      "name": "sellMedicines",
      "outputs": [
        {
          "internalType": "bool",
          "name": "",
          "type": "bool"
        }
      ],
      "payable": false,
      "stateMutability": "nonpayable",
      "type": "function"
    },
    {
      "constant": false,
      "inputs": [
        {
          "internalType": "string",
          "name": "Ihash",
          "type": "string"
        }
      ],
      "name": "addInsCompany",
      "outputs": [
        {
          "internalType": "bool",
          "name": "",
          "type": "bool"
        }
      ],
      "payable": false,
      "stateMutability": "nonpayable",
      "type": "function"
    },
    {
      "constant": false,
      "inputs": [
        {
          "internalType": "address",
          "name": "patId",
          "type": "address"
        }
      ],
      "name": "approveInsurance",
      "outputs": [
        {
          "internalType": "bool",
          "name": "",
          "type": "bool"
        }
      ],
      "payable": false,
      "stateMutability": "nonpayable",
      "type": "function"
    }
  ],
  "bytecode": "0x608060405234801561001057600080fd5b5060016000803373ffffffffffffffffffffffffffffffffffffffff1673ffffffffffffffffffffffffffffffffffffffff1681526020019081526020016000208190555061328f806100646000396000f3fe608060405234801561001057600080fd5b50600436106101215760003560e01c806386332ccf116100ad578063b5368e2011610071578063b5368e20146103b4578063c1a92c28146103e6578063d808006614610416578063e9e4739314610446578063fa8369521461046457610121565b806386332ccf146102c45780639fa99412146102f4578063a2e421a014610324578063a708005914610354578063af874a761461038457610121565b80632f04e064116100f45780632f04e064146101d457806365ad4ca6146102045780636659cbc3146102345780636f77926b146102645780638537b3751461029457610121565b80630ae5e739146101265780630e7aa5e5146101565780631dd9f50b1461018657806320bacfbd146101a4575b600080fd5b610140600480360361013b919081019061276a565b610494565b60405161014d9190612f21565b60405180910390f35b610170600480360361016b919081019061276a565b6105d6565b60405161017d9190612f21565b60405180910390f35b61018e6107ac565b60405161019b9190612eff565b60405180910390f35b6101be60048036036101b991908101906128f1565b6109d4565b6040516101cb9190612f21565b60405180910390f35b6101ee60048036036101e9919081019061276a565b610b8a565b6040516101fb9190612f3c565b60405180910390f35b61021e60048036036102199190810190612836565b610c6e565b60405161022b9190612f21565b60405180910390f35b61024e6004803603610249919081019061276a565b610d7f565b60405161025b9190612f3c565b60405180910390f35b61027e6004803603610279919081019061276a565b610e63565b60405161028b9190612f3c565b60405180910390f35b6102ae60048036036102a991908101906128f1565b610f44565b6040516102bb9190612f21565b60405180910390f35b6102de60048036036102d99190810190612836565b611118565b6040516102eb9190612fcc565b60405180910390f35b61030e600480360361030991908101906128f1565b6112f5565b60405161031b9190612f21565b60405180910390f35b61033e60048036036103399190810190612932565b6114ab565b60405161034b9190612faa565b60405180910390f35b61036e6004803603610369919081019061288a565b61160e565b60405161037b9190612f21565b60405180910390f35b61039e60048036036103999190810190612793565b6117bb565b6040516103ab9190612f21565b60405180910390f35b6103ce60048036036103c9919081019061276a565b611907565b6040516103dd93929190612f5e565b60405180910390f35b61040060048036036103fb919081019061276a565b611c35565b60405161040d9190612f21565b60405180910390f35b610430600480360361042b91908101906127cf565b611ed6565b60405161043d9190612f21565b60405180910390f35b61044e612121565b60405161045b9190612edd565b60405180910390f35b61047e600480360361047991908101906128f1565b612353565b60405161048b9190612f21565b60405180910390f35b60006040516020016104a590612e57565b60405160208183030381529060405280519060200120600160003373ffffffffffffffffffffffffffffffffffffffff1673ffffffffffffffffffffffffffffffffffffffff16815260200190815260200160002060405160200161050a9190612e16565b604051602081830303815290604052805190602001201461052a57600080fd5b600360003373ffffffffffffffffffffffffffffffffffffffff1673ffffffffffffffffffffffffffffffffffffffff1681526020019081526020016000208290806001815401808255809150509060018203906000526020600020016000909192909190916101000a81548173ffffffffffffffffffffffffffffffffffffffff021916908373ffffffffffffffffffffffffffffffffffffffff1602179055505060019050919050565b60006040516020016105e790612e57565b60405160208183030381529060405280519060200120600160003373ffffffffffffffffffffffffffffffffffffffff1673ffffffffffffffffffffffffffffffffffffffff16815260200190815260200160002060405160200161064c9190612e16565b604051602081830303815290604052805190602001201461066c57600080fd5b60405160200161067b90612e2d565b60405160208183030381529060405280519060200120600160008473ffffffffffffffffffffffffffffffffffffffff1673ffffffffffffffffffffffffffffffffffffffff1681526020019081526020016000206040516020016106e09190612e16565b604051602081830303815290604052805190602001201461070057600080fd5b600a60008373ffffffffffffffffffffffffffffffffffffffff1673ffffffffffffffffffffffffffffffffffffffff1681526020019081526020016000203390806001815401808255809150509060018203906000526020600020016000909192909190916101000a81548173ffffffffffffffffffffffffffffffffffffffff021916908373ffffffffffffffffffffffffffffffffffffffff1602179055505060019050919050565b60606040516020016107bd90612e6c565b60405160208183030381529060405280519060200120600160003373ffffffffffffffffffffffffffffffffffffffff1673ffffffffffffffffffffffffffffffffffffffff1681526020019081526020016000206040516020016108229190612e16565b604051602081830303815290604052805190602001201461084257600080fd5b600860003373ffffffffffffffffffffffffffffffffffffffff1673ffffffffffffffffffffffffffffffffffffffff168152602001908152602001600020805480602002602001604051908101604052809291908181526020016000905b828210156109cb57838290600052602060002090600202016040518060400160405290816000820160009054906101000a900473ffffffffffffffffffffffffffffffffffffffff1673ffffffffffffffffffffffffffffffffffffffff1673ffffffffffffffffffffffffffffffffffffffff168152602001600182018054600181600116156101000203166002900480601f0160208091040260200160405190810160405280929190818152602001828054600181600116156101000203166002900480156109b35780601f10610988576101008083540402835291602001916109b3565b820191906000526020600020905b81548152906001019060200180831161099657829003601f168201915b505050505081525050815260200190600101906108a1565b50505050905090565b60006040516020016109e590612e42565b60405160208183030381529060405280519060200120600160003373ffffffffffffffffffffffffffffffffffffffff1673ffffffffffffffffffffffffffffffffffffffff168152602001908152602001600020604051602001610a4a9190612e16565b6040516020818303038152906040528051906020012014610a6a57600080fd5b6040518060400160405280600681526020017f646f63746f720000000000000000000000000000000000000000000000000000815250600160003373ffffffffffffffffffffffffffffffffffffffff1673ffffffffffffffffffffffffffffffffffffffff1681526020019081526020016000209080519060200190610af2929190612546565b5081600460003373ffffffffffffffffffffffffffffffffffffffff1673ffffffffffffffffffffffffffffffffffffffff1681526020019081526020016000206000019080519060200190610b49929190612546565b507f69908b2e63170aa89ef89719bbe3b4c92cccc38653968ab25f4464eff7c28ac833604051610b799190612ec2565b60405180910390a160019050919050565b6060600460008373ffffffffffffffffffffffffffffffffffffffff1673ffffffffffffffffffffffffffffffffffffffff1681526020019081526020016000206000018054600181600116156101000203166002900480601f016020809104026020016040519081016040528092919081815260200182805460018160011615610100020316600290048015610c625780601f10610c3757610100808354040283529160200191610c62565b820191906000526020600020905b815481529060010190602001808311610c4557829003601f168201915b50505050509050919050565b6000604051602001610c7f90612e81565b60405160208183030381529060405280519060200120600160003373ffffffffffffffffffffffffffffffffffffffff1673ffffffffffffffffffffffffffffffffffffffff168152602001908152602001600020604051602001610ce49190612e16565b6040516020818303038152906040528051906020012014610d0457600080fd5b60011515610d1284336117bb565b151514610d1e57600080fd5b81600260008573ffffffffffffffffffffffffffffffffffffffff1673ffffffffffffffffffffffffffffffffffffffff1681526020019081526020016000206002019080519060200190610d74929190612546565b506001905092915050565b6060600560008373ffffffffffffffffffffffffffffffffffffffff1673ffffffffffffffffffffffffffffffffffffffff1681526020019081526020016000206000018054600181600116156101000203166002900480601f016020809104026020016040519081016040528092919081815260200182805460018160011615610100020316600290048015610e575780601f10610e2c57610100808354040283529160200191610e57565b820191906000526020600020905b815481529060010190602001808311610e3a57829003601f168201915b50505050509050919050565b6060600160008373ffffffffffffffffffffffffffffffffffffffff1673ffffffffffffffffffffffffffffffffffffffff1681526020019081526020016000208054600181600116156101000203166002900480601f016020809104026020016040519081016040528092919081815260200182805460018160011615610100020316600290048015610f385780601f10610f0d57610100808354040283529160200191610f38565b820191906000526020600020905b815481529060010190602001808311610f1b57829003601f168201915b50505050509050919050565b6000604051602001610f5590612e42565b60405160208183030381529060405280519060200120600160003373ffffffffffffffffffffffffffffffffffffffff1673ffffffffffffffffffffffffffffffffffffffff168152602001908152602001600020604051602001610fba9190612e16565b6040516020818303038152906040528051906020012014610fda57600080fd5b610fe26125c6565b8281600001819052506040518060400160405280600781526020017f70617469656e7400000000000000000000000000000000000000000000000000815250600160003373ffffffffffffffffffffffffffffffffffffffff1673ffffffffffffffffffffffffffffffffffffffff1681526020019081526020016000209080519060200190611073929190612546565b5080600260003373ffffffffffffffffffffffffffffffffffffffff1673ffffffffffffffffffffffffffffffffffffffff16815260200190815260200160002060008201518160000190805190602001906110d09291906125e7565b5060208201518160010190805190602001906110ed929190612667565b50604082015181600201908051906020019061110a9291906125e7565b509050506001915050919050565b600060405160200161112990612e81565b60405160208183030381529060405280519060200120600160003373ffffffffffffffffffffffffffffffffffffffff1673ffffffffffffffffffffffffffffffffffffffff16815260200190815260200160002060405160200161118e9190612e16565b60405160208183030381529060405280519060200120146111ae57600080fd5b600115156111bc84336117bb565b1515146111c857600080fd5b60006111d2612509565b90506111dc6126b4565b838160000181905250600260008673ffffffffffffffffffffffffffffffffffffffff1673ffffffffffffffffffffffffffffffffffffffff168152602001908152602001600020600101829080600181540180825580915050906001820390600052602060002001600090919290919091505550806007600084815260200190815260200160002060008201518160000190805190602001906112819291906125e7565b509050508473ffffffffffffffffffffffffffffffffffffffff163373ffffffffffffffffffffffffffffffffffffffff167fb100fd3e4cab57d0dd8d6f2139052978f6fbd675908475500a05f57c2fd3fd32846040516112e29190612fcc565b60405180910390a3819250505092915050565b600060405160200161130690612e42565b60405160208183030381529060405280519060200120600160003373ffffffffffffffffffffffffffffffffffffffff1673ffffffffffffffffffffffffffffffffffffffff16815260200190815260200160002060405160200161136b9190612e16565b604051602081830303815290604052805190602001201461138b57600080fd5b6040518060400160405280600a81526020017f496e73617572616e636500000000000000000000000000000000000000000000815250600160003373ffffffffffffffffffffffffffffffffffffffff1673ffffffffffffffffffffffffffffffffffffffff1681526020019081526020016000209080519060200190611413929190612546565b5081600560003373ffffffffffffffffffffffffffffffffffffffff1673ffffffffffffffffffffffffffffffffffffffff168152602001908152602001600020600001908051906020019061146a929190612546565b507fceecea79e4e48c1f16ba1294443d282cd050a264663c4a0d10156221c9fd88a13360405161149a9190612ec2565b60405180910390a160019050919050565b6114b36126b4565b6040516020016114c290612e81565b60405160208183030381529060405280519060200120600160003373ffffffffffffffffffffffffffffffffffffffff1673ffffffffffffffffffffffffffffffffffffffff1681526020019081526020016000206040516020016115279190612e16565b604051602081830303815290604052805190602001201461154757600080fd5b60076000838152602001908152602001600020604051806020016040529081600082018054600181600116156101000203166002900480601f0160208091040260200160405190810160405280929190818152602001828054600181600116156101000203166002900480156115fe5780601f106115d3576101008083540402835291602001916115fe565b820191906000526020600020905b8154815290600101906020018083116115e157829003601f168201915b5050505050815250509050919050565b600060405160200161161f90612e6c565b60405160208183030381529060405280519060200120600160003373ffffffffffffffffffffffffffffffffffffffff1673ffffffffffffffffffffffffffffffffffffffff1681526020019081526020016000206040516020016116849190612e16565b60405160208183030381529060405280519060200120146116a457600080fd5b600960008573ffffffffffffffffffffffffffffffffffffffff1673ffffffffffffffffffffffffffffffffffffffff16815260200190815260200160002060405180606001604052803373ffffffffffffffffffffffffffffffffffffffff168152602001858152602001848152509080600181540180825580915050906001820390600052602060002090600302016000909192909190915060008201518160000160006101000a81548173ffffffffffffffffffffffffffffffffffffffff021916908373ffffffffffffffffffffffffffffffffffffffff16021790555060208201518160010190805190602001906117a29291906125e7565b5060408201518160020155505050600190509392505050565b60006060600360008573ffffffffffffffffffffffffffffffffffffffff1673ffffffffffffffffffffffffffffffffffffffff16815260200190815260200160002080548060200260200160405190810160405280929190818152602001828054801561187e57602002820191906000526020600020905b8160009054906101000a900473ffffffffffffffffffffffffffffffffffffffff1673ffffffffffffffffffffffffffffffffffffffff1681526020019060010190808311611834575b5050505050905060008151905060008090505b818110156118f9578473ffffffffffffffffffffffffffffffffffffffff168382815181106118bc57fe5b602002602001015173ffffffffffffffffffffffffffffffffffffffff1614156118ec5760019350505050611901565b8080600101915050611891565b506000925050505b92915050565b60608060608373ffffffffffffffffffffffffffffffffffffffff163373ffffffffffffffffffffffffffffffffffffffff161461194457600080fd5b60405160200161195390612e57565b60405160208183030381529060405280519060200120600160003373ffffffffffffffffffffffffffffffffffffffff1673ffffffffffffffffffffffffffffffffffffffff1681526020019081526020016000206040516020016119b89190612e16565b60405160208183030381529060405280519060200120146119d857600080fd5b600260003373ffffffffffffffffffffffffffffffffffffffff1673ffffffffffffffffffffffffffffffffffffffff168152602001908152602001600020600001600260003373ffffffffffffffffffffffffffffffffffffffff1673ffffffffffffffffffffffffffffffffffffffff168152602001908152602001600020600101600260003373ffffffffffffffffffffffffffffffffffffffff1673ffffffffffffffffffffffffffffffffffffffff168152602001908152602001600020600201828054600181600116156101000203166002900480601f016020809104026020016040519081016040528092919081815260200182805460018160011615610100020316600290048015611b335780601f10611b0857610100808354040283529160200191611b33565b820191906000526020600020905b815481529060010190602001808311611b1657829003601f168201915b5050505050925081805480602002602001604051908101604052809291908181526020018280548015611b8557602002820191906000526020600020905b815481526020019060010190808311611b71575b50505050509150808054600181600116156101000203166002900480601f016020809104026020016040519081016040528092919081815260200182805460018160011615610100020316600290048015611c215780601f10611bf657610100808354040283529160200191611c21565b820191906000526020600020905b815481529060010190602001808311611c0457829003601f168201915b505050505090509250925092509193909250565b6000604051602001611c4690612e2d565b60405160208183030381529060405280519060200120600160003373ffffffffffffffffffffffffffffffffffffffff1673ffffffffffffffffffffffffffffffffffffffff168152602001908152602001600020604051602001611cab9190612e16565b6040516020818303038152906040528051906020012014611ccb57600080fd5b6060600a60003373ffffffffffffffffffffffffffffffffffffffff1673ffffffffffffffffffffffffffffffffffffffff168152602001908152602001600020805480602002602001604051908101604052809291908181526020018280548015611d8c57602002820191906000526020600020905b8160009054906101000a900473ffffffffffffffffffffffffffffffffffffffff1673ffffffffffffffffffffffffffffffffffffffff1681526020019060010190808311611d42575b5050505050905060008151905060007fffffffffffffffffffffffffffffffffffffffffffffffffffffffffffffff86905060008090505b82811015611e24578573ffffffffffffffffffffffffffffffffffffffff16848281518110611def57fe5b602002602001015173ffffffffffffffffffffffffffffffffffffffff161415611e17578091505b8080600101915050611dc4565b507fffffffffffffffffffffffffffffffffffffffffffffffffffffffffffffff868114611eca576000819050600a60003373ffffffffffffffffffffffffffffffffffffffff1673ffffffffffffffffffffffffffffffffffffffff1681526020019081526020016000208181548110611e9b57fe5b9060005260206000200160006101000a81549073ffffffffffffffffffffffffffffffffffffffff0219169055505b60019350505050919050565b6000604051602001611ee790612e81565b60405160208183030381529060405280519060200120600160003373ffffffffffffffffffffffffffffffffffffffff1673ffffffffffffffffffffffffffffffffffffffff168152602001908152602001600020604051602001611f4c9190612e16565b6040516020818303038152906040528051906020012014611f6c57600080fd5b604051602001611f7b90612e6c565b60405160208183030381529060405280519060200120600160008573ffffffffffffffffffffffffffffffffffffffff1673ffffffffffffffffffffffffffffffffffffffff168152602001908152602001600020604051602001611fe09190612e16565b604051602081830303815290604052805190602001201461200057600080fd5b6001151561200e85336117bb565b15151461201a57600080fd5b600860008473ffffffffffffffffffffffffffffffffffffffff1673ffffffffffffffffffffffffffffffffffffffff16815260200190815260200160002060405180604001604052808673ffffffffffffffffffffffffffffffffffffffff168152602001848152509080600181540180825580915050906001820390600052602060002090600202016000909192909190915060008201518160000160006101000a81548173ffffffffffffffffffffffffffffffffffffffff021916908373ffffffffffffffffffffffffffffffffffffffff16021790555060208201518160010190805190602001906121129291906125e7565b50505050600190509392505050565b606060405160200161213290612e57565b60405160208183030381529060405280519060200120600160003373ffffffffffffffffffffffffffffffffffffffff1673ffffffffffffffffffffffffffffffffffffffff1681526020019081526020016000206040516020016121979190612e16565b60405160208183030381529060405280519060200120146121b757600080fd5b600960003373ffffffffffffffffffffffffffffffffffffffff1673ffffffffffffffffffffffffffffffffffffffff168152602001908152602001600020805480602002602001604051908101604052809291908181526020016000905b8282101561234a57838290600052602060002090600302016040518060600160405290816000820160009054906101000a900473ffffffffffffffffffffffffffffffffffffffff1673ffffffffffffffffffffffffffffffffffffffff1673ffffffffffffffffffffffffffffffffffffffff168152602001600182018054600181600116156101000203166002900480601f0160208091040260200160405190810160405280929190818152602001828054600181600116156101000203166002900480156123285780601f106122fd57610100808354040283529160200191612328565b820191906000526020600020905b81548152906001019060200180831161230b57829003601f168201915b5050505050815260200160028201548152505081526020019060010190612216565b50505050905090565b600060405160200161236490612e42565b60405160208183030381529060405280519060200120600160003373ffffffffffffffffffffffffffffffffffffffff1673ffffffffffffffffffffffffffffffffffffffff1681526020019081526020016000206040516020016123c99190612e16565b60405160208183030381529060405280519060200120146123e957600080fd5b6040518060400160405280600781526020017f4368656d69737400000000000000000000000000000000000000000000000000815250600160003373ffffffffffffffffffffffffffffffffffffffff1673ffffffffffffffffffffffffffffffffffffffff1681526020019081526020016000209080519060200190612471929190612546565b5081600660003373ffffffffffffffffffffffffffffffffffffffff1673ffffffffffffffffffffffffffffffffffffffff16815260200190815260200160002060000190805190602001906124c8929190612546565b507fecc3bdfcb393e93b309b9a8b9a0b2a27316c7a94eacc7c3b1a1735528af9507c336040516124f89190612ec2565b60405180910390a160019050919050565b600060fb4244604051602001612520929190612e96565b6040516020818303038152906040528051906020012060001c8161254057fe5b06905090565b828054600181600116156101000203166002900490600052602060002090601f016020900481019282601f1061258757805160ff19168380011785556125b5565b828001600101855582156125b5579182015b828111156125b4578251825591602001919060010190612599565b5b5090506125c291906126c7565b5090565b60405180606001604052806060815260200160608152602001606081525090565b828054600181600116156101000203166002900490600052602060002090601f016020900481019282601f1061262857805160ff1916838001178555612656565b82800160010185558215612656579182015b8281111561265557825182559160200191906001019061263a565b5b50905061266391906126c7565b5090565b8280548282559060005260206000209081019282156126a3579160200282015b828111156126a2578251825591602001919060010190612687565b5b5090506126b091906126c7565b5090565b6040518060200160405280606081525090565b6126e991905b808211156126e55760008160009055506001016126cd565b5090565b90565b6000813590506126fb8161321e565b92915050565b600082601f83011261271257600080fd5b813561272561272082613014565b612fe7565b9150808252602083016020830185838301111561274157600080fd5b61274c8382846131c1565b50505092915050565b60008135905061276481613235565b92915050565b60006020828403121561277c57600080fd5b600061278a848285016126ec565b91505092915050565b600080604083850312156127a657600080fd5b60006127b4858286016126ec565b92505060206127c5858286016126ec565b9150509250929050565b6000806000606084860312156127e457600080fd5b60006127f2868287016126ec565b9350506020612803868287016126ec565b925050604084013567ffffffffffffffff81111561282057600080fd5b61282c86828701612701565b9150509250925092565b6000806040838503121561284957600080fd5b6000612857858286016126ec565b925050602083013567ffffffffffffffff81111561287457600080fd5b61288085828601612701565b9150509250929050565b60008060006060848603121561289f57600080fd5b60006128ad868287016126ec565b935050602084013567ffffffffffffffff8111156128ca57600080fd5b6128d686828701612701565b92505060406128e786828701612755565b9150509250925092565b60006020828403121561290357600080fd5b600082013567ffffffffffffffff81111561291d57600080fd5b61292984828501612701565b91505092915050565b60006020828403121561294457600080fd5b600061295284828501612755565b91505092915050565b60006129678383612d2a565b905092915050565b600061297b8383612d7a565b905092915050565b600061298f8383612de1565b60208301905092915050565b6129a48161318b565b82525050565b6129b381613143565b82525050565b60006129c482613085565b6129ce81856130e3565b9350836020820285016129e085613040565b8060005b85811015612a1c57848403895281516129fd858261295b565b9450612a08836130bc565b925060208a019950506001810190506129e4565b50829750879550505050505092915050565b6000612a3982613090565b612a4381856130f4565b935083602082028501612a5585613050565b8060005b85811015612a915784840389528151612a72858261296f565b9450612a7d836130c9565b925060208a01995050600181019050612a59565b50829750879550505050505092915050565b6000612aae8261309b565b612ab88185613105565b9350612ac383613060565b8060005b83811015612af4578151612adb8882612983565b9750612ae6836130d6565b925050600181019050612ac7565b5085935050505092915050565b612b0a81613155565b82525050565b6000612b1b826130b1565b612b258185613127565b9350612b358185602086016131d0565b612b3e8161320d565b840191505092915050565b6000612b54826130a6565b612b5e8185613116565b9350612b6e8185602086016131d0565b612b778161320d565b840191505092915050565b600081546001811660008114612b9f5760018114612bc457612c08565b607f6002830416612bb08187613138565b955060ff1983168652808601935050612c08565b60028204612bd28187613138565b9550612bdd85613070565b60005b82811015612bff57815481890152600182019150602081019050612be0565b82880195505050505b505092915050565b6000612c1d600a83613138565b91507f496e73617572616e6365000000000000000000000000000000000000000000006000830152600a82019050919050565b6000612c5d600083613138565b9150600082019050919050565b6000612c77600783613138565b91507f70617469656e74000000000000000000000000000000000000000000000000006000830152600782019050919050565b6000612cb7600783613138565b91507f4368656d697374000000000000000000000000000000000000000000000000006000830152600782019050919050565b6000612cf7600683613138565b91507f646f63746f7200000000000000000000000000000000000000000000000000006000830152600682019050919050565b6000606083016000830151612d4260008601826129aa565b5060208301518482036020860152612d5a8282612b49565b9150506040830151612d6f6040860182612de1565b508091505092915050565b6000604083016000830151612d9260008601826129aa565b5060208301518482036020860152612daa8282612b49565b9150508091505092915050565b60006020830160008301518482036000860152612dd48282612b49565b9150508091505092915050565b612dea81613181565b82525050565b612df981613181565b82525050565b612e10612e0b82613181565b613203565b82525050565b6000612e228284612b82565b915081905092915050565b6000612e3882612c10565b9150819050919050565b6000612e4d82612c50565b9150819050919050565b6000612e6282612c6a565b9150819050919050565b6000612e7782612caa565b9150819050919050565b6000612e8c82612cea565b9150819050919050565b6000612ea28285612dff565b602082019150612eb28284612dff565b6020820191508190509392505050565b6000602082019050612ed7600083018461299b565b92915050565b60006020820190508181036000830152612ef781846129b9565b905092915050565b60006020820190508181036000830152612f198184612a2e565b905092915050565b6000602082019050612f366000830184612b01565b92915050565b60006020820190508181036000830152612f568184612b10565b905092915050565b60006060820190508181036000830152612f788186612b10565b90508181036020830152612f8c8185612aa3565b90508181036040830152612fa08184612b10565b9050949350505050565b60006020820190508181036000830152612fc48184612db7565b905092915050565b6000602082019050612fe16000830184612df0565b92915050565b6000604051905081810181811067ffffffffffffffff8211171561300a57600080fd5b8060405250919050565b600067ffffffffffffffff82111561302b57600080fd5b601f19601f8301169050602081019050919050565b6000819050602082019050919050565b6000819050602082019050919050565b6000819050602082019050919050565b60008190508160005260206000209050919050565b600081519050919050565b600081519050919050565b600081519050919050565b600081519050919050565b600081519050919050565b6000602082019050919050565b6000602082019050919050565b6000602082019050919050565b600082825260208201905092915050565b600082825260208201905092915050565b600082825260208201905092915050565b600082825260208201905092915050565b600082825260208201905092915050565b600081905092915050565b600061314e82613161565b9050919050565b60008115159050919050565b600073ffffffffffffffffffffffffffffffffffffffff82169050919050565b6000819050919050565b60006131968261319d565b9050919050565b60006131a8826131af565b9050919050565b60006131ba82613161565b9050919050565b82818337600083830152505050565b60005b838110156131ee5780820151818401526020810190506131d3565b838111156131fd576000848401525b50505050565b6000819050919050565b6000601f19601f8301169050919050565b61322781613143565b811461323257600080fd5b50565b61323e81613181565b811461324957600080fd5b5056fea365627a7a723158206a1fb24742c478610dbf277b6036ed4718b6fec004eea03c9c24870776e79fc36c6578706572696d656e74616cf564736f6c63430005100040",
  "source": "// SPDX-License-Identifier: GPL-3.0\r\n\r\npragma solidity >=0.5.16;\r\npragma experimental ABIEncoderV2;\r\ncontract Storage {\r\n    //mappings\r\n    mapping(address => uint) authCaller;\r\n    mapping(address => string) userType;\r\n    mapping(address => patient) PData;\r\n    mapping(address=> address[]) patToDoctor;\r\n    mapping(address => doctor) DData;\r\n    mapping(address => insaurance) IData;\r\n    mapping(address => chemist) CData;\r\n    mapping(uint => treatment) treatmentDetails;\r\n    mapping(address => medicine[]) chemToMed;\r\n    mapping(address => bill[]) patToChemistBill;\r\n    mapping(address => address[]) insToPat;\r\n    //constructor\r\n    constructor() public{\r\n        authCaller[msg.sender] = 1;\r\n    }\r\n    \r\n    \r\n    //events\r\n     event DoctorAdded(address doctorAdd);\r\n     event ChemistAdded(address ChemistAdd);\r\n     event insAdded(address insAdd);\r\n     event treated(address indexed Did,address indexed Pid,uint tid);\r\n    //structs\r\n    struct bill{\r\n        address chemid;\r\n        string date;\r\n        uint amt;\r\n    }\r\n     struct patient{\r\n        string Phash; \r\n        uint [] treatmentId;\r\n        string precautions;\r\n\r\n    }\r\n    struct doctor{\r\n        string Dhash;\r\n    }\r\n    struct chemist{\r\n        string Chash;\r\n    }\r\n    struct insaurance{\r\n        string Ihash;\r\n    }\r\n     struct treatment {\r\n        string Thash;\r\n    }\r\n    struct medicine{\r\n        address pid;\r\n        string medicines;\r\n    }\r\n    //struct variable\r\n   \r\n    \r\n    //patient functions\r\n    \r\n    //make function to show all chemist bills\r\n    \r\n    function addPat(string memory _Phash) public returns(bool){\r\n        require(keccak256(abi.encodePacked(userType[msg.sender])) == keccak256(abi.encodePacked(\"\")));\r\n        patient memory pat;\r\n        pat.Phash = _Phash;\r\n        userType[msg.sender] = 'patient';\r\n        PData[msg.sender] = pat;\r\n        return true;\r\n    }\r\n    function getbills() public returns(bill[] memory){\r\n        require(keccak256(abi.encodePacked(userType[msg.sender])) == keccak256(abi.encodePacked(\"patient\")));\r\n        return patToChemistBill[msg.sender];\r\n    }\r\n    //return patient treatmentId and precautions as well\r\n    function getPatient(address _Padd) public returns(string memory,uint[] memory,string memory){\r\n        require(msg.sender == _Padd);\r\n        require(keccak256(abi.encodePacked(userType[msg.sender])) == keccak256(abi.encodePacked(\"patient\")));\r\n        \r\n        return (PData[msg.sender].Phash,PData[msg.sender].treatmentId,PData[msg.sender].precautions);\r\n    }\r\n    \r\n    function getDoctor(address _Dadd) public returns(string memory){\r\n        //need to complete\r\n         return DData[_Dadd].Dhash; \r\n    }\r\n    function getIns(address _Iadd) public returns(string memory){\r\n        //need to complete\r\n         return IData[_Iadd].Ihash; \r\n    }\r\n    \r\n    function grantAccess(address _Dadd) public returns(bool){\r\n        require(keccak256(abi.encodePacked(userType[msg.sender])) == keccak256(abi.encodePacked(\"patient\")));\r\n        patToDoctor[msg.sender].push(_Dadd);\r\n        return true;\r\n    }\r\n    \r\n    //check give address is insaurance company is or not\r\n    function applyIns(address _Iadd) public returns(bool){\r\n         require(keccak256(abi.encodePacked(userType[msg.sender])) == keccak256(abi.encodePacked(\"patient\")));\r\n         require(keccak256(abi.encodePacked(userType[_Iadd])) == keccak256(abi.encodePacked(\"Insaurance\")));\r\n         insToPat[_Iadd].push(msg.sender);\r\n         return true;\r\n            \r\n    }\r\n     function isValid(address pat,address doctor) public returns(bool){\r\n        address[] memory temp = patToDoctor[pat];\r\n        uint len = temp.length;\r\n        for(uint i = 0;i<len;i++){\r\n            if(temp[i] == doctor)\r\n                return true;\r\n        }\r\n        return false;\r\n    }\r\n    \r\n    //getUser\r\n    function getUser(address _Uaddress) public returns(string memory){\r\n        return userType[_Uaddress];\r\n    }\r\n    \r\n    //Doctor \r\n    \r\n     function addDoc(string memory _Dhash) public returns(bool){\r\n        require(keccak256(abi.encodePacked(userType[msg.sender])) == keccak256(abi.encodePacked(\"\")));\r\n        userType[msg.sender] = 'doctor';\r\n        DData[msg.sender].Dhash = _Dhash;\r\n        emit DoctorAdded(msg.sender);\r\n        return true;\r\n    }\r\n    \r\n    function updatePrecautions(address _Padd,string memory _precautions) public returns(bool){\r\n        require(keccak256(abi.encodePacked(userType[msg.sender])) == keccak256(abi.encodePacked(\"doctor\")));\r\n        require(isValid(_Padd,msg.sender) == true);\r\n        PData[_Padd].precautions = _precautions;\r\n        return true;\r\n        \r\n    }\r\n   function random() private view returns (uint) {\r\n       return uint(uint256(keccak256(abi.encodePacked(block.timestamp, block.difficulty)))%251);\r\n   }\r\n    function treatPatient(address _Padd, string memory _Thash)\r\n    public returns(uint){\r\n        require(keccak256(abi.encodePacked(userType[msg.sender])) == keccak256(abi.encodePacked(\"doctor\")));\r\n        require(isValid(_Padd,msg.sender) == true);\r\n        uint _tid = random();\r\n        treatment memory trt;\r\n        trt.Thash = _Thash;\r\n        PData[_Padd].treatmentId.push(_tid);\r\n        treatmentDetails[_tid] = trt;\r\n        emit treated(msg.sender,_Padd,_tid);\r\n        return _tid;\r\n    }\r\n    //check if chemist is present   \r\n    function giveMedicines(address _pid,address _cadd,string memory _medicines) public returns(bool){\r\n        require(keccak256(abi.encodePacked(userType[msg.sender])) == keccak256(abi.encodePacked(\"doctor\")));\r\n        require(keccak256(abi.encodePacked(userType[_cadd])) == keccak256(abi.encodePacked(\"Chemist\")));\r\n        require(isValid(_pid,msg.sender) == true);\r\n        chemToMed[_cadd].push(medicine(_pid,_medicines));\r\n        return true;\r\n    }\r\n    function getTrtDetails(uint _tid) public returns(treatment memory trt){\r\n         require(keccak256(abi.encodePacked(userType[msg.sender])) == keccak256(abi.encodePacked(\"doctor\")));\r\n         return treatmentDetails[_tid];\r\n    }\r\n    \r\n    //chemist\r\n    \r\n    function addChemist(string memory Chash) public returns(bool){\r\n      require(keccak256(abi.encodePacked(userType[msg.sender])) == keccak256(abi.encodePacked(\"\")));\r\n      userType[msg.sender] = 'Chemist';\r\n        CData[msg.sender].Chash = Chash;\r\n        emit ChemistAdded(msg.sender);\r\n        return true;\r\n    }\r\n    function getMedicineDetails() public returns(medicine[] memory){\r\n        require(keccak256(abi.encodePacked(userType[msg.sender])) == keccak256(abi.encodePacked(\"Chemist\")));\r\n        return chemToMed[msg.sender];\r\n    }\r\n    function sellMedicines(address _pid,string memory _date,uint _amt) public returns(bool){\r\n        require(keccak256(abi.encodePacked(userType[msg.sender])) == keccak256(abi.encodePacked(\"Chemist\")));\r\n        \r\n        patToChemistBill[_pid].push(bill(msg.sender,_date,_amt));\r\n        return true;\r\n    }\r\n    \r\n   //insaurance\r\n   \r\n   function addInsCompany(string memory Ihash) public returns(bool){\r\n       require(keccak256(abi.encodePacked(userType[msg.sender])) == keccak256(abi.encodePacked(\"\")));\r\n        userType[msg.sender] = 'Insaurance';\r\n        IData[msg.sender].Ihash = Ihash;\r\n        emit insAdded(msg.sender);\r\n        return true;\r\n   }\r\n    function approveInsurance(address patId) public returns(bool){\r\n        require(keccak256(abi.encodePacked(userType[msg.sender])) == keccak256(abi.encodePacked(\"Insaurance\")));\r\n        address[] memory arr = insToPat[msg.sender];\r\n        uint len = arr.length;\r\n        int j = -122;\r\n        for(uint i = 0 ; i < len ; i++ ){\r\n            if(arr[i] == patId){\r\n             j=int (i);   \r\n            }\r\n        }\r\n        if(j != -122){\r\n            uint i = uint (j);\r\n            delete insToPat[msg.sender][i];\r\n        }\r\n        return true;\r\n    }\r\n    \r\n}",
  "sourcePath": "E:\\react\\HealthCare\\Backend\\contracts\\Health.sol",
  "compiler": {
    "name": "solc",
    "version": "0.5.16+commit.9c3226ce.Emscripten.clang"
  },
  "schemaVersion": "3.2.0",
  "updatedAt": "2021-01-04T11:45:22.111Z",
  "devdoc": {
    "methods": {}
  },
  "userdoc": {
    "methods": {}
  }
}