{
  "contractName": "Storage",
  "abi": [
    {
      "inputs": [],
      "payable": false,
      "stateMutability": "nonpayable",
      "type": "constructor"
    },
    {
      "anonymous": false,
      "inputs": [
        {
          "indexed": false,
          "internalType": "address",
          "name": "ChemistAdd",
          "type": "address"
        }
      ],
      "name": "ChemistAdded",
      "type": "event"
    },
    {
      "anonymous": false,
      "inputs": [
        {
          "indexed": false,
          "internalType": "address",
          "name": "doctorAdd",
          "type": "address"
        }
      ],
      "name": "DoctorAdded",
      "type": "event"
    },
    {
      "anonymous": false,
      "inputs": [
        {
          "indexed": false,
          "internalType": "address",
          "name": "insAdd",
          "type": "address"
        }
      ],
      "name": "insAdded",
      "type": "event"
    },
    {
      "anonymous": false,
      "inputs": [
        {
          "indexed": true,
          "internalType": "address",
          "name": "Did",
          "type": "address"
        },
        {
          "indexed": false,
          "internalType": "uint256",
          "name": "tid",
          "type": "uint256"
        }
      ],
      "name": "treated",
      "type": "event"
    },
    {
      "constant": false,
      "inputs": [
        {
          "internalType": "string",
          "name": "_Phash",
          "type": "string"
        }
      ],
      "name": "addPat",
      "outputs": [
        {
          "internalType": "bool",
          "name": "",
          "type": "bool"
        }
      ],
      "payable": false,
      "stateMutability": "nonpayable",
      "type": "function"
    },
    {
      "constant": false,
      "inputs": [],
      "name": "getbills",
      "outputs": [
        {
          "components": [
            {
              "internalType": "address",
              "name": "chemid",
              "type": "address"
            },
            {
              "internalType": "string",
              "name": "date",
              "type": "string"
            },
            {
              "internalType": "uint256",
              "name": "amt",
              "type": "uint256"
            }
          ],
          "internalType": "struct Storage.bill[]",
          "name": "",
          "type": "tuple[]"
        }
      ],
      "payable": false,
      "stateMutability": "nonpayable",
      "type": "function"
    },
    {
      "constant": false,
      "inputs": [
        {
          "internalType": "address",
          "name": "_Padd",
          "type": "address"
        }
      ],
      "name": "getPatient",
      "outputs": [
        {
          "internalType": "string",
          "name": "",
          "type": "string"
        },
        {
          "internalType": "uint256[]",
          "name": "",
          "type": "uint256[]"
        },
        {
          "internalType": "string",
          "name": "",
          "type": "string"
        }
      ],
      "payable": false,
      "stateMutability": "nonpayable",
      "type": "function"
    },
    {
      "constant": false,
      "inputs": [
        {
          "internalType": "address",
          "name": "_Dadd",
          "type": "address"
        }
      ],
      "name": "getDoctor",
      "outputs": [
        {
          "internalType": "string",
          "name": "",
          "type": "string"
        }
      ],
      "payable": false,
      "stateMutability": "nonpayable",
      "type": "function"
    },
    {
      "constant": false,
      "inputs": [
        {
          "internalType": "address",
          "name": "_Dadd",
          "type": "address"
        }
      ],
      "name": "grantAccess",
      "outputs": [
        {
          "internalType": "bool",
          "name": "",
          "type": "bool"
        }
      ],
      "payable": false,
      "stateMutability": "nonpayable",
      "type": "function"
    },
    {
      "constant": false,
      "inputs": [
        {
          "internalType": "address",
          "name": "_Iadd",
          "type": "address"
        }
      ],
      "name": "applyIns",
      "outputs": [
        {
          "internalType": "bool",
          "name": "",
          "type": "bool"
        }
      ],
      "payable": false,
      "stateMutability": "nonpayable",
      "type": "function"
    },
    {
      "constant": false,
      "inputs": [
        {
          "internalType": "address",
          "name": "pat",
          "type": "address"
        },
        {
          "internalType": "address",
          "name": "doctor",
          "type": "address"
        }
      ],
      "name": "isValid",
      "outputs": [
        {
          "internalType": "bool",
          "name": "",
          "type": "bool"
        }
      ],
      "payable": false,
      "stateMutability": "nonpayable",
      "type": "function"
    },
    {
      "constant": false,
      "inputs": [
        {
          "internalType": "address",
          "name": "_Uaddress",
          "type": "address"
        }
      ],
      "name": "getUser",
      "outputs": [
        {
          "internalType": "string",
          "name": "",
          "type": "string"
        }
      ],
      "payable": false,
      "stateMutability": "nonpayable",
      "type": "function"
    },
    {
      "constant": false,
      "inputs": [
        {
          "internalType": "string",
          "name": "_Dhash",
          "type": "string"
        }
      ],
      "name": "addDoc",
      "outputs": [
        {
          "internalType": "bool",
          "name": "",
          "type": "bool"
        }
      ],
      "payable": false,
      "stateMutability": "nonpayable",
      "type": "function"
    },
    {
      "constant": false,
      "inputs": [
        {
          "internalType": "address",
          "name": "_Padd",
          "type": "address"
        },
        {
          "internalType": "string",
          "name": "_precautions",
          "type": "string"
        }
      ],
      "name": "updatePrecautions",
      "outputs": [
        {
          "internalType": "bool",
          "name": "",
          "type": "bool"
        }
      ],
      "payable": false,
      "stateMutability": "nonpayable",
      "type": "function"
    },
    {
      "constant": false,
      "inputs": [
        {
          "internalType": "address",
          "name": "_Padd",
          "type": "address"
        },
        {
          "internalType": "string",
          "name": "_diagnosis",
          "type": "string"
        },
        {
          "internalType": "string",
          "name": "_test_conducted",
          "type": "string"
        },
        {
          "internalType": "uint256",
          "name": "_bill",
          "type": "uint256"
        },
        {
          "internalType": "string",
          "name": "_medicine",
          "type": "string"
        }
      ],
      "name": "treatPatient",
      "outputs": [
        {
          "internalType": "uint256",
          "name": "",
          "type": "uint256"
        }
      ],
      "payable": false,
      "stateMutability": "nonpayable",
      "type": "function"
    },
    {
      "constant": false,
      "inputs": [
        {
          "internalType": "address",
          "name": "_pid",
          "type": "address"
        },
        {
          "internalType": "address",
          "name": "_cadd",
          "type": "address"
        },
        {
          "internalType": "string",
          "name": "_medicines",
          "type": "string"
        }
      ],
      "name": "giveMedicines",
      "outputs": [
        {
          "internalType": "bool",
          "name": "",
          "type": "bool"
        }
      ],
      "payable": false,
      "stateMutability": "nonpayable",
      "type": "function"
    },
    {
      "constant": false,
      "inputs": [
        {
          "internalType": "uint256",
          "name": "_tid",
          "type": "uint256"
        }
      ],
      "name": "getTrtDetails",
      "outputs": [
        {
          "components": [
            {
              "internalType": "address",
              "name": "doctor_id",
              "type": "address"
            },
            {
              "internalType": "string",
              "name": "diagnosis",
              "type": "string"
            },
            {
              "internalType": "string",
              "name": "test_conducted",
              "type": "string"
            },
            {
              "internalType": "uint256",
              "name": "bill",
              "type": "uint256"
            },
            {
              "internalType": "string",
              "name": "medicine",
              "type": "string"
            }
          ],
          "internalType": "struct Storage.treatment",
          "name": "trt",
          "type": "tuple"
        }
      ],
      "payable": false,
      "stateMutability": "nonpayable",
      "type": "function"
    },
    {
      "constant": false,
      "inputs": [
        {
          "internalType": "address",
          "name": "_Cid",
          "type": "address"
        },
        {
          "internalType": "string",
          "name": "Chash",
          "type": "string"
        }
      ],
      "name": "addChemist",
      "outputs": [
        {
          "internalType": "bool",
          "name": "",
          "type": "bool"
        }
      ],
      "payable": false,
      "stateMutability": "nonpayable",
      "type": "function"
    },
    {
      "constant": false,
      "inputs": [
        {
          "internalType": "address",
          "name": "_pid",
          "type": "address"
        },
        {
          "internalType": "string",
          "name": "_date",
          "type": "string"
        },
        {
          "internalType": "uint256",
          "name": "_amt",
          "type": "uint256"
        }
      ],
      "name": "sellMedicines",
      "outputs": [
        {
          "internalType": "bool",
          "name": "",
          "type": "bool"
        }
      ],
      "payable": false,
      "stateMutability": "nonpayable",
      "type": "function"
    },
    {
      "constant": false,
      "inputs": [
        {
          "internalType": "address",
          "name": "_Iid",
          "type": "address"
        },
        {
          "internalType": "string",
          "name": "Ihash",
          "type": "string"
        }
      ],
      "name": "addInsCompany",
      "outputs": [
        {
          "internalType": "bool",
          "name": "",
          "type": "bool"
        }
      ],
      "payable": false,
      "stateMutability": "nonpayable",
      "type": "function"
    },
    {
      "constant": false,
      "inputs": [
        {
          "internalType": "address",
          "name": "patId",
          "type": "address"
        }
      ],
      "name": "approveInsurance",
      "outputs": [
        {
          "internalType": "bool",
          "name": "",
          "type": "bool"
        }
      ],
      "payable": false,
      "stateMutability": "nonpayable",
      "type": "function"
    }
  ],
  "bytecode": "0x608060405234801561001057600080fd5b5060016000803373ffffffffffffffffffffffffffffffffffffffff1673ffffffffffffffffffffffffffffffffffffffff168152602001908152602001600020819055506131df806100646000396000f3fe608060405234801561001057600080fd5b506004361061010b5760003560e01c80638537b375116100a2578063b5368e2011610071578063b5368e2014610350578063c1a92c2814610382578063c2ddc9e3146103b2578063d8080066146103e2578063e9e47393146104125761010b565b80638537b37514610290578063a2e421a0146102c0578063a7080059146102f0578063af874a76146103205761010b565b80632f04e064116100de5780632f04e064146101d057806348c94c871461020057806365ad4ca6146102305780636f77926b146102605761010b565b80630ae5e739146101105780630bf2a51c146101405780630e7aa5e51461017057806320bacfbd146101a0575b600080fd5b61012a600480360361012591908101906126c2565b610430565b6040516101379190612eaa565b60405180910390f35b61015a6004803603610155919081019061278e565b610572565b6040516101679190612eaa565b60405180910390f35b61018a600480360361018591908101906126c2565b610729565b6040516101979190612eaa565b60405180910390f35b6101ba60048036036101b59190810190612908565b6108ff565b6040516101c79190612eaa565b60405180910390f35b6101ea60048036036101e591908101906126c2565b610ab5565b6040516101f79190612ec5565b60405180910390f35b61021a600480360361021591908101906127e2565b610b99565b6040516102279190612f55565b60405180910390f35b61024a6004803603610245919081019061278e565b610e41565b6040516102579190612eaa565b60405180910390f35b61027a600480360361027591908101906126c2565b610f52565b6040516102879190612ec5565b60405180910390f35b6102aa60048036036102a59190810190612908565b611033565b6040516102b79190612eaa565b60405180910390f35b6102da60048036036102d59190810190612949565b611207565b6040516102e79190612f33565b60405180910390f35b61030a600480360361030591908101906128a1565b61150e565b6040516103179190612eaa565b60405180910390f35b61033a600480360361033591908101906126eb565b6116bb565b6040516103479190612eaa565b60405180910390f35b61036a600480360361036591908101906126c2565b611807565b60405161037993929190612ee7565b60405180910390f35b61039c600480360361039791908101906126c2565b611b35565b6040516103a99190612eaa565b60405180910390f35b6103cc60048036036103c7919081019061278e565b611dd6565b6040516103d99190612eaa565b60405180910390f35b6103fc60048036036103f79190810190612727565b611f8d565b6040516104099190612eaa565b60405180910390f35b61041a6121cd565b6040516104279190612e88565b60405180910390f35b600060405160200161044190612e02565b60405160208183030381529060405280519060200120600160003373ffffffffffffffffffffffffffffffffffffffff1673ffffffffffffffffffffffffffffffffffffffff1681526020019081526020016000206040516020016104a69190612dc1565b60405160208183030381529060405280519060200120146104c657600080fd5b600360003373ffffffffffffffffffffffffffffffffffffffff1673ffffffffffffffffffffffffffffffffffffffff1681526020019081526020016000208290806001815401808255809150509060018203906000526020600020016000909192909190916101000a81548173ffffffffffffffffffffffffffffffffffffffff021916908373ffffffffffffffffffffffffffffffffffffffff1602179055505060019050919050565b600060405160200161058390612ded565b60405160208183030381529060405280519060200120600160003373ffffffffffffffffffffffffffffffffffffffff1673ffffffffffffffffffffffffffffffffffffffff1681526020019081526020016000206040516020016105e89190612dc1565b604051602081830303815290604052805190602001201461060857600080fd5b6040518060400160405280600981526020017f496e737572616e63650000000000000000000000000000000000000000000000815250600160003373ffffffffffffffffffffffffffffffffffffffff1673ffffffffffffffffffffffffffffffffffffffff168152602001908152602001600020908051906020019061069092919061243c565b5081600560003373ffffffffffffffffffffffffffffffffffffffff1673ffffffffffffffffffffffffffffffffffffffff16815260200190815260200160002060000190805190602001906106e792919061243c565b507fceecea79e4e48c1f16ba1294443d282cd050a264663c4a0d10156221c9fd88a1336040516107179190612e6d565b60405180910390a16001905092915050565b600060405160200161073a90612e02565b60405160208183030381529060405280519060200120600160003373ffffffffffffffffffffffffffffffffffffffff1673ffffffffffffffffffffffffffffffffffffffff16815260200190815260200160002060405160200161079f9190612dc1565b60405160208183030381529060405280519060200120146107bf57600080fd5b6040516020016107ce90612dd8565b60405160208183030381529060405280519060200120600160008473ffffffffffffffffffffffffffffffffffffffff1673ffffffffffffffffffffffffffffffffffffffff1681526020019081526020016000206040516020016108339190612dc1565b604051602081830303815290604052805190602001201461085357600080fd5b600a60008373ffffffffffffffffffffffffffffffffffffffff1673ffffffffffffffffffffffffffffffffffffffff1681526020019081526020016000203390806001815401808255809150509060018203906000526020600020016000909192909190916101000a81548173ffffffffffffffffffffffffffffffffffffffff021916908373ffffffffffffffffffffffffffffffffffffffff1602179055505060019050919050565b600060405160200161091090612ded565b60405160208183030381529060405280519060200120600160003373ffffffffffffffffffffffffffffffffffffffff1673ffffffffffffffffffffffffffffffffffffffff1681526020019081526020016000206040516020016109759190612dc1565b604051602081830303815290604052805190602001201461099557600080fd5b6040518060400160405280600681526020017f646f63746f720000000000000000000000000000000000000000000000000000815250600160003373ffffffffffffffffffffffffffffffffffffffff1673ffffffffffffffffffffffffffffffffffffffff1681526020019081526020016000209080519060200190610a1d92919061243c565b5081600460003373ffffffffffffffffffffffffffffffffffffffff1673ffffffffffffffffffffffffffffffffffffffff1681526020019081526020016000206000019080519060200190610a7492919061243c565b507f69908b2e63170aa89ef89719bbe3b4c92cccc38653968ab25f4464eff7c28ac833604051610aa49190612e6d565b60405180910390a160019050919050565b6060600460008373ffffffffffffffffffffffffffffffffffffffff1673ffffffffffffffffffffffffffffffffffffffff1681526020019081526020016000206000018054600181600116156101000203166002900480601f016020809104026020016040519081016040528092919081815260200182805460018160011615610100020316600290048015610b8d5780601f10610b6257610100808354040283529160200191610b8d565b820191906000526020600020905b815481529060010190602001808311610b7057829003601f168201915b50505050509050919050565b6000604051602001610baa90612e2c565b60405160208183030381529060405280519060200120600160003373ffffffffffffffffffffffffffffffffffffffff1673ffffffffffffffffffffffffffffffffffffffff168152602001908152602001600020604051602001610c0f9190612dc1565b6040516020818303038152906040528051906020012014610c2f57600080fd5b60011515610c3d87336116bb565b151514610c4957600080fd5b6000610c536123ff565b9050610c5d6124bc565b33816000019073ffffffffffffffffffffffffffffffffffffffff16908173ffffffffffffffffffffffffffffffffffffffff168152505086816020018190525085816040018190525084816060018181525050838160800181905250806007600084815260200190815260200160002060008201518160000160006101000a81548173ffffffffffffffffffffffffffffffffffffffff021916908373ffffffffffffffffffffffffffffffffffffffff1602179055506020820151816001019080519060200190610d31929190612501565b506040820151816002019080519060200190610d4e929190612501565b50606082015181600301556080820151816004019080519060200190610d75929190612501565b50905050600260008973ffffffffffffffffffffffffffffffffffffffff1673ffffffffffffffffffffffffffffffffffffffff1681526020019081526020016000206001018290806001815401808255809150509060018203906000526020600020016000909192909190915055503373ffffffffffffffffffffffffffffffffffffffff167fe9867bbda50b8a7f61502084650c70c6c559abf421723ad145d35bc3dda0073d83604051610e2b9190612f55565b60405180910390a2819250505095945050505050565b6000604051602001610e5290612e2c565b60405160208183030381529060405280519060200120600160003373ffffffffffffffffffffffffffffffffffffffff1673ffffffffffffffffffffffffffffffffffffffff168152602001908152602001600020604051602001610eb79190612dc1565b6040516020818303038152906040528051906020012014610ed757600080fd5b60011515610ee584336116bb565b151514610ef157600080fd5b81600260008573ffffffffffffffffffffffffffffffffffffffff1673ffffffffffffffffffffffffffffffffffffffff1681526020019081526020016000206002019080519060200190610f4792919061243c565b506001905092915050565b6060600160008373ffffffffffffffffffffffffffffffffffffffff1673ffffffffffffffffffffffffffffffffffffffff1681526020019081526020016000208054600181600116156101000203166002900480601f0160208091040260200160405190810160405280929190818152602001828054600181600116156101000203166002900480156110275780601f10610ffc57610100808354040283529160200191611027565b820191906000526020600020905b81548152906001019060200180831161100a57829003601f168201915b50505050509050919050565b600060405160200161104490612ded565b60405160208183030381529060405280519060200120600160003373ffffffffffffffffffffffffffffffffffffffff1673ffffffffffffffffffffffffffffffffffffffff1681526020019081526020016000206040516020016110a99190612dc1565b60405160208183030381529060405280519060200120146110c957600080fd5b6110d1612581565b8281600001819052506040518060400160405280600781526020017f70617469656e7400000000000000000000000000000000000000000000000000815250600160003373ffffffffffffffffffffffffffffffffffffffff1673ffffffffffffffffffffffffffffffffffffffff168152602001908152602001600020908051906020019061116292919061243c565b5080600260003373ffffffffffffffffffffffffffffffffffffffff1673ffffffffffffffffffffffffffffffffffffffff16815260200190815260200160002060008201518160000190805190602001906111bf929190612501565b5060208201518160010190805190602001906111dc9291906125a2565b5060408201518160020190805190602001906111f9929190612501565b509050506001915050919050565b61120f6124bc565b60405160200161121e90612e2c565b60405160208183030381529060405280519060200120600160003373ffffffffffffffffffffffffffffffffffffffff1673ffffffffffffffffffffffffffffffffffffffff1681526020019081526020016000206040516020016112839190612dc1565b60405160208183030381529060405280519060200120146112a357600080fd5b600760008381526020019081526020016000206040518060a00160405290816000820160009054906101000a900473ffffffffffffffffffffffffffffffffffffffff1673ffffffffffffffffffffffffffffffffffffffff1673ffffffffffffffffffffffffffffffffffffffff168152602001600182018054600181600116156101000203166002900480601f0160208091040260200160405190810160405280929190818152602001828054600181600116156101000203166002900480156113b05780601f10611385576101008083540402835291602001916113b0565b820191906000526020600020905b81548152906001019060200180831161139357829003601f168201915b50505050508152602001600282018054600181600116156101000203166002900480601f0160208091040260200160405190810160405280929190818152602001828054600181600116156101000203166002900480156114525780601f1061142757610100808354040283529160200191611452565b820191906000526020600020905b81548152906001019060200180831161143557829003601f168201915b5050505050815260200160038201548152602001600482018054600181600116156101000203166002900480601f0160208091040260200160405190810160405280929190818152602001828054600181600116156101000203166002900480156114fe5780601f106114d3576101008083540402835291602001916114fe565b820191906000526020600020905b8154815290600101906020018083116114e157829003601f168201915b5050505050815250509050919050565b600060405160200161151f90612e17565b60405160208183030381529060405280519060200120600160003373ffffffffffffffffffffffffffffffffffffffff1673ffffffffffffffffffffffffffffffffffffffff1681526020019081526020016000206040516020016115849190612dc1565b60405160208183030381529060405280519060200120146115a457600080fd5b600960008573ffffffffffffffffffffffffffffffffffffffff1673ffffffffffffffffffffffffffffffffffffffff16815260200190815260200160002060405180606001604052803373ffffffffffffffffffffffffffffffffffffffff168152602001858152602001848152509080600181540180825580915050906001820390600052602060002090600302016000909192909190915060008201518160000160006101000a81548173ffffffffffffffffffffffffffffffffffffffff021916908373ffffffffffffffffffffffffffffffffffffffff16021790555060208201518160010190805190602001906116a2929190612501565b5060408201518160020155505050600190509392505050565b60006060600360008573ffffffffffffffffffffffffffffffffffffffff1673ffffffffffffffffffffffffffffffffffffffff16815260200190815260200160002080548060200260200160405190810160405280929190818152602001828054801561177e57602002820191906000526020600020905b8160009054906101000a900473ffffffffffffffffffffffffffffffffffffffff1673ffffffffffffffffffffffffffffffffffffffff1681526020019060010190808311611734575b5050505050905060008151905060008090505b818110156117f9578473ffffffffffffffffffffffffffffffffffffffff168382815181106117bc57fe5b602002602001015173ffffffffffffffffffffffffffffffffffffffff1614156117ec5760019350505050611801565b8080600101915050611791565b506000925050505b92915050565b60608060608373ffffffffffffffffffffffffffffffffffffffff163373ffffffffffffffffffffffffffffffffffffffff161461184457600080fd5b60405160200161185390612e02565b60405160208183030381529060405280519060200120600160003373ffffffffffffffffffffffffffffffffffffffff1673ffffffffffffffffffffffffffffffffffffffff1681526020019081526020016000206040516020016118b89190612dc1565b60405160208183030381529060405280519060200120146118d857600080fd5b600260003373ffffffffffffffffffffffffffffffffffffffff1673ffffffffffffffffffffffffffffffffffffffff168152602001908152602001600020600001600260003373ffffffffffffffffffffffffffffffffffffffff1673ffffffffffffffffffffffffffffffffffffffff168152602001908152602001600020600101600260003373ffffffffffffffffffffffffffffffffffffffff1673ffffffffffffffffffffffffffffffffffffffff168152602001908152602001600020600201828054600181600116156101000203166002900480601f016020809104026020016040519081016040528092919081815260200182805460018160011615610100020316600290048015611a335780601f10611a0857610100808354040283529160200191611a33565b820191906000526020600020905b815481529060010190602001808311611a1657829003601f168201915b5050505050925081805480602002602001604051908101604052809291908181526020018280548015611a8557602002820191906000526020600020905b815481526020019060010190808311611a71575b50505050509150808054600181600116156101000203166002900480601f016020809104026020016040519081016040528092919081815260200182805460018160011615610100020316600290048015611b215780601f10611af657610100808354040283529160200191611b21565b820191906000526020600020905b815481529060010190602001808311611b0457829003601f168201915b505050505090509250925092509193909250565b6000604051602001611b4690612dd8565b60405160208183030381529060405280519060200120600160003373ffffffffffffffffffffffffffffffffffffffff1673ffffffffffffffffffffffffffffffffffffffff168152602001908152602001600020604051602001611bab9190612dc1565b6040516020818303038152906040528051906020012014611bcb57600080fd5b6060600a60003373ffffffffffffffffffffffffffffffffffffffff1673ffffffffffffffffffffffffffffffffffffffff168152602001908152602001600020805480602002602001604051908101604052809291908181526020018280548015611c8c57602002820191906000526020600020905b8160009054906101000a900473ffffffffffffffffffffffffffffffffffffffff1673ffffffffffffffffffffffffffffffffffffffff1681526020019060010190808311611c42575b5050505050905060008151905060007fffffffffffffffffffffffffffffffffffffffffffffffffffffffffffffff86905060008090505b82811015611d24578573ffffffffffffffffffffffffffffffffffffffff16848281518110611cef57fe5b602002602001015173ffffffffffffffffffffffffffffffffffffffff161415611d17578091505b8080600101915050611cc4565b507fffffffffffffffffffffffffffffffffffffffffffffffffffffffffffffff868114611dca576000819050600a60003373ffffffffffffffffffffffffffffffffffffffff1673ffffffffffffffffffffffffffffffffffffffff1681526020019081526020016000208181548110611d9b57fe5b9060005260206000200160006101000a81549073ffffffffffffffffffffffffffffffffffffffff0219169055505b60019350505050919050565b6000604051602001611de790612ded565b60405160208183030381529060405280519060200120600160003373ffffffffffffffffffffffffffffffffffffffff1673ffffffffffffffffffffffffffffffffffffffff168152602001908152602001600020604051602001611e4c9190612dc1565b6040516020818303038152906040528051906020012014611e6c57600080fd5b6040518060400160405280600781526020017f4368656d69737400000000000000000000000000000000000000000000000000815250600160003373ffffffffffffffffffffffffffffffffffffffff1673ffffffffffffffffffffffffffffffffffffffff1681526020019081526020016000209080519060200190611ef492919061243c565b5081600660003373ffffffffffffffffffffffffffffffffffffffff1673ffffffffffffffffffffffffffffffffffffffff1681526020019081526020016000206000019080519060200190611f4b92919061243c565b507fecc3bdfcb393e93b309b9a8b9a0b2a27316c7a94eacc7c3b1a1735528af9507c33604051611f7b9190612e6d565b60405180910390a16001905092915050565b6000604051602001611f9e90612e2c565b60405160208183030381529060405280519060200120600160003373ffffffffffffffffffffffffffffffffffffffff1673ffffffffffffffffffffffffffffffffffffffff1681526020019081526020016000206040516020016120039190612dc1565b604051602081830303815290604052805190602001201461202357600080fd5b60405160200161203290612e17565b60405160208183030381529060405280519060200120600160008573ffffffffffffffffffffffffffffffffffffffff1673ffffffffffffffffffffffffffffffffffffffff1681526020019081526020016000206040516020016120979190612dc1565b60405160208183030381529060405280519060200120146120b757600080fd5b600115156120c585336116bb565b1515146120d157600080fd5b6120d96125ef565b84816000019073ffffffffffffffffffffffffffffffffffffffff16908173ffffffffffffffffffffffffffffffffffffffff168152505082816020018190525080600860008673ffffffffffffffffffffffffffffffffffffffff1673ffffffffffffffffffffffffffffffffffffffff16815260200190815260200160002060008201518160000160006101000a81548173ffffffffffffffffffffffffffffffffffffffff021916908373ffffffffffffffffffffffffffffffffffffffff16021790555060208201518160010190805190602001906121bd929190612501565b5090505060019150509392505050565b60606040516020016121de90612e02565b60405160208183030381529060405280519060200120600160003373ffffffffffffffffffffffffffffffffffffffff1673ffffffffffffffffffffffffffffffffffffffff1681526020019081526020016000206040516020016122439190612dc1565b604051602081830303815290604052805190602001201461226357600080fd5b600960003373ffffffffffffffffffffffffffffffffffffffff1673ffffffffffffffffffffffffffffffffffffffff168152602001908152602001600020805480602002602001604051908101604052809291908181526020016000905b828210156123f657838290600052602060002090600302016040518060600160405290816000820160009054906101000a900473ffffffffffffffffffffffffffffffffffffffff1673ffffffffffffffffffffffffffffffffffffffff1673ffffffffffffffffffffffffffffffffffffffff168152602001600182018054600181600116156101000203166002900480601f0160208091040260200160405190810160405280929190818152602001828054600181600116156101000203166002900480156123d45780601f106123a9576101008083540402835291602001916123d4565b820191906000526020600020905b8154815290600101906020018083116123b757829003601f168201915b50505050508152602001600282015481525050815260200190600101906122c2565b50505050905090565b600060fb4244604051602001612416929190612e41565b6040516020818303038152906040528051906020012060001c8161243657fe5b06905090565b828054600181600116156101000203166002900490600052602060002090601f016020900481019282601f1061247d57805160ff19168380011785556124ab565b828001600101855582156124ab579182015b828111156124aa57825182559160200191906001019061248f565b5b5090506124b8919061261f565b5090565b6040518060a00160405280600073ffffffffffffffffffffffffffffffffffffffff168152602001606081526020016060815260200160008152602001606081525090565b828054600181600116156101000203166002900490600052602060002090601f016020900481019282601f1061254257805160ff1916838001178555612570565b82800160010185558215612570579182015b8281111561256f578251825591602001919060010190612554565b5b50905061257d919061261f565b5090565b60405180606001604052806060815260200160608152602001606081525090565b8280548282559060005260206000209081019282156125de579160200282015b828111156125dd5782518255916020019190600101906125c2565b5b5090506125eb919061261f565b5090565b6040518060400160405280600073ffffffffffffffffffffffffffffffffffffffff168152602001606081525090565b61264191905b8082111561263d576000816000905550600101612625565b5090565b90565b6000813590506126538161316e565b92915050565b600082601f83011261266a57600080fd5b813561267d61267882612f9d565b612f70565b9150808252602083016020830185838301111561269957600080fd5b6126a4838284613111565b50505092915050565b6000813590506126bc81613185565b92915050565b6000602082840312156126d457600080fd5b60006126e284828501612644565b91505092915050565b600080604083850312156126fe57600080fd5b600061270c85828601612644565b925050602061271d85828601612644565b9150509250929050565b60008060006060848603121561273c57600080fd5b600061274a86828701612644565b935050602061275b86828701612644565b925050604084013567ffffffffffffffff81111561277857600080fd5b61278486828701612659565b9150509250925092565b600080604083850312156127a157600080fd5b60006127af85828601612644565b925050602083013567ffffffffffffffff8111156127cc57600080fd5b6127d885828601612659565b9150509250929050565b600080600080600060a086880312156127fa57600080fd5b600061280888828901612644565b955050602086013567ffffffffffffffff81111561282557600080fd5b61283188828901612659565b945050604086013567ffffffffffffffff81111561284e57600080fd5b61285a88828901612659565b935050606061286b888289016126ad565b925050608086013567ffffffffffffffff81111561288857600080fd5b61289488828901612659565b9150509295509295909350565b6000806000606084860312156128b657600080fd5b60006128c486828701612644565b935050602084013567ffffffffffffffff8111156128e157600080fd5b6128ed86828701612659565b92505060406128fe868287016126ad565b9150509250925092565b60006020828403121561291a57600080fd5b600082013567ffffffffffffffff81111561293457600080fd5b61294084828501612659565b91505092915050565b60006020828403121561295b57600080fd5b6000612969848285016126ad565b91505092915050565b600061297e8383612cb8565b905092915050565b60006129928383612d8c565b60208301905092915050565b6129a7816130db565b82525050565b6129b681613093565b82525050565b60006129c782612ffe565b6129d18185613044565b9350836020820285016129e385612fc9565b8060005b85811015612a1f5784840389528151612a008582612972565b9450612a0b8361302a565b925060208a019950506001810190506129e7565b50829750879550505050505092915050565b6000612a3c82613009565b612a468185613055565b9350612a5183612fd9565b8060005b83811015612a82578151612a698882612986565b9750612a7483613037565b925050600181019050612a55565b5085935050505092915050565b612a98816130a5565b82525050565b6000612aa98261301f565b612ab38185613077565b9350612ac3818560208601613120565b612acc8161315d565b840191505092915050565b6000612ae282613014565b612aec8185613066565b9350612afc818560208601613120565b612b058161315d565b840191505092915050565b600081546001811660008114612b2d5760018114612b5257612b96565b607f6002830416612b3e8187613088565b955060ff1983168652808601935050612b96565b60028204612b608187613088565b9550612b6b85612fe9565b60005b82811015612b8d57815481890152600182019150602081019050612b6e565b82880195505050505b505092915050565b6000612bab600983613088565b91507f496e737572616e636500000000000000000000000000000000000000000000006000830152600982019050919050565b6000612beb600083613088565b9150600082019050919050565b6000612c05600783613088565b91507f70617469656e74000000000000000000000000000000000000000000000000006000830152600782019050919050565b6000612c45600783613088565b91507f4368656d697374000000000000000000000000000000000000000000000000006000830152600782019050919050565b6000612c85600683613088565b91507f646f63746f7200000000000000000000000000000000000000000000000000006000830152600682019050919050565b6000606083016000830151612cd060008601826129ad565b5060208301518482036020860152612ce88282612ad7565b9150506040830151612cfd6040860182612d8c565b508091505092915050565b600060a083016000830151612d2060008601826129ad565b5060208301518482036020860152612d388282612ad7565b91505060408301518482036040860152612d528282612ad7565b9150506060830151612d676060860182612d8c565b5060808301518482036080860152612d7f8282612ad7565b9150508091505092915050565b612d95816130d1565b82525050565b612da4816130d1565b82525050565b612dbb612db6826130d1565b613153565b82525050565b6000612dcd8284612b10565b915081905092915050565b6000612de382612b9e565b9150819050919050565b6000612df882612bde565b9150819050919050565b6000612e0d82612bf8565b9150819050919050565b6000612e2282612c38565b9150819050919050565b6000612e3782612c78565b9150819050919050565b6000612e4d8285612daa565b602082019150612e5d8284612daa565b6020820191508190509392505050565b6000602082019050612e82600083018461299e565b92915050565b60006020820190508181036000830152612ea281846129bc565b905092915050565b6000602082019050612ebf6000830184612a8f565b92915050565b60006020820190508181036000830152612edf8184612a9e565b905092915050565b60006060820190508181036000830152612f018186612a9e565b90508181036020830152612f158185612a31565b90508181036040830152612f298184612a9e565b9050949350505050565b60006020820190508181036000830152612f4d8184612d08565b905092915050565b6000602082019050612f6a6000830184612d9b565b92915050565b6000604051905081810181811067ffffffffffffffff82111715612f9357600080fd5b8060405250919050565b600067ffffffffffffffff821115612fb457600080fd5b601f19601f8301169050602081019050919050565b6000819050602082019050919050565b6000819050602082019050919050565b60008190508160005260206000209050919050565b600081519050919050565b600081519050919050565b600081519050919050565b600081519050919050565b6000602082019050919050565b6000602082019050919050565b600082825260208201905092915050565b600082825260208201905092915050565b600082825260208201905092915050565b600082825260208201905092915050565b600081905092915050565b600061309e826130b1565b9050919050565b60008115159050919050565b600073ffffffffffffffffffffffffffffffffffffffff82169050919050565b6000819050919050565b60006130e6826130ed565b9050919050565b60006130f8826130ff565b9050919050565b600061310a826130b1565b9050919050565b82818337600083830152505050565b60005b8381101561313e578082015181840152602081019050613123565b8381111561314d576000848401525b50505050565b6000819050919050565b6000601f19601f8301169050919050565b61317781613093565b811461318257600080fd5b50565b61318e816130d1565b811461319957600080fd5b5056fea365627a7a723158208485dee81651dc01de0de73e73445c035a794624b2503d23f3d5ea05bd4019766c6578706572696d656e74616cf564736f6c63430005100040",
  "source": "// SPDX-License-Identifier: GPL-3.0\r\n\r\npragma solidity >=0.5.16;\r\npragma experimental ABIEncoderV2;\r\ncontract Storage {\r\n    //mappings\r\n    mapping(address => uint) authCaller;\r\n    mapping(address => string) userType;\r\n    mapping(address => patient) PData;\r\n    mapping(address=> address[]) patToDoctor;\r\n    mapping(address => doctor) DData;\r\n    mapping(address => insaurance) IData;\r\n    mapping(address => chemist) CData;\r\n    mapping(uint => treatment) treatmentDetails;\r\n    mapping(address => medicine) chemToMed;\r\n    mapping(address => bill[]) patToChemistBill;\r\n    mapping(address => address[]) insToPat;\r\n    //constructor\r\n    constructor() public{\r\n        authCaller[msg.sender] = 1;\r\n    }\r\n    \r\n    \r\n    //events\r\n     event DoctorAdded(address doctorAdd);\r\n     event ChemistAdded(address ChemistAdd);\r\n     event insAdded(address insAdd);\r\n     event treated(address indexed Did,uint tid);\r\n    //structs\r\n    struct bill{\r\n        address chemid;\r\n        string date;\r\n        uint amt;\r\n    }\r\n     struct patient{\r\n        string Phash; \r\n        uint [] treatmentId;\r\n        string precautions;\r\n\r\n    }\r\n    struct doctor{\r\n        string Dhash;\r\n    }\r\n    struct chemist{\r\n        string Chash;\r\n    }\r\n    struct insaurance{\r\n        string Ihash;\r\n    }\r\n     struct treatment {\r\n        address doctor_id;\r\n        string diagnosis;\r\n        string test_conducted;\r\n        uint bill;\r\n        string medicine;\r\n    }\r\n    struct medicine{\r\n        address pid;\r\n        string medicines;\r\n    }\r\n    //struct variable\r\n   \r\n    \r\n    //patient functions\r\n    \r\n    //make function to show all chemist bills\r\n    \r\n    function addPat(string memory _Phash) public returns(bool){\r\n        require(keccak256(abi.encodePacked(userType[msg.sender])) == keccak256(abi.encodePacked(\"\")));\r\n        patient memory pat;\r\n        pat.Phash = _Phash;\r\n        userType[msg.sender] = 'patient';\r\n        PData[msg.sender] = pat;\r\n        return true;\r\n    }\r\n    function getbills() public returns(bill[] memory){\r\n        require(keccak256(abi.encodePacked(userType[msg.sender])) == keccak256(abi.encodePacked(\"patient\")));\r\n        return patToChemistBill[msg.sender];\r\n    }\r\n    //return patient treatmentId and precautions as well\r\n    function getPatient(address _Padd) public returns(string memory,uint[] memory,string memory){\r\n        require(msg.sender == _Padd);\r\n        require(keccak256(abi.encodePacked(userType[msg.sender])) == keccak256(abi.encodePacked(\"patient\")));\r\n        \r\n        return (PData[msg.sender].Phash,PData[msg.sender].treatmentId,PData[msg.sender].precautions);\r\n    }\r\n    \r\n    function getDoctor(address _Dadd) public returns(string memory){\r\n        //need to complete\r\n         return DData[_Dadd].Dhash; \r\n    }\r\n    \r\n    function grantAccess(address _Dadd) public returns(bool){\r\n        require(keccak256(abi.encodePacked(userType[msg.sender])) == keccak256(abi.encodePacked(\"patient\")));\r\n        patToDoctor[msg.sender].push(_Dadd);\r\n        return true;\r\n    }\r\n    \r\n    //check give address is insaurance company is or not\r\n    function applyIns(address _Iadd) public returns(bool){\r\n         require(keccak256(abi.encodePacked(userType[msg.sender])) == keccak256(abi.encodePacked(\"patient\")));\r\n         require(keccak256(abi.encodePacked(userType[_Iadd])) == keccak256(abi.encodePacked(\"Insurance\")));\r\n         insToPat[_Iadd].push(msg.sender);\r\n         return true;\r\n            \r\n    }\r\n     function isValid(address pat,address doctor) public returns(bool){\r\n        address[] memory temp = patToDoctor[pat];\r\n        uint len = temp.length;\r\n        for(uint i = 0;i<len;i++){\r\n            if(temp[i] == doctor)\r\n                return true;\r\n        }\r\n        return false;\r\n    }\r\n    \r\n    //getUser\r\n    function getUser(address _Uaddress) public returns(string memory){\r\n        return userType[_Uaddress];\r\n    }\r\n    \r\n    //Doctor \r\n    \r\n     function addDoc(string memory _Dhash) public returns(bool){\r\n        require(keccak256(abi.encodePacked(userType[msg.sender])) == keccak256(abi.encodePacked(\"\")));\r\n        userType[msg.sender] = 'doctor';\r\n        DData[msg.sender].Dhash = _Dhash;\r\n        emit DoctorAdded(msg.sender);\r\n        return true;\r\n    }\r\n    \r\n    function updatePrecautions(address _Padd,string memory _precautions) public returns(bool){\r\n        require(keccak256(abi.encodePacked(userType[msg.sender])) == keccak256(abi.encodePacked(\"doctor\")));\r\n        require(isValid(_Padd,msg.sender) == true);\r\n        PData[_Padd].precautions = _precautions;\r\n        return true;\r\n        \r\n    }\r\n   function random() private view returns (uint) {\r\n       return uint(uint256(keccak256(abi.encodePacked(block.timestamp, block.difficulty)))%251);\r\n   }\r\n    function treatPatient(address _Padd, string memory _diagnosis,string memory _test_conducted,uint _bill,string memory _medicine)\r\n    public returns(uint){\r\n        require(keccak256(abi.encodePacked(userType[msg.sender])) == keccak256(abi.encodePacked(\"doctor\")));\r\n        require(isValid(_Padd,msg.sender) == true);\r\n        uint _tid = random();\r\n        treatment memory trt;\r\n        trt.doctor_id = msg.sender;\r\n        trt.diagnosis = _diagnosis;\r\n        trt.test_conducted = _test_conducted;\r\n        trt.bill = _bill;\r\n        trt.medicine = _medicine;\r\n        treatmentDetails[_tid] = trt;\r\n        PData[_Padd].treatmentId.push(_tid);\r\n        emit treated(msg.sender,_tid);\r\n        return _tid;\r\n    }\r\n    //check if chemist is present   \r\n    function giveMedicines(address _pid,address _cadd,string memory _medicines) public returns(bool){\r\n        require(keccak256(abi.encodePacked(userType[msg.sender])) == keccak256(abi.encodePacked(\"doctor\")));\r\n        require(keccak256(abi.encodePacked(userType[_cadd])) == keccak256(abi.encodePacked(\"Chemist\")));\r\n        require(isValid(_pid,msg.sender) == true);\r\n        medicine memory md;\r\n        md.pid = _pid;\r\n        md.medicines = _medicines;\r\n        chemToMed[_cadd] = md;\r\n        return true;\r\n    }\r\n    function getTrtDetails(uint _tid) public returns(treatment memory trt){\r\n         require(keccak256(abi.encodePacked(userType[msg.sender])) == keccak256(abi.encodePacked(\"doctor\")));\r\n         return treatmentDetails[_tid];\r\n    }\r\n    \r\n    //chemist\r\n    \r\n    function addChemist(address _Cid,string memory Chash) public returns(bool){\r\n      require(keccak256(abi.encodePacked(userType[msg.sender])) == keccak256(abi.encodePacked(\"\")));\r\n      userType[msg.sender] = 'Chemist';\r\n        CData[msg.sender].Chash = Chash;\r\n        emit ChemistAdded(msg.sender);\r\n        return true;\r\n    }\r\n    \r\n    function sellMedicines(address _pid,string memory _date,uint _amt) public returns(bool){\r\n        require(keccak256(abi.encodePacked(userType[msg.sender])) == keccak256(abi.encodePacked(\"Chemist\")));\r\n        \r\n        patToChemistBill[_pid].push(bill(msg.sender,_date,_amt));\r\n        return true;\r\n    }\r\n    \r\n   //insaurance\r\n   \r\n   function addInsCompany(address _Iid,string memory Ihash) public returns(bool){\r\n       require(keccak256(abi.encodePacked(userType[msg.sender])) == keccak256(abi.encodePacked(\"\")));\r\n        userType[msg.sender] = 'Insurance';\r\n        IData[msg.sender].Ihash = Ihash;\r\n        emit insAdded(msg.sender);\r\n        return true;\r\n   }\r\n    function approveInsurance(address patId) public returns(bool){\r\n        require(keccak256(abi.encodePacked(userType[msg.sender])) == keccak256(abi.encodePacked(\"Insurance\")));\r\n        address[] memory arr = insToPat[msg.sender];\r\n        uint len = arr.length;\r\n        int j = -122;\r\n        for(uint i = 0 ; i < len ; i++ ){\r\n            if(arr[i] == patId){\r\n             j=int (i);   \r\n            }\r\n        }\r\n        if(j != -122){\r\n            uint i = uint (j);\r\n            delete insToPat[msg.sender][i];\r\n        }\r\n        return true;\r\n    }\r\n    \r\n}",
  "sourcePath": "E:\\react\\HealthCare\\Backend\\contracts\\Health.sol",
  "compiler": {
    "name": "solc",
    "version": "0.5.16+commit.9c3226ce.Emscripten.clang"
  },
  "schemaVersion": "3.2.0",
  "updatedAt": "2021-01-03T04:33:09.718Z",
  "devdoc": {
    "methods": {}
  },
  "userdoc": {
    "methods": {}
  }
}