{
  "contractName": "Storage",
  "abi": [
    {
      "inputs": [],
      "payable": false,
      "stateMutability": "nonpayable",
      "type": "constructor"
    },
    {
      "anonymous": false,
      "inputs": [
        {
          "indexed": false,
          "internalType": "address",
          "name": "ChemistAdd",
          "type": "address"
        }
      ],
      "name": "ChemistAdded",
      "type": "event"
    },
    {
      "anonymous": false,
      "inputs": [
        {
          "indexed": false,
          "internalType": "address",
          "name": "doctorAdd",
          "type": "address"
        }
      ],
      "name": "DoctorAdded",
      "type": "event"
    },
    {
      "anonymous": false,
      "inputs": [
        {
          "indexed": false,
          "internalType": "address",
          "name": "insAdd",
          "type": "address"
        }
      ],
      "name": "insAdded",
      "type": "event"
    },
    {
      "anonymous": false,
      "inputs": [
        {
          "indexed": true,
          "internalType": "address",
          "name": "Did",
          "type": "address"
        },
        {
          "indexed": true,
          "internalType": "address",
          "name": "Pid",
          "type": "address"
        },
        {
          "indexed": false,
          "internalType": "uint256",
          "name": "tid",
          "type": "uint256"
        }
      ],
      "name": "treated",
      "type": "event"
    },
    {
      "constant": false,
      "inputs": [
        {
          "internalType": "string",
          "name": "_Phash",
          "type": "string"
        }
      ],
      "name": "addPat",
      "outputs": [
        {
          "internalType": "bool",
          "name": "",
          "type": "bool"
        }
      ],
      "payable": false,
      "stateMutability": "nonpayable",
      "type": "function"
    },
    {
      "constant": false,
      "inputs": [],
      "name": "getbills",
      "outputs": [
        {
          "components": [
            {
              "internalType": "address",
              "name": "chemid",
              "type": "address"
            },
            {
              "internalType": "string",
              "name": "date",
              "type": "string"
            },
            {
              "internalType": "uint256",
              "name": "amt",
              "type": "uint256"
            }
          ],
          "internalType": "struct Storage.bill[]",
          "name": "",
          "type": "tuple[]"
        }
      ],
      "payable": false,
      "stateMutability": "nonpayable",
      "type": "function"
    },
    {
      "constant": false,
      "inputs": [
        {
          "internalType": "address",
          "name": "_Padd",
          "type": "address"
        }
      ],
      "name": "getPatient",
      "outputs": [
        {
          "internalType": "string",
          "name": "",
          "type": "string"
        },
        {
          "internalType": "uint256[]",
          "name": "",
          "type": "uint256[]"
        },
        {
          "internalType": "string",
          "name": "",
          "type": "string"
        }
      ],
      "payable": false,
      "stateMutability": "nonpayable",
      "type": "function"
    },
    {
      "constant": false,
      "inputs": [
        {
          "internalType": "address",
          "name": "_Dadd",
          "type": "address"
        }
      ],
      "name": "getDoctor",
      "outputs": [
        {
          "internalType": "string",
          "name": "",
          "type": "string"
        }
      ],
      "payable": false,
      "stateMutability": "nonpayable",
      "type": "function"
    },
    {
      "constant": false,
      "inputs": [
        {
          "internalType": "address",
          "name": "_Iadd",
          "type": "address"
        }
      ],
      "name": "getIns",
      "outputs": [
        {
          "internalType": "string",
          "name": "",
          "type": "string"
        }
      ],
      "payable": false,
      "stateMutability": "nonpayable",
      "type": "function"
    },
    {
      "constant": false,
      "inputs": [
        {
          "internalType": "address",
          "name": "_Dadd",
          "type": "address"
        }
      ],
      "name": "grantAccess",
      "outputs": [
        {
          "internalType": "bool",
          "name": "",
          "type": "bool"
        }
      ],
      "payable": false,
      "stateMutability": "nonpayable",
      "type": "function"
    },
    {
      "constant": false,
      "inputs": [
        {
          "internalType": "address",
          "name": "_Iadd",
          "type": "address"
        }
      ],
      "name": "applyIns",
      "outputs": [
        {
          "internalType": "bool",
          "name": "",
          "type": "bool"
        }
      ],
      "payable": false,
      "stateMutability": "nonpayable",
      "type": "function"
    },
    {
      "constant": false,
      "inputs": [
        {
          "internalType": "address",
          "name": "pat",
          "type": "address"
        },
        {
          "internalType": "address",
          "name": "doctor",
          "type": "address"
        }
      ],
      "name": "isValid",
      "outputs": [
        {
          "internalType": "bool",
          "name": "",
          "type": "bool"
        }
      ],
      "payable": false,
      "stateMutability": "nonpayable",
      "type": "function"
    },
    {
      "constant": false,
      "inputs": [
        {
          "internalType": "address",
          "name": "_Uaddress",
          "type": "address"
        }
      ],
      "name": "getUser",
      "outputs": [
        {
          "internalType": "string",
          "name": "",
          "type": "string"
        }
      ],
      "payable": false,
      "stateMutability": "nonpayable",
      "type": "function"
    },
    {
      "constant": false,
      "inputs": [
        {
          "internalType": "string",
          "name": "_Dhash",
          "type": "string"
        }
      ],
      "name": "addDoc",
      "outputs": [
        {
          "internalType": "bool",
          "name": "",
          "type": "bool"
        }
      ],
      "payable": false,
      "stateMutability": "nonpayable",
      "type": "function"
    },
    {
      "constant": false,
      "inputs": [
        {
          "internalType": "address",
          "name": "_Padd",
          "type": "address"
        },
        {
          "internalType": "string",
          "name": "_precautions",
          "type": "string"
        }
      ],
      "name": "updatePrecautions",
      "outputs": [
        {
          "internalType": "bool",
          "name": "",
          "type": "bool"
        }
      ],
      "payable": false,
      "stateMutability": "nonpayable",
      "type": "function"
    },
    {
      "constant": false,
      "inputs": [
        {
          "internalType": "address",
          "name": "_Padd",
          "type": "address"
        },
        {
          "internalType": "string",
          "name": "_Thash",
          "type": "string"
        }
      ],
      "name": "treatPatient",
      "outputs": [
        {
          "internalType": "uint256",
          "name": "",
          "type": "uint256"
        }
      ],
      "payable": false,
      "stateMutability": "nonpayable",
      "type": "function"
    },
    {
      "constant": false,
      "inputs": [
        {
          "internalType": "address",
          "name": "_pid",
          "type": "address"
        },
        {
          "internalType": "string",
          "name": "_medicines",
          "type": "string"
        },
        {
          "internalType": "string",
          "name": "_date",
          "type": "string"
        }
      ],
      "name": "giveMedicines",
      "outputs": [
        {
          "internalType": "bool",
          "name": "",
          "type": "bool"
        }
      ],
      "payable": false,
      "stateMutability": "nonpayable",
      "type": "function"
    },
    {
      "constant": false,
      "inputs": [
        {
          "internalType": "uint256",
          "name": "_tid",
          "type": "uint256"
        }
      ],
      "name": "getTrtDetails",
      "outputs": [
        {
          "internalType": "string",
          "name": "",
          "type": "string"
        }
      ],
      "payable": false,
      "stateMutability": "nonpayable",
      "type": "function"
    },
    {
      "constant": false,
      "inputs": [
        {
          "internalType": "string",
          "name": "Chash",
          "type": "string"
        }
      ],
      "name": "addChemist",
      "outputs": [
        {
          "internalType": "bool",
          "name": "",
          "type": "bool"
        }
      ],
      "payable": false,
      "stateMutability": "nonpayable",
      "type": "function"
    },
    {
      "constant": false,
      "inputs": [
        {
          "internalType": "address",
          "name": "_pid",
          "type": "address"
        }
      ],
      "name": "getMedicineDetails",
      "outputs": [
        {
          "components": [
            {
              "internalType": "address",
              "name": "pid",
              "type": "address"
            },
            {
              "internalType": "string",
              "name": "medicines",
              "type": "string"
            },
            {
              "internalType": "string",
              "name": "date",
              "type": "string"
            }
          ],
          "internalType": "struct Storage.medicine[]",
          "name": "",
          "type": "tuple[]"
        }
      ],
      "payable": false,
      "stateMutability": "nonpayable",
      "type": "function"
    },
    {
      "constant": false,
      "inputs": [
        {
          "internalType": "address",
          "name": "_pid",
          "type": "address"
        },
        {
          "internalType": "string",
          "name": "_date",
          "type": "string"
        },
        {
          "internalType": "uint256",
          "name": "_amt",
          "type": "uint256"
        }
      ],
      "name": "sellMedicines",
      "outputs": [
        {
          "internalType": "bool",
          "name": "",
          "type": "bool"
        }
      ],
      "payable": false,
      "stateMutability": "nonpayable",
      "type": "function"
    },
    {
      "constant": false,
      "inputs": [
        {
          "internalType": "string",
          "name": "Ihash",
          "type": "string"
        }
      ],
      "name": "addInsCompany",
      "outputs": [
        {
          "internalType": "bool",
          "name": "",
          "type": "bool"
        }
      ],
      "payable": false,
      "stateMutability": "nonpayable",
      "type": "function"
    },
    {
      "constant": false,
      "inputs": [
        {
          "internalType": "address",
          "name": "patId",
          "type": "address"
        }
      ],
      "name": "approveInsurance",
      "outputs": [
        {
          "internalType": "bool",
          "name": "",
          "type": "bool"
        }
      ],
      "payable": false,
      "stateMutability": "nonpayable",
      "type": "function"
    }
  ],
  "bytecode": "0x608060405234801561001057600080fd5b5060016000803373ffffffffffffffffffffffffffffffffffffffff1673ffffffffffffffffffffffffffffffffffffffff16815260200190815260200160002081905550613338806100646000396000f3fe608060405234801561001057600080fd5b50600436106101215760003560e01c80638537b375116100ad578063af874a7611610071578063af874a76146103c6578063b5368e20146103f6578063c1a92c2814610428578063e9e4739314610458578063fa8369521461047657610121565b80638537b375146102d657806386332ccf146103065780639fa9941214610336578063a2e421a014610366578063a70800591461039657610121565b80635a8df873116100f45780635a8df873146101e65780635e6c1fdf1461021657806365ad4ca6146102465780636659cbc3146102765780636f77926b146102a657610121565b80630ae5e739146101265780630e7aa5e51461015657806320bacfbd146101865780632f04e064146101b6575b600080fd5b610140600480360361013b919081019061282d565b6104a6565b60405161014d9190612fec565b60405180910390f35b610170600480360361016b919081019061282d565b6105e8565b60405161017d9190612fec565b60405180910390f35b6101a0600480360361019b91908101906129cc565b6107be565b6040516101ad9190612fec565b60405180910390f35b6101d060048036036101cb919081019061282d565b610974565b6040516101dd9190613007565b60405180910390f35b61020060048036036101fb919081019061282d565b610a58565b60405161020d9190612fca565b60405180910390f35b610230600480360361022b91908101906128e6565b610d24565b60405161023d9190612fec565b60405180910390f35b610260600480360361025b9190810190612892565b610efe565b60405161026d9190612fec565b60405180910390f35b610290600480360361028b919081019061282d565b61100f565b60405161029d9190613007565b60405180910390f35b6102c060048036036102bb919081019061282d565b6110f3565b6040516102cd9190613007565b60405180910390f35b6102f060048036036102eb91908101906129cc565b6111d4565b6040516102fd9190612fec565b60405180910390f35b610320600480360361031b9190810190612892565b6113a8565b60405161032d9190613075565b60405180910390f35b610350600480360361034b91908101906129cc565b611585565b60405161035d9190612fec565b60405180910390f35b610380600480360361037b9190810190612a0d565b61173b565b60405161038d9190613007565b60405180910390f35b6103b060048036036103ab9190810190612965565b61191c565b6040516103bd9190612fec565b60405180910390f35b6103e060048036036103db9190810190612856565b611ac9565b6040516103ed9190612fec565b60405180910390f35b610410600480360361040b919081019061282d565b611c15565b60405161041f93929190613029565b60405180910390f35b610442600480360361043d919081019061282d565b611f43565b60405161044f9190612fec565b60405180910390f35b6104606121e4565b60405161046d9190612fa8565b60405180910390f35b610490600480360361048b91908101906129cc565b612416565b60405161049d9190612fec565b60405180910390f35b60006040516020016104b790612f22565b60405160208183030381529060405280519060200120600160003373ffffffffffffffffffffffffffffffffffffffff1673ffffffffffffffffffffffffffffffffffffffff16815260200190815260200160002060405160200161051c9190612ee1565b604051602081830303815290604052805190602001201461053c57600080fd5b600360003373ffffffffffffffffffffffffffffffffffffffff1673ffffffffffffffffffffffffffffffffffffffff1681526020019081526020016000208290806001815401808255809150509060018203906000526020600020016000909192909190916101000a81548173ffffffffffffffffffffffffffffffffffffffff021916908373ffffffffffffffffffffffffffffffffffffffff1602179055505060019050919050565b60006040516020016105f990612f22565b60405160208183030381529060405280519060200120600160003373ffffffffffffffffffffffffffffffffffffffff1673ffffffffffffffffffffffffffffffffffffffff16815260200190815260200160002060405160200161065e9190612ee1565b604051602081830303815290604052805190602001201461067e57600080fd5b60405160200161068d90612ef8565b60405160208183030381529060405280519060200120600160008473ffffffffffffffffffffffffffffffffffffffff1673ffffffffffffffffffffffffffffffffffffffff1681526020019081526020016000206040516020016106f29190612ee1565b604051602081830303815290604052805190602001201461071257600080fd5b600a60008373ffffffffffffffffffffffffffffffffffffffff1673ffffffffffffffffffffffffffffffffffffffff1681526020019081526020016000203390806001815401808255809150509060018203906000526020600020016000909192909190916101000a81548173ffffffffffffffffffffffffffffffffffffffff021916908373ffffffffffffffffffffffffffffffffffffffff1602179055505060019050919050565b60006040516020016107cf90612f0d565b60405160208183030381529060405280519060200120600160003373ffffffffffffffffffffffffffffffffffffffff1673ffffffffffffffffffffffffffffffffffffffff1681526020019081526020016000206040516020016108349190612ee1565b604051602081830303815290604052805190602001201461085457600080fd5b6040518060400160405280600681526020017f646f63746f720000000000000000000000000000000000000000000000000000815250600160003373ffffffffffffffffffffffffffffffffffffffff1673ffffffffffffffffffffffffffffffffffffffff16815260200190815260200160002090805190602001906108dc929190612609565b5081600460003373ffffffffffffffffffffffffffffffffffffffff1673ffffffffffffffffffffffffffffffffffffffff1681526020019081526020016000206000019080519060200190610933929190612609565b507f69908b2e63170aa89ef89719bbe3b4c92cccc38653968ab25f4464eff7c28ac8336040516109639190612f8d565b60405180910390a160019050919050565b6060600460008373ffffffffffffffffffffffffffffffffffffffff1673ffffffffffffffffffffffffffffffffffffffff1681526020019081526020016000206000018054600181600116156101000203166002900480601f016020809104026020016040519081016040528092919081815260200182805460018160011615610100020316600290048015610a4c5780601f10610a2157610100808354040283529160200191610a4c565b820191906000526020600020905b815481529060010190602001808311610a2f57829003601f168201915b50505050509050919050565b6060604051602001610a6990612f37565b60405160208183030381529060405280519060200120600160003373ffffffffffffffffffffffffffffffffffffffff1673ffffffffffffffffffffffffffffffffffffffff168152602001908152602001600020604051602001610ace9190612ee1565b6040516020818303038152906040528051906020012014610aee57600080fd5b600860008373ffffffffffffffffffffffffffffffffffffffff1673ffffffffffffffffffffffffffffffffffffffff168152602001908152602001600020805480602002602001604051908101604052809291908181526020016000905b82821015610d1957838290600052602060002090600302016040518060600160405290816000820160009054906101000a900473ffffffffffffffffffffffffffffffffffffffff1673ffffffffffffffffffffffffffffffffffffffff1673ffffffffffffffffffffffffffffffffffffffff168152602001600182018054600181600116156101000203166002900480601f016020809104026020016040519081016040528092919081815260200182805460018160011615610100020316600290048015610c5f5780601f10610c3457610100808354040283529160200191610c5f565b820191906000526020600020905b815481529060010190602001808311610c4257829003601f168201915b50505050508152602001600282018054600181600116156101000203166002900480601f016020809104026020016040519081016040528092919081815260200182805460018160011615610100020316600290048015610d015780601f10610cd657610100808354040283529160200191610d01565b820191906000526020600020905b815481529060010190602001808311610ce457829003601f168201915b50505050508152505081526020019060010190610b4d565b505050509050919050565b6000604051602001610d3590612f4c565b60405160208183030381529060405280519060200120600160003373ffffffffffffffffffffffffffffffffffffffff1673ffffffffffffffffffffffffffffffffffffffff168152602001908152602001600020604051602001610d9a9190612ee1565b6040516020818303038152906040528051906020012014610dba57600080fd5b60011515610dc88533611ac9565b151514610dd457600080fd5b600860008573ffffffffffffffffffffffffffffffffffffffff1673ffffffffffffffffffffffffffffffffffffffff16815260200190815260200160002060405180606001604052808673ffffffffffffffffffffffffffffffffffffffff168152602001858152602001848152509080600181540180825580915050906001820390600052602060002090600302016000909192909190915060008201518160000160006101000a81548173ffffffffffffffffffffffffffffffffffffffff021916908373ffffffffffffffffffffffffffffffffffffffff1602179055506020820151816001019080519060200190610ed2929190612689565b506040820151816002019080519060200190610eef929190612689565b50505050600190509392505050565b6000604051602001610f0f90612f4c565b60405160208183030381529060405280519060200120600160003373ffffffffffffffffffffffffffffffffffffffff1673ffffffffffffffffffffffffffffffffffffffff168152602001908152602001600020604051602001610f749190612ee1565b6040516020818303038152906040528051906020012014610f9457600080fd5b60011515610fa28433611ac9565b151514610fae57600080fd5b81600260008573ffffffffffffffffffffffffffffffffffffffff1673ffffffffffffffffffffffffffffffffffffffff1681526020019081526020016000206002019080519060200190611004929190612609565b506001905092915050565b6060600560008373ffffffffffffffffffffffffffffffffffffffff1673ffffffffffffffffffffffffffffffffffffffff1681526020019081526020016000206000018054600181600116156101000203166002900480601f0160208091040260200160405190810160405280929190818152602001828054600181600116156101000203166002900480156110e75780601f106110bc576101008083540402835291602001916110e7565b820191906000526020600020905b8154815290600101906020018083116110ca57829003601f168201915b50505050509050919050565b6060600160008373ffffffffffffffffffffffffffffffffffffffff1673ffffffffffffffffffffffffffffffffffffffff1681526020019081526020016000208054600181600116156101000203166002900480601f0160208091040260200160405190810160405280929190818152602001828054600181600116156101000203166002900480156111c85780601f1061119d576101008083540402835291602001916111c8565b820191906000526020600020905b8154815290600101906020018083116111ab57829003601f168201915b50505050509050919050565b60006040516020016111e590612f0d565b60405160208183030381529060405280519060200120600160003373ffffffffffffffffffffffffffffffffffffffff1673ffffffffffffffffffffffffffffffffffffffff16815260200190815260200160002060405160200161124a9190612ee1565b604051602081830303815290604052805190602001201461126a57600080fd5b611272612709565b8281600001819052506040518060400160405280600781526020017f70617469656e7400000000000000000000000000000000000000000000000000815250600160003373ffffffffffffffffffffffffffffffffffffffff1673ffffffffffffffffffffffffffffffffffffffff1681526020019081526020016000209080519060200190611303929190612609565b5080600260003373ffffffffffffffffffffffffffffffffffffffff1673ffffffffffffffffffffffffffffffffffffffff1681526020019081526020016000206000820151816000019080519060200190611360929190612689565b50602082015181600101908051906020019061137d92919061272a565b50604082015181600201908051906020019061139a929190612689565b509050506001915050919050565b60006040516020016113b990612f4c565b60405160208183030381529060405280519060200120600160003373ffffffffffffffffffffffffffffffffffffffff1673ffffffffffffffffffffffffffffffffffffffff16815260200190815260200160002060405160200161141e9190612ee1565b604051602081830303815290604052805190602001201461143e57600080fd5b6001151561144c8433611ac9565b15151461145857600080fd5b60006114626125cc565b905061146c612777565b838160000181905250600260008673ffffffffffffffffffffffffffffffffffffffff1673ffffffffffffffffffffffffffffffffffffffff16815260200190815260200160002060010182908060018154018082558091505090600182039060005260206000200160009091929091909150555080600760008481526020019081526020016000206000820151816000019080519060200190611511929190612689565b509050508473ffffffffffffffffffffffffffffffffffffffff163373ffffffffffffffffffffffffffffffffffffffff167fb100fd3e4cab57d0dd8d6f2139052978f6fbd675908475500a05f57c2fd3fd32846040516115729190613075565b60405180910390a3819250505092915050565b600060405160200161159690612f0d565b60405160208183030381529060405280519060200120600160003373ffffffffffffffffffffffffffffffffffffffff1673ffffffffffffffffffffffffffffffffffffffff1681526020019081526020016000206040516020016115fb9190612ee1565b604051602081830303815290604052805190602001201461161b57600080fd5b6040518060400160405280600a81526020017f496e73617572616e636500000000000000000000000000000000000000000000815250600160003373ffffffffffffffffffffffffffffffffffffffff1673ffffffffffffffffffffffffffffffffffffffff16815260200190815260200160002090805190602001906116a3929190612609565b5081600560003373ffffffffffffffffffffffffffffffffffffffff1673ffffffffffffffffffffffffffffffffffffffff16815260200190815260200160002060000190805190602001906116fa929190612609565b507fceecea79e4e48c1f16ba1294443d282cd050a264663c4a0d10156221c9fd88a13360405161172a9190612f8d565b60405180910390a160019050919050565b606060405160200161174c90612f4c565b60405160208183030381529060405280519060200120600160003373ffffffffffffffffffffffffffffffffffffffff1673ffffffffffffffffffffffffffffffffffffffff1681526020019081526020016000206040516020016117b19190612ee1565b6040516020818303038152906040528051906020012014156117d257600080fd5b6040516020016117e190612f22565b60405160208183030381529060405280519060200120600160003373ffffffffffffffffffffffffffffffffffffffff1673ffffffffffffffffffffffffffffffffffffffff1681526020019081526020016000206040516020016118469190612ee1565b604051602081830303815290604052805190602001201461186657600080fd5b600760008381526020019081526020016000206000018054600181600116156101000203166002900480601f0160208091040260200160405190810160405280929190818152602001828054600181600116156101000203166002900480156119105780601f106118e557610100808354040283529160200191611910565b820191906000526020600020905b8154815290600101906020018083116118f357829003601f168201915b50505050509050919050565b600060405160200161192d90612f37565b60405160208183030381529060405280519060200120600160003373ffffffffffffffffffffffffffffffffffffffff1673ffffffffffffffffffffffffffffffffffffffff1681526020019081526020016000206040516020016119929190612ee1565b60405160208183030381529060405280519060200120146119b257600080fd5b600960008573ffffffffffffffffffffffffffffffffffffffff1673ffffffffffffffffffffffffffffffffffffffff16815260200190815260200160002060405180606001604052803373ffffffffffffffffffffffffffffffffffffffff168152602001858152602001848152509080600181540180825580915050906001820390600052602060002090600302016000909192909190915060008201518160000160006101000a81548173ffffffffffffffffffffffffffffffffffffffff021916908373ffffffffffffffffffffffffffffffffffffffff1602179055506020820151816001019080519060200190611ab0929190612689565b5060408201518160020155505050600190509392505050565b60006060600360008573ffffffffffffffffffffffffffffffffffffffff1673ffffffffffffffffffffffffffffffffffffffff168152602001908152602001600020805480602002602001604051908101604052809291908181526020018280548015611b8c57602002820191906000526020600020905b8160009054906101000a900473ffffffffffffffffffffffffffffffffffffffff1673ffffffffffffffffffffffffffffffffffffffff1681526020019060010190808311611b42575b5050505050905060008151905060008090505b81811015611c07578473ffffffffffffffffffffffffffffffffffffffff16838281518110611bca57fe5b602002602001015173ffffffffffffffffffffffffffffffffffffffff161415611bfa5760019350505050611c0f565b8080600101915050611b9f565b506000925050505b92915050565b60608060608373ffffffffffffffffffffffffffffffffffffffff163373ffffffffffffffffffffffffffffffffffffffff1614611c5257600080fd5b604051602001611c6190612f22565b60405160208183030381529060405280519060200120600160003373ffffffffffffffffffffffffffffffffffffffff1673ffffffffffffffffffffffffffffffffffffffff168152602001908152602001600020604051602001611cc69190612ee1565b6040516020818303038152906040528051906020012014611ce657600080fd5b600260003373ffffffffffffffffffffffffffffffffffffffff1673ffffffffffffffffffffffffffffffffffffffff168152602001908152602001600020600001600260003373ffffffffffffffffffffffffffffffffffffffff1673ffffffffffffffffffffffffffffffffffffffff168152602001908152602001600020600101600260003373ffffffffffffffffffffffffffffffffffffffff1673ffffffffffffffffffffffffffffffffffffffff168152602001908152602001600020600201828054600181600116156101000203166002900480601f016020809104026020016040519081016040528092919081815260200182805460018160011615610100020316600290048015611e415780601f10611e1657610100808354040283529160200191611e41565b820191906000526020600020905b815481529060010190602001808311611e2457829003601f168201915b5050505050925081805480602002602001604051908101604052809291908181526020018280548015611e9357602002820191906000526020600020905b815481526020019060010190808311611e7f575b50505050509150808054600181600116156101000203166002900480601f016020809104026020016040519081016040528092919081815260200182805460018160011615610100020316600290048015611f2f5780601f10611f0457610100808354040283529160200191611f2f565b820191906000526020600020905b815481529060010190602001808311611f1257829003601f168201915b505050505090509250925092509193909250565b6000604051602001611f5490612ef8565b60405160208183030381529060405280519060200120600160003373ffffffffffffffffffffffffffffffffffffffff1673ffffffffffffffffffffffffffffffffffffffff168152602001908152602001600020604051602001611fb99190612ee1565b6040516020818303038152906040528051906020012014611fd957600080fd5b6060600a60003373ffffffffffffffffffffffffffffffffffffffff1673ffffffffffffffffffffffffffffffffffffffff16815260200190815260200160002080548060200260200160405190810160405280929190818152602001828054801561209a57602002820191906000526020600020905b8160009054906101000a900473ffffffffffffffffffffffffffffffffffffffff1673ffffffffffffffffffffffffffffffffffffffff1681526020019060010190808311612050575b5050505050905060008151905060007fffffffffffffffffffffffffffffffffffffffffffffffffffffffffffffff86905060008090505b82811015612132578573ffffffffffffffffffffffffffffffffffffffff168482815181106120fd57fe5b602002602001015173ffffffffffffffffffffffffffffffffffffffff161415612125578091505b80806001019150506120d2565b507fffffffffffffffffffffffffffffffffffffffffffffffffffffffffffffff8681146121d8576000819050600a60003373ffffffffffffffffffffffffffffffffffffffff1673ffffffffffffffffffffffffffffffffffffffff16815260200190815260200160002081815481106121a957fe5b9060005260206000200160006101000a81549073ffffffffffffffffffffffffffffffffffffffff0219169055505b60019350505050919050565b60606040516020016121f590612f22565b60405160208183030381529060405280519060200120600160003373ffffffffffffffffffffffffffffffffffffffff1673ffffffffffffffffffffffffffffffffffffffff16815260200190815260200160002060405160200161225a9190612ee1565b604051602081830303815290604052805190602001201461227a57600080fd5b600960003373ffffffffffffffffffffffffffffffffffffffff1673ffffffffffffffffffffffffffffffffffffffff168152602001908152602001600020805480602002602001604051908101604052809291908181526020016000905b8282101561240d57838290600052602060002090600302016040518060600160405290816000820160009054906101000a900473ffffffffffffffffffffffffffffffffffffffff1673ffffffffffffffffffffffffffffffffffffffff1673ffffffffffffffffffffffffffffffffffffffff168152602001600182018054600181600116156101000203166002900480601f0160208091040260200160405190810160405280929190818152602001828054600181600116156101000203166002900480156123eb5780601f106123c0576101008083540402835291602001916123eb565b820191906000526020600020905b8154815290600101906020018083116123ce57829003601f168201915b50505050508152602001600282015481525050815260200190600101906122d9565b50505050905090565b600060405160200161242790612f0d565b60405160208183030381529060405280519060200120600160003373ffffffffffffffffffffffffffffffffffffffff1673ffffffffffffffffffffffffffffffffffffffff16815260200190815260200160002060405160200161248c9190612ee1565b60405160208183030381529060405280519060200120146124ac57600080fd5b6040518060400160405280600781526020017f4368656d69737400000000000000000000000000000000000000000000000000815250600160003373ffffffffffffffffffffffffffffffffffffffff1673ffffffffffffffffffffffffffffffffffffffff1681526020019081526020016000209080519060200190612534929190612609565b5081600660003373ffffffffffffffffffffffffffffffffffffffff1673ffffffffffffffffffffffffffffffffffffffff168152602001908152602001600020600001908051906020019061258b929190612609565b507fecc3bdfcb393e93b309b9a8b9a0b2a27316c7a94eacc7c3b1a1735528af9507c336040516125bb9190612f8d565b60405180910390a160019050919050565b600060fb42446040516020016125e3929190612f61565b6040516020818303038152906040528051906020012060001c8161260357fe5b06905090565b828054600181600116156101000203166002900490600052602060002090601f016020900481019282601f1061264a57805160ff1916838001178555612678565b82800160010185558215612678579182015b8281111561267757825182559160200191906001019061265c565b5b509050612685919061278a565b5090565b828054600181600116156101000203166002900490600052602060002090601f016020900481019282601f106126ca57805160ff19168380011785556126f8565b828001600101855582156126f8579182015b828111156126f75782518255916020019190600101906126dc565b5b509050612705919061278a565b5090565b60405180606001604052806060815260200160608152602001606081525090565b828054828255906000526020600020908101928215612766579160200282015b8281111561276557825182559160200191906001019061274a565b5b509050612773919061278a565b5090565b6040518060200160405280606081525090565b6127ac91905b808211156127a8576000816000905550600101612790565b5090565b90565b6000813590506127be816132c7565b92915050565b600082601f8301126127d557600080fd5b81356127e86127e3826130bd565b613090565b9150808252602083016020830185838301111561280457600080fd5b61280f83828461326a565b50505092915050565b600081359050612827816132de565b92915050565b60006020828403121561283f57600080fd5b600061284d848285016127af565b91505092915050565b6000806040838503121561286957600080fd5b6000612877858286016127af565b9250506020612888858286016127af565b9150509250929050565b600080604083850312156128a557600080fd5b60006128b3858286016127af565b925050602083013567ffffffffffffffff8111156128d057600080fd5b6128dc858286016127c4565b9150509250929050565b6000806000606084860312156128fb57600080fd5b6000612909868287016127af565b935050602084013567ffffffffffffffff81111561292657600080fd5b612932868287016127c4565b925050604084013567ffffffffffffffff81111561294f57600080fd5b61295b868287016127c4565b9150509250925092565b60008060006060848603121561297a57600080fd5b6000612988868287016127af565b935050602084013567ffffffffffffffff8111156129a557600080fd5b6129b1868287016127c4565b92505060406129c286828701612818565b9150509250925092565b6000602082840312156129de57600080fd5b600082013567ffffffffffffffff8111156129f857600080fd5b612a04848285016127c4565b91505092915050565b600060208284031215612a1f57600080fd5b6000612a2d84828501612818565b91505092915050565b6000612a428383612e05565b905092915050565b6000612a568383612e55565b905092915050565b6000612a6a8383612eac565b60208301905092915050565b612a7f81613234565b82525050565b612a8e816131ec565b82525050565b6000612a9f8261312e565b612aa9818561318c565b935083602082028501612abb856130e9565b8060005b85811015612af75784840389528151612ad88582612a36565b9450612ae383613165565b925060208a01995050600181019050612abf565b50829750879550505050505092915050565b6000612b1482613139565b612b1e818561319d565b935083602082028501612b30856130f9565b8060005b85811015612b6c5784840389528151612b4d8582612a4a565b9450612b5883613172565b925060208a01995050600181019050612b34565b50829750879550505050505092915050565b6000612b8982613144565b612b9381856131ae565b9350612b9e83613109565b8060005b83811015612bcf578151612bb68882612a5e565b9750612bc18361317f565b925050600181019050612ba2565b5085935050505092915050565b612be5816131fe565b82525050565b6000612bf68261315a565b612c0081856131d0565b9350612c10818560208601613279565b612c19816132b6565b840191505092915050565b6000612c2f8261314f565b612c3981856131bf565b9350612c49818560208601613279565b612c52816132b6565b840191505092915050565b600081546001811660008114612c7a5760018114612c9f57612ce3565b607f6002830416612c8b81876131e1565b955060ff1983168652808601935050612ce3565b60028204612cad81876131e1565b9550612cb885613119565b60005b82811015612cda57815481890152600182019150602081019050612cbb565b82880195505050505b505092915050565b6000612cf8600a836131e1565b91507f496e73617572616e6365000000000000000000000000000000000000000000006000830152600a82019050919050565b6000612d386000836131e1565b9150600082019050919050565b6000612d526007836131e1565b91507f70617469656e74000000000000000000000000000000000000000000000000006000830152600782019050919050565b6000612d926007836131e1565b91507f4368656d697374000000000000000000000000000000000000000000000000006000830152600782019050919050565b6000612dd26006836131e1565b91507f646f63746f7200000000000000000000000000000000000000000000000000006000830152600682019050919050565b6000606083016000830151612e1d6000860182612a85565b5060208301518482036020860152612e358282612c24565b9150506040830151612e4a6040860182612eac565b508091505092915050565b6000606083016000830151612e6d6000860182612a85565b5060208301518482036020860152612e858282612c24565b91505060408301518482036040860152612e9f8282612c24565b9150508091505092915050565b612eb58161322a565b82525050565b612ec48161322a565b82525050565b612edb612ed68261322a565b6132ac565b82525050565b6000612eed8284612c5d565b915081905092915050565b6000612f0382612ceb565b9150819050919050565b6000612f1882612d2b565b9150819050919050565b6000612f2d82612d45565b9150819050919050565b6000612f4282612d85565b9150819050919050565b6000612f5782612dc5565b9150819050919050565b6000612f6d8285612eca565b602082019150612f7d8284612eca565b6020820191508190509392505050565b6000602082019050612fa26000830184612a76565b92915050565b60006020820190508181036000830152612fc28184612a94565b905092915050565b60006020820190508181036000830152612fe48184612b09565b905092915050565b60006020820190506130016000830184612bdc565b92915050565b600060208201905081810360008301526130218184612beb565b905092915050565b600060608201905081810360008301526130438186612beb565b905081810360208301526130578185612b7e565b9050818103604083015261306b8184612beb565b9050949350505050565b600060208201905061308a6000830184612ebb565b92915050565b6000604051905081810181811067ffffffffffffffff821117156130b357600080fd5b8060405250919050565b600067ffffffffffffffff8211156130d457600080fd5b601f19601f8301169050602081019050919050565b6000819050602082019050919050565b6000819050602082019050919050565b6000819050602082019050919050565b60008190508160005260206000209050919050565b600081519050919050565b600081519050919050565b600081519050919050565b600081519050919050565b600081519050919050565b6000602082019050919050565b6000602082019050919050565b6000602082019050919050565b600082825260208201905092915050565b600082825260208201905092915050565b600082825260208201905092915050565b600082825260208201905092915050565b600082825260208201905092915050565b600081905092915050565b60006131f78261320a565b9050919050565b60008115159050919050565b600073ffffffffffffffffffffffffffffffffffffffff82169050919050565b6000819050919050565b600061323f82613246565b9050919050565b600061325182613258565b9050919050565b60006132638261320a565b9050919050565b82818337600083830152505050565b60005b8381101561329757808201518184015260208101905061327c565b838111156132a6576000848401525b50505050565b6000819050919050565b6000601f19601f8301169050919050565b6132d0816131ec565b81146132db57600080fd5b50565b6132e78161322a565b81146132f257600080fd5b5056fea365627a7a72315820776741b7b626a63ce1271d966774223e1459b66fc01ad836760808d05b10582b6c6578706572696d656e74616cf564736f6c63430005100040",
  "source": "// SPDX-License-Identifier: GPL-3.0\r\n\r\npragma solidity >=0.5.16;\r\npragma experimental ABIEncoderV2;\r\ncontract Storage {\r\n    //mappings\r\n    mapping(address => uint) authCaller;\r\n    mapping(address => string) userType;\r\n    mapping(address => patient) PData;\r\n    mapping(address=> address[]) patToDoctor;\r\n    mapping(address => doctor) DData;\r\n    mapping(address => insaurance) IData;\r\n    mapping(address => chemist) CData;\r\n    mapping(uint => treatment) treatmentDetails;\r\n    mapping(address => medicine[]) PatToMed;\r\n    mapping(address => bill[]) patToChemistBill;\r\n    mapping(address => address[]) insToPat;\r\n    //constructor\r\n    constructor() public{\r\n        authCaller[msg.sender] = 1;\r\n    }\r\n    \r\n    \r\n    //events\r\n     event DoctorAdded(address doctorAdd);\r\n     event ChemistAdded(address ChemistAdd);\r\n     event insAdded(address insAdd);\r\n     event treated(address indexed Did,address indexed Pid,uint tid);\r\n    //structs\r\n    struct bill{\r\n        address chemid;\r\n        string date;\r\n        uint amt;\r\n    }\r\n     struct patient{\r\n        string Phash; \r\n        uint [] treatmentId;\r\n        string precautions;\r\n\r\n    }\r\n    struct doctor{\r\n        string Dhash;\r\n    }\r\n    struct chemist{\r\n        string Chash;\r\n    }\r\n    struct insaurance{\r\n        string Ihash;\r\n    }\r\n     struct treatment {\r\n        string Thash;\r\n    }\r\n    struct medicine{\r\n        address pid;\r\n        string medicines;\r\n        string date;\r\n    }\r\n    //struct variable\r\n   \r\n    \r\n    //patient functions\r\n    \r\n    //make function to show all chemist bills\r\n    \r\n    function addPat(string memory _Phash) public returns(bool){\r\n        require(keccak256(abi.encodePacked(userType[msg.sender])) == keccak256(abi.encodePacked(\"\")));\r\n        patient memory pat;\r\n        pat.Phash = _Phash;\r\n        userType[msg.sender] = 'patient';\r\n        PData[msg.sender] = pat;\r\n        return true;\r\n    }\r\n    function getbills() public returns(bill[] memory){\r\n        require(keccak256(abi.encodePacked(userType[msg.sender])) == keccak256(abi.encodePacked(\"patient\")));\r\n        return patToChemistBill[msg.sender];\r\n    }\r\n    //return patient treatmentId and precautions as well\r\n    function getPatient(address _Padd) public returns(string memory,uint[] memory,string memory){\r\n        require(msg.sender == _Padd);\r\n        require(keccak256(abi.encodePacked(userType[msg.sender])) == keccak256(abi.encodePacked(\"patient\")));\r\n        \r\n        return (PData[msg.sender].Phash,PData[msg.sender].treatmentId,PData[msg.sender].precautions);\r\n    }\r\n    \r\n    function getDoctor(address _Dadd) public returns(string memory){\r\n        //need to complete\r\n         return DData[_Dadd].Dhash; \r\n    }\r\n    function getIns(address _Iadd) public returns(string memory){\r\n        //need to complete\r\n         return IData[_Iadd].Ihash; \r\n    }\r\n    \r\n    function grantAccess(address _Dadd) public returns(bool){\r\n        require(keccak256(abi.encodePacked(userType[msg.sender])) == keccak256(abi.encodePacked(\"patient\")));\r\n        patToDoctor[msg.sender].push(_Dadd);\r\n        return true;\r\n    }\r\n    //check give address is insaurance company is or not\r\n    function applyIns(address _Iadd) public returns(bool){\r\n         require(keccak256(abi.encodePacked(userType[msg.sender])) == keccak256(abi.encodePacked(\"patient\")));\r\n         require(keccak256(abi.encodePacked(userType[_Iadd])) == keccak256(abi.encodePacked(\"Insaurance\")));\r\n         insToPat[_Iadd].push(msg.sender);\r\n         return true;\r\n            \r\n    }\r\n     function isValid(address pat,address doctor) public returns(bool){\r\n        address[] memory temp = patToDoctor[pat];\r\n        uint len = temp.length;\r\n        for(uint i = 0;i<len;i++){\r\n            if(temp[i] == doctor)\r\n                return true;\r\n        }\r\n        return false;\r\n    }\r\n    \r\n    //getUser\r\n    function getUser(address _Uaddress) public returns(string memory){\r\n        return userType[_Uaddress];\r\n    }\r\n    \r\n    //Doctor \r\n    \r\n     function addDoc(string memory _Dhash) public returns(bool){\r\n        require(keccak256(abi.encodePacked(userType[msg.sender])) == keccak256(abi.encodePacked(\"\")));\r\n        userType[msg.sender] = 'doctor';\r\n        DData[msg.sender].Dhash = _Dhash;\r\n        emit DoctorAdded(msg.sender);\r\n        return true;\r\n    }\r\n    \r\n    function updatePrecautions(address _Padd,string memory _precautions) public returns(bool){\r\n        require(keccak256(abi.encodePacked(userType[msg.sender])) == keccak256(abi.encodePacked(\"doctor\")));\r\n        require(isValid(_Padd,msg.sender) == true);\r\n        PData[_Padd].precautions = _precautions;\r\n        return true;\r\n        \r\n    }\r\n   function random() private view returns (uint) {\r\n       return uint(uint256(keccak256(abi.encodePacked(block.timestamp, block.difficulty)))%251);\r\n   }\r\n    function treatPatient(address _Padd, string memory _Thash)\r\n    public returns(uint){\r\n        require(keccak256(abi.encodePacked(userType[msg.sender])) == keccak256(abi.encodePacked(\"doctor\")));\r\n        require(isValid(_Padd,msg.sender) == true);\r\n        uint _tid = random();\r\n        treatment memory trt;\r\n        trt.Thash = _Thash;\r\n        PData[_Padd].treatmentId.push(_tid);\r\n        treatmentDetails[_tid] = trt;\r\n        emit treated(msg.sender,_Padd,_tid);\r\n        return _tid;\r\n    }\r\n    //check if chemist is present   \r\n    function giveMedicines(address _pid,string memory _medicines,string memory _date) public returns(bool){\r\n        require(keccak256(abi.encodePacked(userType[msg.sender])) == keccak256(abi.encodePacked(\"doctor\")));\r\n        require(isValid(_pid,msg.sender) == true);\r\n        PatToMed[_pid].push(medicine(_pid,_medicines,_date));\r\n        return true;\r\n    }\r\n    function getTrtDetails(uint _tid) public returns(string memory){\r\n         require(keccak256(abi.encodePacked(userType[msg.sender])) != keccak256(abi.encodePacked(\"doctor\")));\r\n         require(keccak256(abi.encodePacked(userType[msg.sender])) == keccak256(abi.encodePacked(\"patient\")));\r\n         return treatmentDetails[_tid].Thash;\r\n    }\r\n    \r\n    //chemist\r\n    \r\n    function addChemist(string memory Chash) public returns(bool){\r\n      require(keccak256(abi.encodePacked(userType[msg.sender])) == keccak256(abi.encodePacked(\"\")));\r\n      userType[msg.sender] = 'Chemist';\r\n        CData[msg.sender].Chash = Chash;\r\n        emit ChemistAdded(msg.sender);\r\n        return true;\r\n    }\r\n    function getMedicineDetails(address _pid) public returns(medicine[] memory){\r\n        require(keccak256(abi.encodePacked(userType[msg.sender])) == keccak256(abi.encodePacked(\"Chemist\")));\r\n        return PatToMed[_pid];\r\n    }\r\n    function sellMedicines(address _pid,string memory _date,uint _amt) public returns(bool){\r\n        require(keccak256(abi.encodePacked(userType[msg.sender])) == keccak256(abi.encodePacked(\"Chemist\")));\r\n        \r\n        patToChemistBill[_pid].push(bill(msg.sender,_date,_amt));\r\n        return true;\r\n    }\r\n    \r\n   //insaurance\r\n   \r\n   function addInsCompany(string memory Ihash) public returns(bool){\r\n       require(keccak256(abi.encodePacked(userType[msg.sender])) == keccak256(abi.encodePacked(\"\")));\r\n        userType[msg.sender] = 'Insaurance';\r\n        IData[msg.sender].Ihash = Ihash;\r\n        emit insAdded(msg.sender);\r\n        return true;\r\n   }\r\n    function approveInsurance(address patId) public returns(bool){\r\n        require(keccak256(abi.encodePacked(userType[msg.sender])) == keccak256(abi.encodePacked(\"Insaurance\")));\r\n        address[] memory arr = insToPat[msg.sender];\r\n        uint len = arr.length;\r\n        int j = -122;\r\n        for(uint i = 0 ; i < len ; i++ ){\r\n            if(arr[i] == patId){\r\n             j=int (i);   \r\n            }\r\n        }\r\n        if(j != -122){\r\n            uint i = uint (j);\r\n            delete insToPat[msg.sender][i];\r\n        }\r\n        return true;\r\n    }\r\n    \r\n}",
  "sourcePath": "E:\\react\\HealthCare\\Backend\\contracts\\Health.sol",
  "compiler": {
    "name": "solc",
    "version": "0.5.16+commit.9c3226ce.Emscripten.clang"
  },
  "schemaVersion": "3.2.0",
  "updatedAt": "2021-01-09T05:07:59.171Z",
  "devdoc": {
    "methods": {}
  },
  "userdoc": {
    "methods": {}
  }
}